{
  "_format": "hh-sol-artifact-1",
  "contractName": "RentMyApartment",
  "sourceName": "contracts/RentMyApartment.sol",
  "abi": [
    {
      "inputs": [],
      "stateMutability": "nonpayable",
      "type": "constructor"
    },
    {
      "anonymous": false,
      "inputs": [
        {
          "indexed": true,
          "internalType": "address",
          "name": "owner",
          "type": "address"
        },
        {
          "indexed": true,
          "internalType": "address",
          "name": "approved",
          "type": "address"
        },
        {
          "indexed": true,
          "internalType": "uint256",
          "name": "tokenId",
          "type": "uint256"
        }
      ],
      "name": "Approval",
      "type": "event"
    },
    {
      "anonymous": false,
      "inputs": [
        {
          "indexed": true,
          "internalType": "address",
          "name": "owner",
          "type": "address"
        },
        {
          "indexed": true,
          "internalType": "address",
          "name": "operator",
          "type": "address"
        },
        {
          "indexed": false,
          "internalType": "bool",
          "name": "approved",
          "type": "bool"
        }
      ],
      "name": "ApprovalForAll",
      "type": "event"
    },
    {
      "anonymous": false,
      "inputs": [
        {
          "indexed": false,
          "internalType": "address",
          "name": "sender",
          "type": "address"
        },
        {
          "indexed": false,
          "internalType": "uint256",
          "name": "tokenId",
          "type": "uint256"
        }
      ],
      "name": "NewNFTMinted",
      "type": "event"
    },
    {
      "anonymous": false,
      "inputs": [
        {
          "indexed": true,
          "internalType": "address",
          "name": "previousOwner",
          "type": "address"
        },
        {
          "indexed": true,
          "internalType": "address",
          "name": "newOwner",
          "type": "address"
        }
      ],
      "name": "OwnershipTransferred",
      "type": "event"
    },
    {
      "anonymous": false,
      "inputs": [
        {
          "indexed": true,
          "internalType": "address",
          "name": "from",
          "type": "address"
        },
        {
          "indexed": true,
          "internalType": "address",
          "name": "to",
          "type": "address"
        },
        {
          "indexed": true,
          "internalType": "uint256",
          "name": "tokenId",
          "type": "uint256"
        }
      ],
      "name": "Transfer",
      "type": "event"
    },
    {
      "inputs": [
        {
          "internalType": "address",
          "name": "to",
          "type": "address"
        },
        {
          "internalType": "uint256",
          "name": "tokenId",
          "type": "uint256"
        }
      ],
      "name": "approve",
      "outputs": [],
      "stateMutability": "nonpayable",
      "type": "function"
    },
    {
      "inputs": [
        {
          "internalType": "address",
          "name": "owner",
          "type": "address"
        }
      ],
      "name": "balanceOf",
      "outputs": [
        {
          "internalType": "uint256",
          "name": "",
          "type": "uint256"
        }
      ],
      "stateMutability": "view",
      "type": "function"
    },
    {
      "inputs": [],
      "name": "getAllRatings",
      "outputs": [
        {
          "components": [
            {
              "internalType": "address",
              "name": "user",
              "type": "address"
            },
            {
              "internalType": "uint8",
              "name": "rating",
              "type": "uint8"
            },
            {
              "internalType": "string",
              "name": "message",
              "type": "string"
            },
            {
              "internalType": "uint256",
              "name": "timestamp",
              "type": "uint256"
            }
          ],
          "internalType": "struct RentMyApartment.Rating[]",
          "name": "",
          "type": "tuple[]"
        }
      ],
      "stateMutability": "view",
      "type": "function"
    },
    {
      "inputs": [
        {
          "internalType": "uint256",
          "name": "tokenId",
          "type": "uint256"
        }
      ],
      "name": "getApproved",
      "outputs": [
        {
          "internalType": "address",
          "name": "",
          "type": "address"
        }
      ],
      "stateMutability": "view",
      "type": "function"
    },
    {
      "inputs": [
        {
          "internalType": "uint256",
          "name": "_id",
          "type": "uint256"
        }
      ],
      "name": "getSpecificRating",
      "outputs": [
        {
          "components": [
            {
              "internalType": "address",
              "name": "user",
              "type": "address"
            },
            {
              "internalType": "uint8",
              "name": "rating",
              "type": "uint8"
            },
            {
              "internalType": "string",
              "name": "message",
              "type": "string"
            },
            {
              "internalType": "uint256",
              "name": "timestamp",
              "type": "uint256"
            }
          ],
          "internalType": "struct RentMyApartment.Rating",
          "name": "",
          "type": "tuple"
        }
      ],
      "stateMutability": "view",
      "type": "function"
    },
    {
      "inputs": [],
      "name": "getUnavailableDates",
      "outputs": [
        {
          "internalType": "uint256[]",
          "name": "",
          "type": "uint256[]"
        }
      ],
      "stateMutability": "view",
      "type": "function"
    },
    {
      "inputs": [
        {
          "internalType": "address",
          "name": "owner",
          "type": "address"
        },
        {
          "internalType": "address",
          "name": "operator",
          "type": "address"
        }
      ],
      "name": "isApprovedForAll",
      "outputs": [
        {
          "internalType": "bool",
          "name": "",
          "type": "bool"
        }
      ],
      "stateMutability": "view",
      "type": "function"
    },
    {
      "inputs": [],
      "name": "name",
      "outputs": [
        {
          "internalType": "string",
          "name": "",
          "type": "string"
        }
      ],
      "stateMutability": "view",
      "type": "function"
    },
    {
      "inputs": [],
      "name": "owner",
      "outputs": [
        {
          "internalType": "address",
          "name": "",
          "type": "address"
        }
      ],
      "stateMutability": "view",
      "type": "function"
    },
    {
      "inputs": [
        {
          "internalType": "uint256",
          "name": "tokenId",
          "type": "uint256"
        }
      ],
      "name": "ownerOf",
      "outputs": [
        {
          "internalType": "address",
          "name": "",
          "type": "address"
        }
      ],
      "stateMutability": "view",
      "type": "function"
    },
    {
      "inputs": [
        {
          "internalType": "uint256",
          "name": "_tokenId",
          "type": "uint256"
        },
        {
          "internalType": "uint8",
          "name": "_rating",
          "type": "uint8"
        },
        {
          "internalType": "string",
          "name": "_message",
          "type": "string"
        }
      ],
      "name": "rate",
      "outputs": [],
      "stateMutability": "nonpayable",
      "type": "function"
    },
    {
      "inputs": [],
      "name": "renounceOwnership",
      "outputs": [],
      "stateMutability": "nonpayable",
      "type": "function"
    },
    {
      "inputs": [
        {
          "internalType": "uint256",
          "name": "_startDate",
          "type": "uint256"
        },
        {
          "internalType": "uint256",
          "name": "_endDate",
          "type": "uint256"
        }
      ],
      "name": "rent",
      "outputs": [],
      "stateMutability": "payable",
      "type": "function"
    },
    {
      "inputs": [
        {
          "internalType": "address",
          "name": "from",
          "type": "address"
        },
        {
          "internalType": "address",
          "name": "to",
          "type": "address"
        },
        {
          "internalType": "uint256",
          "name": "tokenId",
          "type": "uint256"
        }
      ],
      "name": "safeTransferFrom",
      "outputs": [],
      "stateMutability": "nonpayable",
      "type": "function"
    },
    {
      "inputs": [
        {
          "internalType": "address",
          "name": "from",
          "type": "address"
        },
        {
          "internalType": "address",
          "name": "to",
          "type": "address"
        },
        {
          "internalType": "uint256",
          "name": "tokenId",
          "type": "uint256"
        },
        {
          "internalType": "bytes",
          "name": "data",
          "type": "bytes"
        }
      ],
      "name": "safeTransferFrom",
      "outputs": [],
      "stateMutability": "nonpayable",
      "type": "function"
    },
    {
      "inputs": [
        {
          "internalType": "address",
          "name": "operator",
          "type": "address"
        },
        {
          "internalType": "bool",
          "name": "approved",
          "type": "bool"
        }
      ],
      "name": "setApprovalForAll",
      "outputs": [],
      "stateMutability": "nonpayable",
      "type": "function"
    },
    {
      "inputs": [
        {
          "internalType": "bytes4",
          "name": "interfaceId",
          "type": "bytes4"
        }
      ],
      "name": "supportsInterface",
      "outputs": [
        {
          "internalType": "bool",
          "name": "",
          "type": "bool"
        }
      ],
      "stateMutability": "view",
      "type": "function"
    },
    {
      "inputs": [],
      "name": "symbol",
      "outputs": [
        {
          "internalType": "string",
          "name": "",
          "type": "string"
        }
      ],
      "stateMutability": "view",
      "type": "function"
    },
    {
      "inputs": [
        {
          "internalType": "uint256",
          "name": "tokenId",
          "type": "uint256"
        }
      ],
      "name": "tokenURI",
      "outputs": [
        {
          "internalType": "string",
          "name": "",
          "type": "string"
        }
      ],
      "stateMutability": "view",
      "type": "function"
    },
    {
      "inputs": [
        {
          "internalType": "address",
          "name": "from",
          "type": "address"
        },
        {
          "internalType": "address",
          "name": "to",
          "type": "address"
        },
        {
          "internalType": "uint256",
          "name": "tokenId",
          "type": "uint256"
        }
      ],
      "name": "transferFrom",
      "outputs": [],
      "stateMutability": "nonpayable",
      "type": "function"
    },
    {
      "inputs": [
        {
          "internalType": "address",
          "name": "newOwner",
          "type": "address"
        }
      ],
      "name": "transferOwnership",
      "outputs": [],
      "stateMutability": "nonpayable",
      "type": "function"
    },
    {
      "inputs": [],
      "name": "withdrawMoney",
      "outputs": [],
      "stateMutability": "nonpayable",
      "type": "function"
    }
  ],
  "bytecode": "0x60806040523480156200001157600080fd5b506040518060400160405280600f81526020017f52656e744d7941706172746d656e7400000000000000000000000000000000008152506040518060400160405280600481526020017f52454e540000000000000000000000000000000000000000000000000000000081525081600090816200008f919062000529565b508060019081620000a1919062000529565b505050620000c4620000b86200011560201b60201c565b6200011d60201b60201c565b6200010f6040518060400160405280600c81526020017f436f6e7374727563746f722e0000000000000000000000000000000000000000815250620001e360201b6200162f1760201c565b620006cd565b600033905090565b6000600760009054906101000a900473ffffffffffffffffffffffffffffffffffffffff16905081600760006101000a81548173ffffffffffffffffffffffffffffffffffffffff021916908373ffffffffffffffffffffffffffffffffffffffff1602179055508173ffffffffffffffffffffffffffffffffffffffff168173ffffffffffffffffffffffffffffffffffffffff167f8be0079c531659141344cd1fd0a4f28419497f9722a3daafe3b4186f6b6457e060405160405180910390a35050565b6200028381604051602401620001fa9190620006a9565b6040516020818303038152906040527f41304fac000000000000000000000000000000000000000000000000000000007bffffffffffffffffffffffffffffffffffffffffffffffffffffffff19166020820180517bffffffffffffffffffffffffffffffffffffffffffffffffffffffff83818316178352505050506200028660201b60201c565b50565b60008151905060006a636f6e736f6c652e6c6f679050602083016000808483855afa5050505050565b600081519050919050565b7f4e487b7100000000000000000000000000000000000000000000000000000000600052604160045260246000fd5b7f4e487b7100000000000000000000000000000000000000000000000000000000600052602260045260246000fd5b600060028204905060018216806200033157607f821691505b602082108103620003475762000346620002e9565b5b50919050565b60008190508160005260206000209050919050565b60006020601f8301049050919050565b600082821b905092915050565b600060088302620003b17fffffffffffffffffffffffffffffffffffffffffffffffffffffffffffffffff8262000372565b620003bd868362000372565b95508019841693508086168417925050509392505050565b6000819050919050565b6000819050919050565b60006200040a62000404620003fe84620003d5565b620003df565b620003d5565b9050919050565b6000819050919050565b6200042683620003e9565b6200043e620004358262000411565b8484546200037f565b825550505050565b600090565b6200045562000446565b620004628184846200041b565b505050565b5b818110156200048a576200047e6000826200044b565b60018101905062000468565b5050565b601f821115620004d957620004a3816200034d565b620004ae8462000362565b81016020851015620004be578190505b620004d6620004cd8562000362565b83018262000467565b50505b505050565b600082821c905092915050565b6000620004fe60001984600802620004de565b1980831691505092915050565b6000620005198383620004eb565b9150826002028217905092915050565b6200053482620002af565b67ffffffffffffffff81111562000550576200054f620002ba565b5b6200055c825462000318565b620005698282856200048e565b600060209050601f831160018114620005a157600084156200058c578287015190505b6200059885826200050b565b86555062000608565b601f198416620005b1866200034d565b60005b82811015620005db57848901518255600182019150602085019450602081019050620005b4565b86831015620005fb5784890151620005f7601f891682620004eb565b8355505b6001600288020188555050505b505050505050565b600082825260208201905092915050565b60005b838110156200064157808201518184015260208101905062000624565b8381111562000651576000848401525b50505050565b6000601f19601f8301169050919050565b60006200067582620002af565b62000681818562000610565b93506200069381856020860162000621565b6200069e8162000657565b840191505092915050565b60006020820190508181036000830152620006c5818462000668565b905092915050565b61586180620006dd6000396000f3fe6080604052600436106101355760003560e01c8063783a112b116100ab578063b88d4fde1161006f578063b88d4fde14610403578063c87b56dd1461042c578063c9aeedfc14610469578063e985e9c514610494578063eac977c4146104d1578063f2fde38b146104fc57610135565b8063783a112b146103515780638da5cb5b1461036d57806395d89b4114610398578063a22cb465146103c3578063ac446002146103ec57610135565b80631e03fd1a116100fd5780631e03fd1a1461023157806323b872dd1461026e57806342842e0e146102975780636352211e146102c057806370a08231146102fd578063715018a61461033a57610135565b806301ffc9a71461013a57806302ece06f1461017757806306fdde03146101a0578063081812fc146101cb578063095ea7b314610208575b600080fd5b34801561014657600080fd5b50610161600480360381019061015c9190613584565b610525565b60405161016e91906135cc565b60405180910390f35b34801561018357600080fd5b5061019e6004803603810190610199919061379c565b610607565b005b3480156101ac57600080fd5b506101b5610879565b6040516101c29190613893565b60405180910390f35b3480156101d757600080fd5b506101f260048036038101906101ed91906138b5565b61090b565b6040516101ff9190613923565b60405180910390f35b34801561021457600080fd5b5061022f600480360381019061022a919061396a565b610951565b005b34801561023d57600080fd5b50610258600480360381019061025391906138b5565b610a68565b6040516102659190613a84565b60405180910390f35b34801561027a57600080fd5b5061029560048036038101906102909190613aa6565b610bb3565b005b3480156102a357600080fd5b506102be60048036038101906102b99190613aa6565b610c13565b005b3480156102cc57600080fd5b506102e760048036038101906102e291906138b5565b610c33565b6040516102f49190613923565b60405180910390f35b34801561030957600080fd5b50610324600480360381019061031f9190613af9565b610ce4565b6040516103319190613b35565b60405180910390f35b34801561034657600080fd5b5061034f610d9b565b005b61036b60048036038101906103669190613b50565b610daf565b005b34801561037957600080fd5b50610382611055565b60405161038f9190613923565b60405180910390f35b3480156103a457600080fd5b506103ad61107f565b6040516103ba9190613893565b60405180910390f35b3480156103cf57600080fd5b506103ea60048036038101906103e59190613bbc565b611111565b005b3480156103f857600080fd5b50610401611127565b005b34801561040f57600080fd5b5061042a60048036038101906104259190613c9d565b6111de565b005b34801561043857600080fd5b50610453600480360381019061044e91906138b5565b611240565b6040516104609190613893565b60405180910390f35b34801561047557600080fd5b5061047e611352565b60405161048b9190613dcf565b60405180910390f35b3480156104a057600080fd5b506104bb60048036038101906104b69190613df1565b6113aa565b6040516104c891906135cc565b60405180910390f35b3480156104dd57600080fd5b506104e661143e565b6040516104f39190613f56565b60405180910390f35b34801561050857600080fd5b50610523600480360381019061051e9190613af9565b6115ac565b005b60007f80ac58cd000000000000000000000000000000000000000000000000000000007bffffffffffffffffffffffffffffffffffffffffffffffffffffffff1916827bffffffffffffffffffffffffffffffffffffffffffffffffffffffff191614806105f057507f5b5e139f000000000000000000000000000000000000000000000000000000007bffffffffffffffffffffffffffffffffffffffffffffffffffffffff1916827bffffffffffffffffffffffffffffffffffffffffffffffffffffffff1916145b8061060057506105ff826116c8565b5b9050919050565b61061083611732565b61064f576040517f08c379a000000000000000000000000000000000000000000000000000000000815260040161064690613fea565b60405180910390fd5b60008260ff16101580156106675750600a8260ff1611155b6106a6576040517f08c379a000000000000000000000000000000000000000000000000000000000815260040161069d9061407c565b60405180910390fd5b6106af83610c33565b73ffffffffffffffffffffffffffffffffffffffff163373ffffffffffffffffffffffffffffffffffffffff161461071c576040517f08c379a0000000000000000000000000000000000000000000000000000000008152600401610713906140e8565b60405180910390fd5b600b60008481526020019081526020016000206001015461073c4261179e565b1161077c576040517f08c379a00000000000000000000000000000000000000000000000000000000081526004016107739061417a565b60405180910390fd5b600a60405180608001604052803373ffffffffffffffffffffffffffffffffffffffff1681526020018460ff16815260200183815260200142815250908060018154018082558091505060019003906000526020600020906003020160009091909190915060008201518160000160006101000a81548173ffffffffffffffffffffffffffffffffffffffff021916908373ffffffffffffffffffffffffffffffffffffffff16021790555060208201518160000160146101000a81548160ff021916908360ff160217905550604082015181600101908161085e91906143a6565b50606082015181600201555050610874836117ca565b505050565b606060008054610888906141c9565b80601f01602080910402602001604051908101604052809291908181526020018280546108b4906141c9565b80156109015780601f106108d657610100808354040283529160200191610901565b820191906000526020600020905b8154815290600101906020018083116108e457829003601f168201915b5050505050905090565b60006109168261181d565b6004600083815260200190815260200160002060009054906101000a900473ffffffffffffffffffffffffffffffffffffffff169050919050565b600061095c82610c33565b90508073ffffffffffffffffffffffffffffffffffffffff168373ffffffffffffffffffffffffffffffffffffffff16036109cc576040517f08c379a00000000000000000000000000000000000000000000000000000000081526004016109c3906144ea565b60405180910390fd5b8073ffffffffffffffffffffffffffffffffffffffff166109eb611868565b73ffffffffffffffffffffffffffffffffffffffff161480610a1a5750610a1981610a14611868565b6113aa565b5b610a59576040517f08c379a0000000000000000000000000000000000000000000000000000000008152600401610a509061457c565b60405180910390fd5b610a638383611870565b505050565b610a70613404565b600a8281548110610a8457610a8361459c565b5b90600052602060002090600302016040518060800160405290816000820160009054906101000a900473ffffffffffffffffffffffffffffffffffffffff1673ffffffffffffffffffffffffffffffffffffffff1673ffffffffffffffffffffffffffffffffffffffff1681526020016000820160149054906101000a900460ff1660ff1660ff168152602001600182018054610b20906141c9565b80601f0160208091040260200160405190810160405280929190818152602001828054610b4c906141c9565b8015610b995780601f10610b6e57610100808354040283529160200191610b99565b820191906000526020600020905b815481529060010190602001808311610b7c57829003601f168201915b505050505081526020016002820154815250509050919050565b610bc4610bbe611868565b82611929565b610c03576040517f08c379a0000000000000000000000000000000000000000000000000000000008152600401610bfa9061463d565b60405180910390fd5b610c0e8383836119be565b505050565b610c2e838383604051806020016040528060008152506111de565b505050565b6000806002600084815260200190815260200160002060009054906101000a900473ffffffffffffffffffffffffffffffffffffffff169050600073ffffffffffffffffffffffffffffffffffffffff168173ffffffffffffffffffffffffffffffffffffffff1603610cdb576040517f08c379a0000000000000000000000000000000000000000000000000000000008152600401610cd2906146a9565b60405180910390fd5b80915050919050565b60008073ffffffffffffffffffffffffffffffffffffffff168273ffffffffffffffffffffffffffffffffffffffff1603610d54576040517f08c379a0000000000000000000000000000000000000000000000000000000008152600401610d4b9061473b565b60405180910390fd5b600360008373ffffffffffffffffffffffffffffffffffffffff1673ffffffffffffffffffffffffffffffffffffffff168152602001908152602001600020549050919050565b610da3611c24565b610dad6000611ca2565b565b81811015610df2576040517f08c379a0000000000000000000000000000000000000000000000000000000008152600401610de9906147f3565b60405180910390fd5b6000610dfd4261179e565b90506000610e0a8461179e565b90506000610e178461179e565b905082821015610e5c576040517f08c379a0000000000000000000000000000000000000000000000000000000008152600401610e5390614885565b60405180910390fd5b82811015610e9f576040517f08c379a0000000000000000000000000000000000000000000000000000000008152600401610e9690614917565b60405180910390fd5b6000610eab8383611d68565b905060011515610eba82611e8b565b151514610efc576040517f08c379a0000000000000000000000000000000000000000000000000000000008152600401610ef3906149a9565b60405180910390fd5b600060016018603c808787610f1191906149f8565b610f1b9190614a5b565b610f259190614a5b565b610f2f9190614a5b565b610f399190614a8c565b905080662386f26fc10000610f4e9190614ae2565b341015610f90576040517f08c379a0000000000000000000000000000000000000000000000000000000008152600401610f8790614bae565b60405180910390fd5b610f9982611f24565b6000610fa56008611f88565b9050610fb13382611f96565b604051806040016040528086815260200185815250600b600083815260200190815260200160002060008201518160000155602082015181600101559050506000610ffb82611fb4565b9050611007828261204c565b61101160086120b9565b7f1c05098ed1ff38e6238d2b1b04b2c7977d4c94ce651bda6473f9dba8dbf01da03383604051611042929190614bce565b60405180910390a1505050505050505050565b6000600760009054906101000a900473ffffffffffffffffffffffffffffffffffffffff16905090565b60606001805461108e906141c9565b80601f01602080910402602001604051908101604052809291908181526020018280546110ba906141c9565b80156111075780601f106110dc57610100808354040283529160200191611107565b820191906000526020600020905b8154815290600101906020018083116110ea57829003601f168201915b5050505050905090565b61112361111c611868565b83836120cf565b5050565b61112f611c24565b60003373ffffffffffffffffffffffffffffffffffffffff164760405161115590614c28565b60006040518083038185875af1925050503d8060008114611192576040519150601f19603f3d011682016040523d82523d6000602084013e611197565b606091505b50509050806111db576040517f08c379a00000000000000000000000000000000000000000000000000000000081526004016111d290614c89565b60405180910390fd5b50565b6111ef6111e9611868565b83611929565b61122e576040517f08c379a00000000000000000000000000000000000000000000000000000000081526004016112259061463d565b60405180910390fd5b61123a8484848461223b565b50505050565b606061124b8261181d565b600060066000848152602001908152602001600020805461126b906141c9565b80601f0160208091040260200160405190810160405280929190818152602001828054611297906141c9565b80156112e45780601f106112b9576101008083540402835291602001916112e4565b820191906000526020600020905b8154815290600101906020018083116112c757829003601f168201915b5050505050905060006112f5612297565b9050600081510361130a57819250505061134d565b60008251111561133f578082604051602001611327929190614ce5565b6040516020818303038152906040529250505061134d565b611348846122ae565b925050505b919050565b606060098054806020026020016040519081016040528092919081815260200182805480156113a057602002820191906000526020600020905b81548152602001906001019080831161138c575b5050505050905090565b6000600560008473ffffffffffffffffffffffffffffffffffffffff1673ffffffffffffffffffffffffffffffffffffffff16815260200190815260200160002060008373ffffffffffffffffffffffffffffffffffffffff1673ffffffffffffffffffffffffffffffffffffffff16815260200190815260200160002060009054906101000a900460ff16905092915050565b6060600a805480602002602001604051908101604052809291908181526020016000905b828210156115a357838290600052602060002090600302016040518060800160405290816000820160009054906101000a900473ffffffffffffffffffffffffffffffffffffffff1673ffffffffffffffffffffffffffffffffffffffff1673ffffffffffffffffffffffffffffffffffffffff1681526020016000820160149054906101000a900460ff1660ff1660ff168152602001600182018054611508906141c9565b80601f0160208091040260200160405190810160405280929190818152602001828054611534906141c9565b80156115815780601f1061155657610100808354040283529160200191611581565b820191906000526020600020905b81548152906001019060200180831161156457829003601f168201915b5050505050815260200160028201548152505081526020019060010190611462565b50505050905090565b6115b4611c24565b600073ffffffffffffffffffffffffffffffffffffffff168173ffffffffffffffffffffffffffffffffffffffff1603611623576040517f08c379a000000000000000000000000000000000000000000000000000000000815260040161161a90614d7b565b60405180910390fd5b61162c81611ca2565b50565b6116c5816040516024016116439190613893565b6040516020818303038152906040527f41304fac000000000000000000000000000000000000000000000000000000007bffffffffffffffffffffffffffffffffffffffffffffffffffffffff19166020820180517bffffffffffffffffffffffffffffffffffffffffffffffffffffffff8381831617835250505050612316565b50565b60007f01ffc9a7000000000000000000000000000000000000000000000000000000007bffffffffffffffffffffffffffffffffffffffffffffffffffffffff1916827bffffffffffffffffffffffffffffffffffffffffffffffffffffffff1916149050919050565b60008073ffffffffffffffffffffffffffffffffffffffff166002600084815260200190815260200160002060009054906101000a900473ffffffffffffffffffffffffffffffffffffffff1673ffffffffffffffffffffffffffffffffffffffff1614159050919050565b60006117c36117ac8361233f565b6117b584612456565b6117be8561246c565b612482565b9050919050565b6117d38161249d565b60006006600083815260200190815260200160002080546117f3906141c9565b90501461181a576006600082815260200190815260200160002060006118199190613445565b5b50565b61182681611732565b611865576040517f08c379a000000000000000000000000000000000000000000000000000000000815260040161185c906146a9565b60405180910390fd5b50565b600033905090565b816004600083815260200190815260200160002060006101000a81548173ffffffffffffffffffffffffffffffffffffffff021916908373ffffffffffffffffffffffffffffffffffffffff160217905550808273ffffffffffffffffffffffffffffffffffffffff166118e383610c33565b73ffffffffffffffffffffffffffffffffffffffff167f8c5be1e5ebec7d5bd14f71427d1e84f3dd0314c0f7b2291e5b200ac8c7c3b92560405160405180910390a45050565b60008061193583610c33565b90508073ffffffffffffffffffffffffffffffffffffffff168473ffffffffffffffffffffffffffffffffffffffff161480611977575061197681856113aa565b5b806119b557508373ffffffffffffffffffffffffffffffffffffffff1661199d8461090b565b73ffffffffffffffffffffffffffffffffffffffff16145b91505092915050565b8273ffffffffffffffffffffffffffffffffffffffff166119de82610c33565b73ffffffffffffffffffffffffffffffffffffffff1614611a34576040517f08c379a0000000000000000000000000000000000000000000000000000000008152600401611a2b90614e0d565b60405180910390fd5b600073ffffffffffffffffffffffffffffffffffffffff168273ffffffffffffffffffffffffffffffffffffffff1603611aa3576040517f08c379a0000000000000000000000000000000000000000000000000000000008152600401611a9a90614e9f565b60405180910390fd5b611aae8383836125ba565b611ab9600082611870565b6001600360008573ffffffffffffffffffffffffffffffffffffffff1673ffffffffffffffffffffffffffffffffffffffff1681526020019081526020016000206000828254611b0991906149f8565b925050819055506001600360008473ffffffffffffffffffffffffffffffffffffffff1673ffffffffffffffffffffffffffffffffffffffff1681526020019081526020016000206000828254611b609190614a8c565b92505081905550816002600083815260200190815260200160002060006101000a81548173ffffffffffffffffffffffffffffffffffffffff021916908373ffffffffffffffffffffffffffffffffffffffff160217905550808273ffffffffffffffffffffffffffffffffffffffff168473ffffffffffffffffffffffffffffffffffffffff167fddf252ad1be2c89b69c2b068fc378daa952ba7f163c4a11628f55a4df523b3ef60405160405180910390a4611c1f8383836125bf565b505050565b611c2c611868565b73ffffffffffffffffffffffffffffffffffffffff16611c4a611055565b73ffffffffffffffffffffffffffffffffffffffff1614611ca0576040517f08c379a0000000000000000000000000000000000000000000000000000000008152600401611c9790614f0b565b60405180910390fd5b565b6000600760009054906101000a900473ffffffffffffffffffffffffffffffffffffffff16905081600760006101000a81548173ffffffffffffffffffffffffffffffffffffffff021916908373ffffffffffffffffffffffffffffffffffffffff1602179055508173ffffffffffffffffffffffffffffffffffffffff168173ffffffffffffffffffffffffffffffffffffffff167f8be0079c531659141344cd1fd0a4f28419497f9722a3daafe3b4186f6b6457e060405160405180910390a35050565b6060600060016018603c808787611d7f91906149f8565b611d899190614a5b565b611d939190614a5b565b611d9d9190614a5b565b611da79190614a8c565b905060008167ffffffffffffffff811115611dc557611dc4613671565b5b604051908082528060200260200182016040528015611df35781602001602082028036833780820191505090505b50905060018203611e29578481600081518110611e1357611e1261459c565b5b6020026020010181815250508092505050611e85565b60005b82811015611e7e57858510611e6d5785828281518110611e4f57611e4e61459c565b5b6020026020010181815250506201518086611e6a9190614a8c565b95505b80611e7790614f2b565b9050611e2c565b5080925050505b92915050565b600080600090505b8251811015611f195760005b600980549050811015611f075760098181548110611ec057611ebf61459c565b5b9060005260206000200154848381518110611ede57611edd61459c565b5b602002602001015103611ef657600092505050611f1f565b80611f0090614f2b565b9050611e9f565b5080611f1290614f2b565b9050611e93565b50600190505b919050565b60005b8151811015611f84576009828281518110611f4557611f4461459c565b5b6020026020010151908060018154018082558091505060019003906000526020600020016000909190919091505580611f7d90614f2b565b9050611f27565b5050565b600081600001549050919050565b611fb08282604051806020016040528060008152506125c4565b5050565b6060612026611fc28361261f565b611fe1600b60008681526020019081526020016000206000015461261f565b612000600b60008781526020019081526020016000206001015461261f565b60405160200161201293929190615294565b60405160208183030381529060405261277f565b6040516020016120369190615353565b6040516020818303038152906040529050919050565b61205582611732565b612094576040517f08c379a000000000000000000000000000000000000000000000000000000000815260040161208b906153e7565b60405180910390fd5b806006600084815260200190815260200160002090816120b491906143a6565b505050565b6001816000016000828254019250508190555050565b8173ffffffffffffffffffffffffffffffffffffffff168373ffffffffffffffffffffffffffffffffffffffff160361213d576040517f08c379a000000000000000000000000000000000000000000000000000000000815260040161213490615453565b60405180910390fd5b80600560008573ffffffffffffffffffffffffffffffffffffffff1673ffffffffffffffffffffffffffffffffffffffff16815260200190815260200160002060008473ffffffffffffffffffffffffffffffffffffffff1673ffffffffffffffffffffffffffffffffffffffff16815260200190815260200160002060006101000a81548160ff0219169083151502179055508173ffffffffffffffffffffffffffffffffffffffff168373ffffffffffffffffffffffffffffffffffffffff167f17307eab39ab6107e8899845ad3d59bd9653f200f220920489ca2b5937696c318360405161222e91906135cc565b60405180910390a3505050565b6122468484846119be565b612252848484846128e2565b612291576040517f08c379a0000000000000000000000000000000000000000000000000000000008152600401612288906154e5565b60405180910390fd5b50505050565b606060405180602001604052806000815250905090565b60606122b98261181d565b60006122c3612297565b905060008151116122e3576040518060200160405280600081525061230e565b806122ed8461261f565b6040516020016122fe929190614ce5565b6040516020818303038152906040525b915050919050565b60008151905060006a636f6e736f6c652e6c6f679050602083016000808483855afa5050505050565b600080600090506000806301e13380856123599190614a5b565b6107b261ffff1661236a9190614a8c565b915061237b6107b261ffff16612a69565b6123888361ffff16612a69565b61239291906149f8565b9050806301e285006123a49190614ae2565b836123af9190614a8c565b9250806107b2836123c09190615513565b61ffff166123ce91906149f8565b6301e133806123dd9190614ae2565b836123e89190614a8c565b92505b8483111561244b576124086001836124039190615513565b612abd565b15612424576301e285008361241d91906149f8565b9250612437565b6301e133808361243491906149f8565b92505b6001826124449190615513565b91506123eb565b819350505050919050565b600061246182612b2c565b602001519050919050565b600061247782612b2c565b604001519050919050565b60006124948484846000806000612d3d565b90509392505050565b60006124a882610c33565b90506124b6816000846125ba565b6124c1600083611870565b6001600360008373ffffffffffffffffffffffffffffffffffffffff1673ffffffffffffffffffffffffffffffffffffffff168152602001908152602001600020600082825461251191906149f8565b925050819055506002600083815260200190815260200160002060006101000a81549073ffffffffffffffffffffffffffffffffffffffff021916905581600073ffffffffffffffffffffffffffffffffffffffff168273ffffffffffffffffffffffffffffffffffffffff167fddf252ad1be2c89b69c2b068fc378daa952ba7f163c4a11628f55a4df523b3ef60405160405180910390a46125b6816000846125bf565b5050565b505050565b505050565b6125ce83836130a8565b6125db60008484846128e2565b61261a576040517f08c379a0000000000000000000000000000000000000000000000000000000008152600401612611906154e5565b60405180910390fd5b505050565b606060008203612666576040518060400160405280600181526020017f3000000000000000000000000000000000000000000000000000000000000000815250905061277a565b600082905060005b6000821461269857808061268190614f2b565b915050600a826126919190614a5b565b915061266e565b60008167ffffffffffffffff8111156126b4576126b3613671565b5b6040519080825280601f01601f1916602001820160405280156126e65781602001600182028036833780820191505090505b5090505b60008514612773576001826126ff91906149f8565b9150600a8561270e9190615547565b603061271a9190614a8c565b60f81b8183815181106127305761272f61459c565b5b60200101907effffffffffffffffffffffffffffffffffffffffffffffffffffffffffffff1916908160001a905350600a8561276c9190614a5b565b94506126ea565b8093505050505b919050565b606060008251036127a1576040518060200160405280600081525090506128dd565b60006040518060600160405280604081526020016157ec60409139905060006003600285516127d09190614a8c565b6127da9190614a5b565b60046127e69190614ae2565b67ffffffffffffffff8111156127ff576127fe613671565b5b6040519080825280601f01601f1916602001820160405280156128315781602001600182028036833780820191505090505b509050600182016020820185865187015b8082101561289d576003820191508151603f8160121c168501518453600184019350603f81600c1c168501518453600184019350603f8160061c168501518453600184019350603f8116850151845360018401935050612842565b50506003865106600181146128b957600281146128cc576128d4565b603d6001830353603d60028303536128d4565b603d60018303535b50505080925050505b919050565b60006129038473ffffffffffffffffffffffffffffffffffffffff16613281565b15612a5c578373ffffffffffffffffffffffffffffffffffffffff1663150b7a0261292c611868565b8786866040518563ffffffff1660e01b815260040161294e94939291906155cd565b6020604051808303816000875af192505050801561298a57506040513d601f19601f82011682018060405250810190612987919061562e565b60015b612a0c573d80600081146129ba576040519150601f19603f3d011682016040523d82523d6000602084013e6129bf565b606091505b506000815103612a04576040517f08c379a00000000000000000000000000000000000000000000000000000000081526004016129fb906154e5565b60405180910390fd5b805181602001fd5b63150b7a0260e01b7bffffffffffffffffffffffffffffffffffffffffffffffffffffffff1916817bffffffffffffffffffffffffffffffffffffffffffffffffffffffff191614915050612a61565b600190505b949350505050565b6000600182612a7891906149f8565b915061019082612a889190614a5b565b606483612a959190614a5b565b600484612aa29190614a5b565b612aac91906149f8565b612ab69190614a8c565b9050919050565b600080600483612acd919061565b565b61ffff1614612adf5760009050612b27565b6000606483612aee919061565b565b61ffff1614612b005760019050612b27565b600061019083612b10919061565b565b61ffff1614612b225760009050612b27565b600190505b919050565b612b34613485565b60008080612b418561233f565b846000019061ffff16908161ffff1681525050612b636107b261ffff16612a69565b612b74856000015161ffff16612a69565b612b7e91906149f8565b9150816301e28500612b909190614ae2565b83612b9b9190614a8c565b9250816107b28560000151612bb09190615513565b61ffff16612bbe91906149f8565b6301e13380612bcd9190614ae2565b83612bd89190614a8c565b92506000600191505b600c8260ff1611612c5857612bfa8286600001516132a4565b60ff1662015180612c0b9190614ae2565b9050858482612c1a9190614a8c565b1115612c375781856020019060ff16908160ff1681525050612c58565b8084612c439190614a8c565b93508180612c509061568c565b925050612be1565b600191505b612c6f856020015186600001516132a4565b60ff168260ff1611612ccc57858462015180612c8b9190614a8c565b1115612ca85781856040019060ff16908160ff1681525050612ccc565b6201518084612cb79190614a8c565b93508180612cc49061568c565b925050612c5d565b612cd586613370565b856060019060ff16908160ff1681525050612cef8661339d565b856080019060ff16908160ff1681525050612d09866133be565b8560a0019060ff16908160ff1681525050612d23866133d4565b8560c0019060ff16908160ff168152505050505050919050565b6000806107b290505b8761ffff168161ffff161015612da157612d5f81612abd565b15612d7b576301e2850082612d749190614a8c565b9150612d8e565b6301e1338082612d8b9190614a8c565b91505b8080612d99906156b5565b915050612d46565b612da96134d8565b601f816000600c8110612dbf57612dbe61459c565b5b602002019060ff16908160ff1681525050612dd989612abd565b15612e0a57601d816001600c8110612df457612df361459c565b5b602002019060ff16908160ff1681525050612e32565b601c816001600c8110612e2057612e1f61459c565b5b602002019060ff16908160ff16815250505b601f816002600c8110612e4857612e4761459c565b5b602002019060ff16908160ff1681525050601e816003600c8110612e6f57612e6e61459c565b5b602002019060ff16908160ff1681525050601f816004600c8110612e9657612e9561459c565b5b602002019060ff16908160ff1681525050601e816005600c8110612ebd57612ebc61459c565b5b602002019060ff16908160ff1681525050601f816006600c8110612ee457612ee361459c565b5b602002019060ff16908160ff1681525050601f816007600c8110612f0b57612f0a61459c565b5b602002019060ff16908160ff1681525050601e816008600c8110612f3257612f3161459c565b5b602002019060ff16908160ff1681525050601f816009600c8110612f5957612f5861459c565b5b602002019060ff16908160ff1681525050601e81600a600c8110612f8057612f7f61459c565b5b602002019060ff16908160ff1681525050601f81600b600c8110612fa757612fa661459c565b5b602002019060ff16908160ff1681525050600191505b8760ff168261ffff1610156130255780600183612fda9190615513565b61ffff16600c8110612fef57612fee61459c565b5b602002015160ff16620151806130059190614ae2565b836130109190614a8c565b9250818061301d906156b5565b925050612fbd565b60018761303291906156df565b60ff16620151806130439190614ae2565b8361304e9190614a8c565b92508560ff16610e106130619190614ae2565b8361306c9190614a8c565b92508460ff16603c61307e9190614ae2565b836130899190614a8c565b92508360ff168361309a9190614a8c565b925050509695505050505050565b600073ffffffffffffffffffffffffffffffffffffffff168273ffffffffffffffffffffffffffffffffffffffff1603613117576040517f08c379a000000000000000000000000000000000000000000000000000000000815260040161310e9061575f565b60405180910390fd5b61312081611732565b15613160576040517f08c379a0000000000000000000000000000000000000000000000000000000008152600401613157906157cb565b60405180910390fd5b61316c600083836125ba565b6001600360008473ffffffffffffffffffffffffffffffffffffffff1673ffffffffffffffffffffffffffffffffffffffff16815260200190815260200160002060008282546131bc9190614a8c565b92505081905550816002600083815260200190815260200160002060006101000a81548173ffffffffffffffffffffffffffffffffffffffff021916908373ffffffffffffffffffffffffffffffffffffffff160217905550808273ffffffffffffffffffffffffffffffffffffffff16600073ffffffffffffffffffffffffffffffffffffffff167fddf252ad1be2c89b69c2b068fc378daa952ba7f163c4a11628f55a4df523b3ef60405160405180910390a461327d600083836125bf565b5050565b6000808273ffffffffffffffffffffffffffffffffffffffff163b119050919050565b600060018360ff1614806132bb575060038360ff16145b806132c9575060058360ff16145b806132d7575060078360ff16145b806132e5575060088360ff16145b806132f35750600a8360ff16145b806133015750600c8360ff16145b1561330f57601f905061336a565b60048360ff161480613324575060068360ff16145b80613332575060098360ff16145b806133405750600b8360ff16145b1561334e57601e905061336a565b61335782612abd565b1561336557601d905061336a565b601c90505b92915050565b60006018603c80846133829190614a5b565b61338c9190614a5b565b6133969190615547565b9050919050565b6000603c80836133ad9190614a5b565b6133b79190615547565b9050919050565b6000603c826133cd9190615547565b9050919050565b60006007600462015180846133e99190614a5b565b6133f39190614a8c565b6133fd9190615547565b9050919050565b6040518060800160405280600073ffffffffffffffffffffffffffffffffffffffff168152602001600060ff16815260200160608152602001600081525090565b508054613451906141c9565b6000825580601f106134635750613482565b601f01602090049060005260206000209081019061348191906134fb565b5b50565b6040518060e00160405280600061ffff168152602001600060ff168152602001600060ff168152602001600060ff168152602001600060ff168152602001600060ff168152602001600060ff1681525090565b604051806101800160405280600c90602082028036833780820191505090505090565b5b808211156135145760008160009055506001016134fc565b5090565b6000604051905090565b600080fd5b600080fd5b60007fffffffff0000000000000000000000000000000000000000000000000000000082169050919050565b6135618161352c565b811461356c57600080fd5b50565b60008135905061357e81613558565b92915050565b60006020828403121561359a57613599613522565b5b60006135a88482850161356f565b91505092915050565b60008115159050919050565b6135c6816135b1565b82525050565b60006020820190506135e160008301846135bd565b92915050565b6000819050919050565b6135fa816135e7565b811461360557600080fd5b50565b600081359050613617816135f1565b92915050565b600060ff82169050919050565b6136338161361d565b811461363e57600080fd5b50565b6000813590506136508161362a565b92915050565b600080fd5b600080fd5b6000601f19601f8301169050919050565b7f4e487b7100000000000000000000000000000000000000000000000000000000600052604160045260246000fd5b6136a982613660565b810181811067ffffffffffffffff821117156136c8576136c7613671565b5b80604052505050565b60006136db613518565b90506136e782826136a0565b919050565b600067ffffffffffffffff82111561370757613706613671565b5b61371082613660565b9050602081019050919050565b82818337600083830152505050565b600061373f61373a846136ec565b6136d1565b90508281526020810184848401111561375b5761375a61365b565b5b61376684828561371d565b509392505050565b600082601f83011261378357613782613656565b5b813561379384826020860161372c565b91505092915050565b6000806000606084860312156137b5576137b4613522565b5b60006137c386828701613608565b93505060206137d486828701613641565b925050604084013567ffffffffffffffff8111156137f5576137f4613527565b5b6138018682870161376e565b9150509250925092565b600081519050919050565b600082825260208201905092915050565b60005b8381101561384557808201518184015260208101905061382a565b83811115613854576000848401525b50505050565b60006138658261380b565b61386f8185613816565b935061387f818560208601613827565b61388881613660565b840191505092915050565b600060208201905081810360008301526138ad818461385a565b905092915050565b6000602082840312156138cb576138ca613522565b5b60006138d984828501613608565b91505092915050565b600073ffffffffffffffffffffffffffffffffffffffff82169050919050565b600061390d826138e2565b9050919050565b61391d81613902565b82525050565b60006020820190506139386000830184613914565b92915050565b61394781613902565b811461395257600080fd5b50565b6000813590506139648161393e565b92915050565b6000806040838503121561398157613980613522565b5b600061398f85828601613955565b92505060206139a085828601613608565b9150509250929050565b6139b381613902565b82525050565b6139c28161361d565b82525050565b600082825260208201905092915050565b60006139e48261380b565b6139ee81856139c8565b93506139fe818560208601613827565b613a0781613660565b840191505092915050565b613a1b816135e7565b82525050565b6000608083016000830151613a3960008601826139aa565b506020830151613a4c60208601826139b9565b5060408301518482036040860152613a6482826139d9565b9150506060830151613a796060860182613a12565b508091505092915050565b60006020820190508181036000830152613a9e8184613a21565b905092915050565b600080600060608486031215613abf57613abe613522565b5b6000613acd86828701613955565b9350506020613ade86828701613955565b9250506040613aef86828701613608565b9150509250925092565b600060208284031215613b0f57613b0e613522565b5b6000613b1d84828501613955565b91505092915050565b613b2f816135e7565b82525050565b6000602082019050613b4a6000830184613b26565b92915050565b60008060408385031215613b6757613b66613522565b5b6000613b7585828601613608565b9250506020613b8685828601613608565b9150509250929050565b613b99816135b1565b8114613ba457600080fd5b50565b600081359050613bb681613b90565b92915050565b60008060408385031215613bd357613bd2613522565b5b6000613be185828601613955565b9250506020613bf285828601613ba7565b9150509250929050565b600067ffffffffffffffff821115613c1757613c16613671565b5b613c2082613660565b9050602081019050919050565b6000613c40613c3b84613bfc565b6136d1565b905082815260208101848484011115613c5c57613c5b61365b565b5b613c6784828561371d565b509392505050565b600082601f830112613c8457613c83613656565b5b8135613c94848260208601613c2d565b91505092915050565b60008060008060808587031215613cb757613cb6613522565b5b6000613cc587828801613955565b9450506020613cd687828801613955565b9350506040613ce787828801613608565b925050606085013567ffffffffffffffff811115613d0857613d07613527565b5b613d1487828801613c6f565b91505092959194509250565b600081519050919050565b600082825260208201905092915050565b6000819050602082019050919050565b6000613d588383613a12565b60208301905092915050565b6000602082019050919050565b6000613d7c82613d20565b613d868185613d2b565b9350613d9183613d3c565b8060005b83811015613dc2578151613da98882613d4c565b9750613db483613d64565b925050600181019050613d95565b5085935050505092915050565b60006020820190508181036000830152613de98184613d71565b905092915050565b60008060408385031215613e0857613e07613522565b5b6000613e1685828601613955565b9250506020613e2785828601613955565b9150509250929050565b600081519050919050565b600082825260208201905092915050565b6000819050602082019050919050565b6000608083016000830151613e7560008601826139aa565b506020830151613e8860208601826139b9565b5060408301518482036040860152613ea082826139d9565b9150506060830151613eb56060860182613a12565b508091505092915050565b6000613ecc8383613e5d565b905092915050565b6000602082019050919050565b6000613eec82613e31565b613ef68185613e3c565b935083602082028501613f0885613e4d565b8060005b85811015613f445784840389528151613f258582613ec0565b9450613f3083613ed4565b925060208a01995050600181019050613f0c565b50829750879550505050505092915050565b60006020820190508181036000830152613f708184613ee1565b905092915050565b7f4572726f21204f20746f6b656e20696e73657269646f206e616f20657869737460008201527f652e000000000000000000000000000000000000000000000000000000000000602082015250565b6000613fd4602283613816565b9150613fdf82613f78565b604082019050919050565b6000602082019050818103600083015261400381613fc7565b9050919050565b7f4572726f21204f20726174696e672074656d2071756520657374617220636f6d60008201527f707265656e6469646f20656e747265203020652031302e000000000000000000602082015250565b6000614066603783613816565b91506140718261400a565b604082019050919050565b6000602082019050818103600083015261409581614059565b9050919050565b7f4572726f21204f20746f6b656e206e616f206c68652070657274656e63652e00600082015250565b60006140d2601f83613816565b91506140dd8261409c565b602082019050919050565b60006020820190508181036000830152614101816140c5565b9050919050565b7f4572726f212041206461746120646f2066696d2064612072657365727661206160008201527f696e6461206e616f20666f6920756c747261706173736164612e000000000000602082015250565b6000614164603a83613816565b915061416f82614108565b604082019050919050565b6000602082019050818103600083015261419381614157565b9050919050565b7f4e487b7100000000000000000000000000000000000000000000000000000000600052602260045260246000fd5b600060028204905060018216806141e157607f821691505b6020821081036141f4576141f361419a565b5b50919050565b60008190508160005260206000209050919050565b60006020601f8301049050919050565b600082821b905092915050565b60006008830261425c7fffffffffffffffffffffffffffffffffffffffffffffffffffffffffffffffff8261421f565b614266868361421f565b95508019841693508086168417925050509392505050565b6000819050919050565b60006142a361429e614299846135e7565b61427e565b6135e7565b9050919050565b6000819050919050565b6142bd83614288565b6142d16142c9826142aa565b84845461422c565b825550505050565b600090565b6142e66142d9565b6142f18184846142b4565b505050565b5b818110156143155761430a6000826142de565b6001810190506142f7565b5050565b601f82111561435a5761432b816141fa565b6143348461420f565b81016020851015614343578190505b61435761434f8561420f565b8301826142f6565b50505b505050565b600082821c905092915050565b600061437d6000198460080261435f565b1980831691505092915050565b6000614396838361436c565b9150826002028217905092915050565b6143af8261380b565b67ffffffffffffffff8111156143c8576143c7613671565b5b6143d282546141c9565b6143dd828285614319565b600060209050601f83116001811461441057600084156143fe578287015190505b614408858261438a565b865550614470565b601f19841661441e866141fa565b60005b8281101561444657848901518255600182019150602085019450602081019050614421565b86831015614463578489015161445f601f89168261436c565b8355505b6001600288020188555050505b505050505050565b7f4552433732313a20617070726f76616c20746f2063757272656e74206f776e6560008201527f7200000000000000000000000000000000000000000000000000000000000000602082015250565b60006144d4602183613816565b91506144df82614478565b604082019050919050565b60006020820190508181036000830152614503816144c7565b9050919050565b7f4552433732313a20617070726f76652063616c6c6572206973206e6f7420746f60008201527f6b656e206f776e6572206e6f7220617070726f76656420666f7220616c6c0000602082015250565b6000614566603e83613816565b91506145718261450a565b604082019050919050565b6000602082019050818103600083015261459581614559565b9050919050565b7f4e487b7100000000000000000000000000000000000000000000000000000000600052603260045260246000fd5b7f4552433732313a2063616c6c6572206973206e6f7420746f6b656e206f776e6560008201527f72206e6f7220617070726f766564000000000000000000000000000000000000602082015250565b6000614627602e83613816565b9150614632826145cb565b604082019050919050565b600060208201905081810360008301526146568161461a565b9050919050565b7f4552433732313a20696e76616c696420746f6b656e2049440000000000000000600082015250565b6000614693601883613816565b915061469e8261465d565b602082019050919050565b600060208201905081810360008301526146c281614686565b9050919050565b7f4552433732313a2061646472657373207a65726f206973206e6f74206120766160008201527f6c6964206f776e65720000000000000000000000000000000000000000000000602082015250565b6000614725602983613816565b9150614730826146c9565b604082019050919050565b6000602082019050818103600083015261475481614718565b9050919050565b7f4572726f212041206461746120646520696e6963696f206e616f20706f64652060008201527f736572207375706572696f72206120646f2066696d206461207265736572766160208201527f2e00000000000000000000000000000000000000000000000000000000000000604082015250565b60006147dd604183613816565b91506147e88261475b565b606082019050919050565b6000602082019050818103600083015261480c816147d0565b9050919050565b7f4572726f212041206461746120646520696e6963696f2064612072657365727660008201527f61206a6120666f6920756c747261706173736164612e00000000000000000000602082015250565b600061486f603683613816565b915061487a82614813565b604082019050919050565b6000602082019050818103600083015261489e81614862565b9050919050565b7f4572726f212041206461746120646f2066696d2064612072657365727661206a60008201527f6120666f6920756c747261706173736164612e00000000000000000000000000602082015250565b6000614901603383613816565b915061490c826148a5565b604082019050919050565b60006020820190508181036000830152614930816148f4565b9050919050565b7f4572726f2120496e66656c697a6d656e7465206173206461746173206573636f60008201527f6c6869646173206a6120657374616f206f637570616461732e00000000000000602082015250565b6000614993603983613816565b915061499e82614937565b604082019050919050565b600060208201905081810360008301526149c281614986565b9050919050565b7f4e487b7100000000000000000000000000000000000000000000000000000000600052601160045260246000fd5b6000614a03826135e7565b9150614a0e836135e7565b925082821015614a2157614a206149c9565b5b828203905092915050565b7f4e487b7100000000000000000000000000000000000000000000000000000000600052601260045260246000fd5b6000614a66826135e7565b9150614a71836135e7565b925082614a8157614a80614a2c565b5b828204905092915050565b6000614a97826135e7565b9150614aa2836135e7565b9250827fffffffffffffffffffffffffffffffffffffffffffffffffffffffffffffffff03821115614ad757614ad66149c9565b5b828201905092915050565b6000614aed826135e7565b9150614af8836135e7565b9250817fffffffffffffffffffffffffffffffffffffffffffffffffffffffffffffffff0483118215151615614b3157614b306149c9565b5b828202905092915050565b7f4572726f21204f20706167616d656e746f206e616f20666f692062656d20737560008201527f63656469646f2e2054656e7465206e6f76616d656e74652e0000000000000000602082015250565b6000614b98603883613816565b9150614ba382614b3c565b604082019050919050565b60006020820190508181036000830152614bc781614b8b565b9050919050565b6000604082019050614be36000830185613914565b614bf06020830184613b26565b9392505050565b600081905092915050565b50565b6000614c12600083614bf7565b9150614c1d82614c02565b600082019050919050565b6000614c3382614c05565b9150819050919050565b7f41207472616e73666572656e6369612066616c686f752e000000000000000000600082015250565b6000614c73601783613816565b9150614c7e82614c3d565b602082019050919050565b60006020820190508181036000830152614ca281614c66565b9050919050565b600081905092915050565b6000614cbf8261380b565b614cc98185614ca9565b9350614cd9818560208601613827565b80840191505092915050565b6000614cf18285614cb4565b9150614cfd8284614cb4565b91508190509392505050565b7f4f776e61626c653a206e6577206f776e657220697320746865207a65726f206160008201527f6464726573730000000000000000000000000000000000000000000000000000602082015250565b6000614d65602683613816565b9150614d7082614d09565b604082019050919050565b60006020820190508181036000830152614d9481614d58565b9050919050565b7f4552433732313a207472616e736665722066726f6d20696e636f72726563742060008201527f6f776e6572000000000000000000000000000000000000000000000000000000602082015250565b6000614df7602583613816565b9150614e0282614d9b565b604082019050919050565b60006020820190508181036000830152614e2681614dea565b9050919050565b7f4552433732313a207472616e7366657220746f20746865207a65726f2061646460008201527f7265737300000000000000000000000000000000000000000000000000000000602082015250565b6000614e89602483613816565b9150614e9482614e2d565b604082019050919050565b60006020820190508181036000830152614eb881614e7c565b9050919050565b7f4f776e61626c653a2063616c6c6572206973206e6f7420746865206f776e6572600082015250565b6000614ef5602083613816565b9150614f0082614ebf565b602082019050919050565b60006020820190508181036000830152614f2481614ee8565b9050919050565b6000614f36826135e7565b91507fffffffffffffffffffffffffffffffffffffffffffffffffffffffffffffffff8203614f6857614f676149c9565b5b600182019050919050565b7f7b226e616d65223a2252656e744d7941706172746d656e742023000000000000600082015250565b6000614fa9601a83614ca9565b9150614fb482614f73565b601a82019050919050565b7f222c20226465736372697074696f6e223a225468616e6b20796f7520666f722060008201527f63686f6f73696e6720757320666f7220796f757220726563656e74207374617960208201527f20696e20506f72746f2e205765206c6f6f6b20666f727761726420746f20776560408201527f6c636f6d696e6720796f7521222c2022696d616765223a2268747470733a2f2f60608201527f697066732e696f2f697066732f516d574d485a583175474e70724c436f58557160808201527f684867324d55447744354d6e7a705866634b325639673557685767222c20226160a08201527f747472696275746573223a5b7b22646973706c61795f74797065223a2022646160c08201527f7465222c202274726169745f74797065223a20227374617274222c202276616c60e08201527f7565223a0000000000000000000000000000000000000000000000000000000061010082015250565b600061512761010483614ca9565b915061513282614fbf565b61010482019050919050565b7f7d2c000000000000000000000000000000000000000000000000000000000000600082015250565b6000615174600283614ca9565b915061517f8261513e565b600282019050919050565b7f7b22646973706c61795f74797065223a202264617465222c202274726169745f60008201527f74797065223a2022656e64222c202276616c7565223a00000000000000000000602082015250565b60006151e6603683614ca9565b91506151f18261518a565b603682019050919050565b7f7d00000000000000000000000000000000000000000000000000000000000000600082015250565b6000615232600183614ca9565b915061523d826151fc565b600182019050919050565b7f5d7d000000000000000000000000000000000000000000000000000000000000600082015250565b600061527e600283614ca9565b915061528982615248565b600282019050919050565b600061529f82614f9c565b91506152ab8286614cb4565b91506152b682615119565b91506152c28285614cb4565b91506152cd82615167565b91506152d8826151d9565b91506152e48284614cb4565b91506152ef82615225565b91506152fa82615271565b9150819050949350505050565b7f646174613a6170706c69636174696f6e2f6a736f6e3b6261736536342c000000600082015250565b600061533d601d83614ca9565b915061534882615307565b601d82019050919050565b600061535e82615330565b915061536a8284614cb4565b915081905092915050565b7f45524337323155524953746f726167653a2055524920736574206f66206e6f6e60008201527f6578697374656e7420746f6b656e000000000000000000000000000000000000602082015250565b60006153d1602e83613816565b91506153dc82615375565b604082019050919050565b60006020820190508181036000830152615400816153c4565b9050919050565b7f4552433732313a20617070726f766520746f2063616c6c657200000000000000600082015250565b600061543d601983613816565b915061544882615407565b602082019050919050565b6000602082019050818103600083015261546c81615430565b9050919050565b7f4552433732313a207472616e7366657220746f206e6f6e20455243373231526560008201527f63656976657220696d706c656d656e7465720000000000000000000000000000602082015250565b60006154cf603283613816565b91506154da82615473565b604082019050919050565b600060208201905081810360008301526154fe816154c2565b9050919050565b600061ffff82169050919050565b600061551e82615505565b915061552983615505565b92508282101561553c5761553b6149c9565b5b828203905092915050565b6000615552826135e7565b915061555d836135e7565b92508261556d5761556c614a2c565b5b828206905092915050565b600081519050919050565b600082825260208201905092915050565b600061559f82615578565b6155a98185615583565b93506155b9818560208601613827565b6155c281613660565b840191505092915050565b60006080820190506155e26000830187613914565b6155ef6020830186613914565b6155fc6040830185613b26565b818103606083015261560e8184615594565b905095945050505050565b60008151905061562881613558565b92915050565b60006020828403121561564457615643613522565b5b600061565284828501615619565b91505092915050565b600061566682615505565b915061567183615505565b92508261568157615680614a2c565b5b828206905092915050565b60006156978261361d565b915060ff82036156aa576156a96149c9565b5b600182019050919050565b60006156c082615505565b915061ffff82036156d4576156d36149c9565b5b600182019050919050565b60006156ea8261361d565b91506156f58361361d565b925082821015615708576157076149c9565b5b828203905092915050565b7f4552433732313a206d696e7420746f20746865207a65726f2061646472657373600082015250565b6000615749602083613816565b915061575482615713565b602082019050919050565b600060208201905081810360008301526157788161573c565b9050919050565b7f4552433732313a20746f6b656e20616c7265616479206d696e74656400000000600082015250565b60006157b5601c83613816565b91506157c08261577f565b602082019050919050565b600060208201905081810360008301526157e4816157a8565b905091905056fe4142434445464748494a4b4c4d4e4f505152535455565758595a6162636465666768696a6b6c6d6e6f707172737475767778797a303132333435363738392b2fa2646970667358221220306198d16a30855bb87b61fdad64c65b2dbf319b113d31a3937bb77ff540c98364736f6c634300080f0033",
  "linkReferences": {},
  "deployedLinkReferences": {}
}