{
  "_format": "hh-sol-artifact-1",
  "contractName": "RentMyApartment",
  "sourceName": "contracts/RentMyApartment.sol",
  "abi": [
    {
      "inputs": [],
      "stateMutability": "nonpayable",
      "type": "constructor"
    },
    {
      "anonymous": false,
      "inputs": [
        {
          "indexed": true,
          "internalType": "address",
          "name": "owner",
          "type": "address"
        },
        {
          "indexed": true,
          "internalType": "address",
          "name": "approved",
          "type": "address"
        },
        {
          "indexed": true,
          "internalType": "uint256",
          "name": "tokenId",
          "type": "uint256"
        }
      ],
      "name": "Approval",
      "type": "event"
    },
    {
      "anonymous": false,
      "inputs": [
        {
          "indexed": true,
          "internalType": "address",
          "name": "owner",
          "type": "address"
        },
        {
          "indexed": true,
          "internalType": "address",
          "name": "operator",
          "type": "address"
        },
        {
          "indexed": false,
          "internalType": "bool",
          "name": "approved",
          "type": "bool"
        }
      ],
      "name": "ApprovalForAll",
      "type": "event"
    },
    {
      "anonymous": false,
      "inputs": [
        {
          "indexed": false,
          "internalType": "address",
          "name": "sender",
          "type": "address"
        },
        {
          "indexed": false,
          "internalType": "uint256",
          "name": "tokenId",
          "type": "uint256"
        }
      ],
      "name": "NewNFTMinted",
      "type": "event"
    },
    {
      "anonymous": false,
      "inputs": [
        {
          "indexed": true,
          "internalType": "address",
          "name": "from",
          "type": "address"
        },
        {
          "indexed": true,
          "internalType": "address",
          "name": "to",
          "type": "address"
        },
        {
          "indexed": true,
          "internalType": "uint256",
          "name": "tokenId",
          "type": "uint256"
        }
      ],
      "name": "Transfer",
      "type": "event"
    },
    {
      "inputs": [
        {
          "internalType": "address",
          "name": "to",
          "type": "address"
        },
        {
          "internalType": "uint256",
          "name": "tokenId",
          "type": "uint256"
        }
      ],
      "name": "approve",
      "outputs": [],
      "stateMutability": "nonpayable",
      "type": "function"
    },
    {
      "inputs": [
        {
          "internalType": "address",
          "name": "owner",
          "type": "address"
        }
      ],
      "name": "balanceOf",
      "outputs": [
        {
          "internalType": "uint256",
          "name": "",
          "type": "uint256"
        }
      ],
      "stateMutability": "view",
      "type": "function"
    },
    {
      "inputs": [
        {
          "internalType": "uint256",
          "name": "tokenId",
          "type": "uint256"
        }
      ],
      "name": "getApproved",
      "outputs": [
        {
          "internalType": "address",
          "name": "",
          "type": "address"
        }
      ],
      "stateMutability": "view",
      "type": "function"
    },
    {
      "inputs": [],
      "name": "getUnavailableDates",
      "outputs": [
        {
          "internalType": "uint256[]",
          "name": "",
          "type": "uint256[]"
        }
      ],
      "stateMutability": "view",
      "type": "function"
    },
    {
      "inputs": [
        {
          "internalType": "address",
          "name": "owner",
          "type": "address"
        },
        {
          "internalType": "address",
          "name": "operator",
          "type": "address"
        }
      ],
      "name": "isApprovedForAll",
      "outputs": [
        {
          "internalType": "bool",
          "name": "",
          "type": "bool"
        }
      ],
      "stateMutability": "view",
      "type": "function"
    },
    {
      "inputs": [],
      "name": "name",
      "outputs": [
        {
          "internalType": "string",
          "name": "",
          "type": "string"
        }
      ],
      "stateMutability": "view",
      "type": "function"
    },
    {
      "inputs": [
        {
          "internalType": "uint256",
          "name": "tokenId",
          "type": "uint256"
        }
      ],
      "name": "ownerOf",
      "outputs": [
        {
          "internalType": "address",
          "name": "",
          "type": "address"
        }
      ],
      "stateMutability": "view",
      "type": "function"
    },
    {
      "inputs": [
        {
          "internalType": "uint256",
          "name": "_startDate",
          "type": "uint256"
        },
        {
          "internalType": "uint256",
          "name": "_endDate",
          "type": "uint256"
        }
      ],
      "name": "rent",
      "outputs": [],
      "stateMutability": "nonpayable",
      "type": "function"
    },
    {
      "inputs": [
        {
          "internalType": "address",
          "name": "from",
          "type": "address"
        },
        {
          "internalType": "address",
          "name": "to",
          "type": "address"
        },
        {
          "internalType": "uint256",
          "name": "tokenId",
          "type": "uint256"
        }
      ],
      "name": "safeTransferFrom",
      "outputs": [],
      "stateMutability": "nonpayable",
      "type": "function"
    },
    {
      "inputs": [
        {
          "internalType": "address",
          "name": "from",
          "type": "address"
        },
        {
          "internalType": "address",
          "name": "to",
          "type": "address"
        },
        {
          "internalType": "uint256",
          "name": "tokenId",
          "type": "uint256"
        },
        {
          "internalType": "bytes",
          "name": "_data",
          "type": "bytes"
        }
      ],
      "name": "safeTransferFrom",
      "outputs": [],
      "stateMutability": "nonpayable",
      "type": "function"
    },
    {
      "inputs": [
        {
          "internalType": "address",
          "name": "operator",
          "type": "address"
        },
        {
          "internalType": "bool",
          "name": "approved",
          "type": "bool"
        }
      ],
      "name": "setApprovalForAll",
      "outputs": [],
      "stateMutability": "nonpayable",
      "type": "function"
    },
    {
      "inputs": [
        {
          "internalType": "bytes4",
          "name": "interfaceId",
          "type": "bytes4"
        }
      ],
      "name": "supportsInterface",
      "outputs": [
        {
          "internalType": "bool",
          "name": "",
          "type": "bool"
        }
      ],
      "stateMutability": "view",
      "type": "function"
    },
    {
      "inputs": [],
      "name": "symbol",
      "outputs": [
        {
          "internalType": "string",
          "name": "",
          "type": "string"
        }
      ],
      "stateMutability": "view",
      "type": "function"
    },
    {
      "inputs": [
        {
          "internalType": "uint256",
          "name": "tokenId",
          "type": "uint256"
        }
      ],
      "name": "tokenURI",
      "outputs": [
        {
          "internalType": "string",
          "name": "",
          "type": "string"
        }
      ],
      "stateMutability": "view",
      "type": "function"
    },
    {
      "inputs": [
        {
          "internalType": "address",
          "name": "from",
          "type": "address"
        },
        {
          "internalType": "address",
          "name": "to",
          "type": "address"
        },
        {
          "internalType": "uint256",
          "name": "tokenId",
          "type": "uint256"
        }
      ],
      "name": "transferFrom",
      "outputs": [],
      "stateMutability": "nonpayable",
      "type": "function"
    }
  ],
  "bytecode": "0x60806040523480156200001157600080fd5b506040518060400160405280600f81526020017f52656e744d7941706172746d656e7400000000000000000000000000000000008152506040518060400160405280600481526020017f52454e540000000000000000000000000000000000000000000000000000000081525081600090816200008f91906200043b565b508060019081620000a191906200043b565b505050620000ef6040518060400160405280600c81526020017f436f6e7374727563746f722e0000000000000000000000000000000000000000815250620000f560201b62000d901760201c565b620005df565b62000195816040516024016200010c9190620005bb565b6040516020818303038152906040527f41304fac000000000000000000000000000000000000000000000000000000007bffffffffffffffffffffffffffffffffffffffffffffffffffffffff19166020820180517bffffffffffffffffffffffffffffffffffffffffffffffffffffffff83818316178352505050506200019860201b60201c565b50565b60008151905060006a636f6e736f6c652e6c6f679050602083016000808483855afa5050505050565b600081519050919050565b7f4e487b7100000000000000000000000000000000000000000000000000000000600052604160045260246000fd5b7f4e487b7100000000000000000000000000000000000000000000000000000000600052602260045260246000fd5b600060028204905060018216806200024357607f821691505b602082108103620002595762000258620001fb565b5b50919050565b60008190508160005260206000209050919050565b60006020601f8301049050919050565b600082821b905092915050565b600060088302620002c37fffffffffffffffffffffffffffffffffffffffffffffffffffffffffffffffff8262000284565b620002cf868362000284565b95508019841693508086168417925050509392505050565b6000819050919050565b6000819050919050565b60006200031c620003166200031084620002e7565b620002f1565b620002e7565b9050919050565b6000819050919050565b6200033883620002fb565b62000350620003478262000323565b84845462000291565b825550505050565b600090565b6200036762000358565b620003748184846200032d565b505050565b5b818110156200039c57620003906000826200035d565b6001810190506200037a565b5050565b601f821115620003eb57620003b5816200025f565b620003c08462000274565b81016020851015620003d0578190505b620003e8620003df8562000274565b83018262000379565b50505b505050565b600082821c905092915050565b60006200041060001984600802620003f0565b1980831691505092915050565b60006200042b8383620003fd565b9150826002028217905092915050565b6200044682620001c1565b67ffffffffffffffff811115620004625762000461620001cc565b5b6200046e82546200022a565b6200047b828285620003a0565b600060209050601f831160018114620004b357600084156200049e578287015190505b620004aa85826200041d565b8655506200051a565b601f198416620004c3866200025f565b60005b82811015620004ed57848901518255600182019150602085019450602081019050620004c6565b868310156200050d578489015162000509601f891682620003fd565b8355505b6001600288020188555050505b505050505050565b600082825260208201905092915050565b60005b838110156200055357808201518184015260208101905062000536565b8381111562000563576000848401525b50505050565b6000601f19601f8301169050919050565b60006200058782620001c1565b62000593818562000522565b9350620005a581856020860162000533565b620005b08162000569565b840191505092915050565b60006020820190508181036000830152620005d781846200057a565b905092915050565b6146e780620005ef6000396000f3fe608060405234801561001057600080fd5b50600436106100f55760003560e01c806370a0823111610097578063b88d4fde11610066578063b88d4fde14610282578063c87b56dd1461029e578063c9aeedfc146102ce578063e985e9c5146102ec576100f5565b806370a08231146101fc578063783a112b1461022c57806395d89b4114610248578063a22cb46514610266576100f5565b8063095ea7b3116100d3578063095ea7b31461017857806323b872dd1461019457806342842e0e146101b05780636352211e146101cc576100f5565b806301ffc9a7146100fa57806306fdde031461012a578063081812fc14610148575b600080fd5b610114600480360381019061010f9190612970565b61031c565b60405161012191906129b8565b60405180910390f35b6101326103fe565b60405161013f9190612a6c565b60405180910390f35b610162600480360381019061015d9190612ac4565b610490565b60405161016f9190612b32565b60405180910390f35b610192600480360381019061018d9190612b79565b610515565b005b6101ae60048036038101906101a99190612bb9565b61062c565b005b6101ca60048036038101906101c59190612bb9565b61068c565b005b6101e660048036038101906101e19190612ac4565b6106ac565b6040516101f39190612b32565b60405180910390f35b61021660048036038101906102119190612c0c565b61075d565b6040516102239190612c48565b60405180910390f35b61024660048036038101906102419190612c63565b610814565b005b610250610a49565b60405161025d9190612a6c565b60405180910390f35b610280600480360381019061027b9190612ccf565b610adb565b005b61029c60048036038101906102979190612e44565b610af1565b005b6102b860048036038101906102b39190612ac4565b610b53565b6040516102c59190612a6c565b60405180910390f35b6102d6610ca4565b6040516102e39190612f85565b60405180910390f35b61030660048036038101906103019190612fa7565b610cfc565b60405161031391906129b8565b60405180910390f35b60007f80ac58cd000000000000000000000000000000000000000000000000000000007bffffffffffffffffffffffffffffffffffffffffffffffffffffffff1916827bffffffffffffffffffffffffffffffffffffffffffffffffffffffff191614806103e757507f5b5e139f000000000000000000000000000000000000000000000000000000007bffffffffffffffffffffffffffffffffffffffffffffffffffffffff1916827bffffffffffffffffffffffffffffffffffffffffffffffffffffffff1916145b806103f757506103f682610e29565b5b9050919050565b60606000805461040d90613016565b80601f016020809104026020016040519081016040528092919081815260200182805461043990613016565b80156104865780601f1061045b57610100808354040283529160200191610486565b820191906000526020600020905b81548152906001019060200180831161046957829003601f168201915b5050505050905090565b600061049b82610e93565b6104da576040517f08c379a00000000000000000000000000000000000000000000000000000000081526004016104d1906130b9565b60405180910390fd5b6004600083815260200190815260200160002060009054906101000a900473ffffffffffffffffffffffffffffffffffffffff169050919050565b6000610520826106ac565b90508073ffffffffffffffffffffffffffffffffffffffff168373ffffffffffffffffffffffffffffffffffffffff1603610590576040517f08c379a00000000000000000000000000000000000000000000000000000000081526004016105879061314b565b60405180910390fd5b8073ffffffffffffffffffffffffffffffffffffffff166105af610eff565b73ffffffffffffffffffffffffffffffffffffffff1614806105de57506105dd816105d8610eff565b610cfc565b5b61061d576040517f08c379a0000000000000000000000000000000000000000000000000000000008152600401610614906131dd565b60405180910390fd5b6106278383610f07565b505050565b61063d610637610eff565b82610fc0565b61067c576040517f08c379a00000000000000000000000000000000000000000000000000000000081526004016106739061326f565b60405180910390fd5b61068783838361109e565b505050565b6106a783838360405180602001604052806000815250610af1565b505050565b6000806002600084815260200190815260200160002060009054906101000a900473ffffffffffffffffffffffffffffffffffffffff169050600073ffffffffffffffffffffffffffffffffffffffff168173ffffffffffffffffffffffffffffffffffffffff1603610754576040517f08c379a000000000000000000000000000000000000000000000000000000000815260040161074b90613301565b60405180910390fd5b80915050919050565b60008073ffffffffffffffffffffffffffffffffffffffff168273ffffffffffffffffffffffffffffffffffffffff16036107cd576040517f08c379a00000000000000000000000000000000000000000000000000000000081526004016107c490613393565b60405180910390fd5b600360008373ffffffffffffffffffffffffffffffffffffffff1673ffffffffffffffffffffffffffffffffffffffff168152602001908152602001600020549050919050565b42821015610857576040517f08c379a000000000000000000000000000000000000000000000000000000000815260040161084e90613425565b60405180910390fd5b428111610899576040517f08c379a0000000000000000000000000000000000000000000000000000000008152600401610890906134b7565b60405180910390fd5b8181116108db576040517f08c379a00000000000000000000000000000000000000000000000000000000081526004016108d29061356f565b60405180910390fd5b60006109006108e984611304565b6108f28561141b565b6108fb86611431565b611447565b9050600061092761091084611304565b6109198561141b565b61092286611431565b611447565b905060006109358383611462565b90506001151561094482611551565b151514610986576040517f08c379a000000000000000000000000000000000000000000000000000000000815260040161097d90613601565b60405180910390fd5b61098f816115ea565b600061099b600761164e565b90506109a7338261165c565b60405180604001604052808581526020018481525060096000838152602001908152602001600020600082015181600001556020820151816001015590505060006109f18261167a565b90506109fd8282611712565b610a07600761177f565b7f1c05098ed1ff38e6238d2b1b04b2c7977d4c94ce651bda6473f9dba8dbf01da03383604051610a38929190613621565b60405180910390a150505050505050565b606060018054610a5890613016565b80601f0160208091040260200160405190810160405280929190818152602001828054610a8490613016565b8015610ad15780601f10610aa657610100808354040283529160200191610ad1565b820191906000526020600020905b815481529060010190602001808311610ab457829003601f168201915b5050505050905090565b610aed610ae6610eff565b8383611795565b5050565b610b02610afc610eff565b83610fc0565b610b41576040517f08c379a0000000000000000000000000000000000000000000000000000000008152600401610b389061326f565b60405180910390fd5b610b4d84848484611901565b50505050565b6060610b5e82610e93565b610b9d576040517f08c379a0000000000000000000000000000000000000000000000000000000008152600401610b94906136bc565b60405180910390fd5b6000600660008481526020019081526020016000208054610bbd90613016565b80601f0160208091040260200160405190810160405280929190818152602001828054610be990613016565b8015610c365780601f10610c0b57610100808354040283529160200191610c36565b820191906000526020600020905b815481529060010190602001808311610c1957829003601f168201915b505050505090506000610c4761195d565b90506000815103610c5c578192505050610c9f565b600082511115610c91578082604051602001610c79929190613718565b60405160208183030381529060405292505050610c9f565b610c9a84611974565b925050505b919050565b60606008805480602002602001604051908101604052809291908181526020018280548015610cf257602002820191906000526020600020905b815481526020019060010190808311610cde575b5050505050905090565b6000600560008473ffffffffffffffffffffffffffffffffffffffff1673ffffffffffffffffffffffffffffffffffffffff16815260200190815260200160002060008373ffffffffffffffffffffffffffffffffffffffff1673ffffffffffffffffffffffffffffffffffffffff16815260200190815260200160002060009054906101000a900460ff16905092915050565b610e2681604051602401610da49190612a6c565b6040516020818303038152906040527f41304fac000000000000000000000000000000000000000000000000000000007bffffffffffffffffffffffffffffffffffffffffffffffffffffffff19166020820180517bffffffffffffffffffffffffffffffffffffffffffffffffffffffff8381831617835250505050611a1b565b50565b60007f01ffc9a7000000000000000000000000000000000000000000000000000000007bffffffffffffffffffffffffffffffffffffffffffffffffffffffff1916827bffffffffffffffffffffffffffffffffffffffffffffffffffffffff1916149050919050565b60008073ffffffffffffffffffffffffffffffffffffffff166002600084815260200190815260200160002060009054906101000a900473ffffffffffffffffffffffffffffffffffffffff1673ffffffffffffffffffffffffffffffffffffffff1614159050919050565b600033905090565b816004600083815260200190815260200160002060006101000a81548173ffffffffffffffffffffffffffffffffffffffff021916908373ffffffffffffffffffffffffffffffffffffffff160217905550808273ffffffffffffffffffffffffffffffffffffffff16610f7a836106ac565b73ffffffffffffffffffffffffffffffffffffffff167f8c5be1e5ebec7d5bd14f71427d1e84f3dd0314c0f7b2291e5b200ac8c7c3b92560405160405180910390a45050565b6000610fcb82610e93565b61100a576040517f08c379a0000000000000000000000000000000000000000000000000000000008152600401611001906137ae565b60405180910390fd5b6000611015836106ac565b90508073ffffffffffffffffffffffffffffffffffffffff168473ffffffffffffffffffffffffffffffffffffffff16148061105757506110568185610cfc565b5b8061109557508373ffffffffffffffffffffffffffffffffffffffff1661107d84610490565b73ffffffffffffffffffffffffffffffffffffffff16145b91505092915050565b8273ffffffffffffffffffffffffffffffffffffffff166110be826106ac565b73ffffffffffffffffffffffffffffffffffffffff1614611114576040517f08c379a000000000000000000000000000000000000000000000000000000000815260040161110b90613840565b60405180910390fd5b600073ffffffffffffffffffffffffffffffffffffffff168273ffffffffffffffffffffffffffffffffffffffff1603611183576040517f08c379a000000000000000000000000000000000000000000000000000000000815260040161117a906138d2565b60405180910390fd5b61118e838383611a44565b611199600082610f07565b6001600360008573ffffffffffffffffffffffffffffffffffffffff1673ffffffffffffffffffffffffffffffffffffffff16815260200190815260200160002060008282546111e99190613921565b925050819055506001600360008473ffffffffffffffffffffffffffffffffffffffff1673ffffffffffffffffffffffffffffffffffffffff16815260200190815260200160002060008282546112409190613955565b92505081905550816002600083815260200190815260200160002060006101000a81548173ffffffffffffffffffffffffffffffffffffffff021916908373ffffffffffffffffffffffffffffffffffffffff160217905550808273ffffffffffffffffffffffffffffffffffffffff168473ffffffffffffffffffffffffffffffffffffffff167fddf252ad1be2c89b69c2b068fc378daa952ba7f163c4a11628f55a4df523b3ef60405160405180910390a46112ff838383611a49565b505050565b600080600090506000806301e133808561131e91906139da565b6107b261ffff1661132f9190613955565b91506113406107b261ffff16611a4e565b61134d8361ffff16611a4e565b6113579190613921565b9050806301e285006113699190613a0b565b836113749190613955565b9250806107b2836113859190613a73565b61ffff166113939190613921565b6301e133806113a29190613a0b565b836113ad9190613955565b92505b84831115611410576113cd6001836113c89190613a73565b611aa2565b156113e9576301e28500836113e29190613921565b92506113fc565b6301e13380836113f99190613921565b92505b6001826114099190613a73565b91506113b0565b819350505050919050565b600061142682611b11565b602001519050919050565b600061143c82611b11565b604001519050919050565b60006114598484846000806000611d22565b90509392505050565b6060600060016018603c8087876114799190613921565b61148391906139da565b61148d91906139da565b61149791906139da565b6114a19190613955565b905060008167ffffffffffffffff8111156114bf576114be612d19565b5b6040519080825280602002602001820160405280156114ed5781602001602082028036833780820191505090505b50905060005b8281101561154557858510611534578582828151811061151657611515613aa7565b5b60200260200101818152505062015180866115319190613955565b95505b8061153e90613ad6565b90506114f3565b50809250505092915050565b600080600090505b82518110156115df5760005b6008805490508110156115cd576008818154811061158657611585613aa7565b5b90600052602060002001548483815181106115a4576115a3613aa7565b5b6020026020010151036115bc576000925050506115e5565b806115c690613ad6565b9050611565565b50806115d890613ad6565b9050611559565b50600190505b919050565b60005b815181101561164a57600882828151811061160b5761160a613aa7565b5b602002602001015190806001815401808255809150506001900390600052602060002001600090919091909150558061164390613ad6565b90506115ed565b5050565b600081600001549050919050565b61167682826040518060200160405280600081525061208d565b5050565b60606116ec611688836120e8565b6116a760096000868152602001908152602001600020600001546120e8565b6116c660096000878152602001908152602001600020600101546120e8565b6040516020016116d893929190613e3f565b604051602081830303815290604052612248565b6040516020016116fc9190613efe565b6040516020818303038152906040529050919050565b61171b82610e93565b61175a576040517f08c379a000000000000000000000000000000000000000000000000000000000815260040161175190613f92565b60405180910390fd5b8060066000848152602001908152602001600020908161177a919061415e565b505050565b6001816000016000828254019250508190555050565b8173ffffffffffffffffffffffffffffffffffffffff168373ffffffffffffffffffffffffffffffffffffffff1603611803576040517f08c379a00000000000000000000000000000000000000000000000000000000081526004016117fa9061427c565b60405180910390fd5b80600560008573ffffffffffffffffffffffffffffffffffffffff1673ffffffffffffffffffffffffffffffffffffffff16815260200190815260200160002060008473ffffffffffffffffffffffffffffffffffffffff1673ffffffffffffffffffffffffffffffffffffffff16815260200190815260200160002060006101000a81548160ff0219169083151502179055508173ffffffffffffffffffffffffffffffffffffffff168373ffffffffffffffffffffffffffffffffffffffff167f17307eab39ab6107e8899845ad3d59bd9653f200f220920489ca2b5937696c31836040516118f491906129b8565b60405180910390a3505050565b61190c84848461109e565b611918848484846123ab565b611957576040517f08c379a000000000000000000000000000000000000000000000000000000000815260040161194e9061430e565b60405180910390fd5b50505050565b606060405180602001604052806000815250905090565b606061197f82610e93565b6119be576040517f08c379a00000000000000000000000000000000000000000000000000000000081526004016119b5906143a0565b60405180910390fd5b60006119c861195d565b905060008151116119e85760405180602001604052806000815250611a13565b806119f2846120e8565b604051602001611a03929190613718565b6040516020818303038152906040525b915050919050565b60008151905060006a636f6e736f6c652e6c6f679050602083016000808483855afa5050505050565b505050565b505050565b6000600182611a5d9190613921565b915061019082611a6d91906139da565b606483611a7a91906139da565b600484611a8791906139da565b611a919190613921565b611a9b9190613955565b9050919050565b600080600483611ab291906143c0565b61ffff1614611ac45760009050611b0c565b6000606483611ad391906143c0565b61ffff1614611ae55760019050611b0c565b600061019083611af591906143c0565b61ffff1614611b075760009050611b0c565b600190505b919050565b611b1961288e565b60008080611b2685611304565b846000019061ffff16908161ffff1681525050611b486107b261ffff16611a4e565b611b59856000015161ffff16611a4e565b611b639190613921565b9150816301e28500611b759190613a0b565b83611b809190613955565b9250816107b28560000151611b959190613a73565b61ffff16611ba39190613921565b6301e13380611bb29190613a0b565b83611bbd9190613955565b92506000600191505b600c8260ff1611611c3d57611bdf828660000151612532565b60ff1662015180611bf09190613a0b565b9050858482611bff9190613955565b1115611c1c5781856020019060ff16908160ff1681525050611c3d565b8084611c289190613955565b93508180611c35906143fe565b925050611bc6565b600191505b611c5485602001518660000151612532565b60ff168260ff1611611cb157858462015180611c709190613955565b1115611c8d5781856040019060ff16908160ff1681525050611cb1565b6201518084611c9c9190613955565b93508180611ca9906143fe565b925050611c42565b611cba866125fe565b856060019060ff16908160ff1681525050611cd48661262b565b856080019060ff16908160ff1681525050611cee8661264c565b8560a0019060ff16908160ff1681525050611d0886612662565b8560c0019060ff16908160ff168152505050505050919050565b6000806107b290505b8761ffff168161ffff161015611d8657611d4481611aa2565b15611d60576301e2850082611d599190613955565b9150611d73565b6301e1338082611d709190613955565b91505b8080611d7e90614427565b915050611d2b565b611d8e6128e1565b601f816000600c8110611da457611da3613aa7565b5b602002019060ff16908160ff1681525050611dbe89611aa2565b15611def57601d816001600c8110611dd957611dd8613aa7565b5b602002019060ff16908160ff1681525050611e17565b601c816001600c8110611e0557611e04613aa7565b5b602002019060ff16908160ff16815250505b601f816002600c8110611e2d57611e2c613aa7565b5b602002019060ff16908160ff1681525050601e816003600c8110611e5457611e53613aa7565b5b602002019060ff16908160ff1681525050601f816004600c8110611e7b57611e7a613aa7565b5b602002019060ff16908160ff1681525050601e816005600c8110611ea257611ea1613aa7565b5b602002019060ff16908160ff1681525050601f816006600c8110611ec957611ec8613aa7565b5b602002019060ff16908160ff1681525050601f816007600c8110611ef057611eef613aa7565b5b602002019060ff16908160ff1681525050601e816008600c8110611f1757611f16613aa7565b5b602002019060ff16908160ff1681525050601f816009600c8110611f3e57611f3d613aa7565b5b602002019060ff16908160ff1681525050601e81600a600c8110611f6557611f64613aa7565b5b602002019060ff16908160ff1681525050601f81600b600c8110611f8c57611f8b613aa7565b5b602002019060ff16908160ff1681525050600191505b8760ff168261ffff16101561200a5780600183611fbf9190613a73565b61ffff16600c8110611fd457611fd3613aa7565b5b602002015160ff1662015180611fea9190613a0b565b83611ff59190613955565b9250818061200290614427565b925050611fa2565b6001876120179190614451565b60ff16620151806120289190613a0b565b836120339190613955565b92508560ff16610e106120469190613a0b565b836120519190613955565b92508460ff16603c6120639190613a0b565b8361206e9190613955565b92508360ff168361207f9190613955565b925050509695505050505050565b6120978383612692565b6120a460008484846123ab565b6120e3576040517f08c379a00000000000000000000000000000000000000000000000000000000081526004016120da9061430e565b60405180910390fd5b505050565b60606000820361212f576040518060400160405280600181526020017f30000000000000000000000000000000000000000000000000000000000000008152509050612243565b600082905060005b6000821461216157808061214a90613ad6565b915050600a8261215a91906139da565b9150612137565b60008167ffffffffffffffff81111561217d5761217c612d19565b5b6040519080825280601f01601f1916602001820160405280156121af5781602001600182028036833780820191505090505b5090505b6000851461223c576001826121c89190613921565b9150600a856121d79190614485565b60306121e39190613955565b60f81b8183815181106121f9576121f8613aa7565b5b60200101907effffffffffffffffffffffffffffffffffffffffffffffffffffffffffffff1916908160001a905350600a8561223591906139da565b94506121b3565b8093505050505b919050565b6060600082510361226a576040518060200160405280600081525090506123a6565b600060405180606001604052806040815260200161467260409139905060006003600285516122999190613955565b6122a391906139da565b60046122af9190613a0b565b67ffffffffffffffff8111156122c8576122c7612d19565b5b6040519080825280601f01601f1916602001820160405280156122fa5781602001600182028036833780820191505090505b509050600182016020820185865187015b80821015612366576003820191508151603f8160121c168501518453600184019350603f81600c1c168501518453600184019350603f8160061c168501518453600184019350603f811685015184536001840193505061230b565b505060038651066001811461238257600281146123955761239d565b603d6001830353603d600283035361239d565b603d60018303535b50505080925050505b919050565b60006123cc8473ffffffffffffffffffffffffffffffffffffffff1661286b565b15612525578373ffffffffffffffffffffffffffffffffffffffff1663150b7a026123f5610eff565b8786866040518563ffffffff1660e01b8152600401612417949392919061450b565b6020604051808303816000875af192505050801561245357506040513d601f19601f82011682018060405250810190612450919061456c565b60015b6124d5573d8060008114612483576040519150601f19603f3d011682016040523d82523d6000602084013e612488565b606091505b5060008151036124cd576040517f08c379a00000000000000000000000000000000000000000000000000000000081526004016124c49061430e565b60405180910390fd5b805181602001fd5b63150b7a0260e01b7bffffffffffffffffffffffffffffffffffffffffffffffffffffffff1916817bffffffffffffffffffffffffffffffffffffffffffffffffffffffff19161491505061252a565b600190505b949350505050565b600060018360ff161480612549575060038360ff16145b80612557575060058360ff16145b80612565575060078360ff16145b80612573575060088360ff16145b806125815750600a8360ff16145b8061258f5750600c8360ff16145b1561259d57601f90506125f8565b60048360ff1614806125b2575060068360ff16145b806125c0575060098360ff16145b806125ce5750600b8360ff16145b156125dc57601e90506125f8565b6125e582611aa2565b156125f357601d90506125f8565b601c90505b92915050565b60006018603c808461261091906139da565b61261a91906139da565b6126249190614485565b9050919050565b6000603c808361263b91906139da565b6126459190614485565b9050919050565b6000603c8261265b9190614485565b9050919050565b600060076004620151808461267791906139da565b6126819190613955565b61268b9190614485565b9050919050565b600073ffffffffffffffffffffffffffffffffffffffff168273ffffffffffffffffffffffffffffffffffffffff1603612701576040517f08c379a00000000000000000000000000000000000000000000000000000000081526004016126f8906145e5565b60405180910390fd5b61270a81610e93565b1561274a576040517f08c379a000000000000000000000000000000000000000000000000000000000815260040161274190614651565b60405180910390fd5b61275660008383611a44565b6001600360008473ffffffffffffffffffffffffffffffffffffffff1673ffffffffffffffffffffffffffffffffffffffff16815260200190815260200160002060008282546127a69190613955565b92505081905550816002600083815260200190815260200160002060006101000a81548173ffffffffffffffffffffffffffffffffffffffff021916908373ffffffffffffffffffffffffffffffffffffffff160217905550808273ffffffffffffffffffffffffffffffffffffffff16600073ffffffffffffffffffffffffffffffffffffffff167fddf252ad1be2c89b69c2b068fc378daa952ba7f163c4a11628f55a4df523b3ef60405160405180910390a461286760008383611a49565b5050565b6000808273ffffffffffffffffffffffffffffffffffffffff163b119050919050565b6040518060e00160405280600061ffff168152602001600060ff168152602001600060ff168152602001600060ff168152602001600060ff168152602001600060ff168152602001600060ff1681525090565b604051806101800160405280600c90602082028036833780820191505090505090565b6000604051905090565b600080fd5b600080fd5b60007fffffffff0000000000000000000000000000000000000000000000000000000082169050919050565b61294d81612918565b811461295857600080fd5b50565b60008135905061296a81612944565b92915050565b6000602082840312156129865761298561290e565b5b60006129948482850161295b565b91505092915050565b60008115159050919050565b6129b28161299d565b82525050565b60006020820190506129cd60008301846129a9565b92915050565b600081519050919050565b600082825260208201905092915050565b60005b83811015612a0d5780820151818401526020810190506129f2565b83811115612a1c576000848401525b50505050565b6000601f19601f8301169050919050565b6000612a3e826129d3565b612a4881856129de565b9350612a588185602086016129ef565b612a6181612a22565b840191505092915050565b60006020820190508181036000830152612a868184612a33565b905092915050565b6000819050919050565b612aa181612a8e565b8114612aac57600080fd5b50565b600081359050612abe81612a98565b92915050565b600060208284031215612ada57612ad961290e565b5b6000612ae884828501612aaf565b91505092915050565b600073ffffffffffffffffffffffffffffffffffffffff82169050919050565b6000612b1c82612af1565b9050919050565b612b2c81612b11565b82525050565b6000602082019050612b476000830184612b23565b92915050565b612b5681612b11565b8114612b6157600080fd5b50565b600081359050612b7381612b4d565b92915050565b60008060408385031215612b9057612b8f61290e565b5b6000612b9e85828601612b64565b9250506020612baf85828601612aaf565b9150509250929050565b600080600060608486031215612bd257612bd161290e565b5b6000612be086828701612b64565b9350506020612bf186828701612b64565b9250506040612c0286828701612aaf565b9150509250925092565b600060208284031215612c2257612c2161290e565b5b6000612c3084828501612b64565b91505092915050565b612c4281612a8e565b82525050565b6000602082019050612c5d6000830184612c39565b92915050565b60008060408385031215612c7a57612c7961290e565b5b6000612c8885828601612aaf565b9250506020612c9985828601612aaf565b9150509250929050565b612cac8161299d565b8114612cb757600080fd5b50565b600081359050612cc981612ca3565b92915050565b60008060408385031215612ce657612ce561290e565b5b6000612cf485828601612b64565b9250506020612d0585828601612cba565b9150509250929050565b600080fd5b600080fd5b7f4e487b7100000000000000000000000000000000000000000000000000000000600052604160045260246000fd5b612d5182612a22565b810181811067ffffffffffffffff82111715612d7057612d6f612d19565b5b80604052505050565b6000612d83612904565b9050612d8f8282612d48565b919050565b600067ffffffffffffffff821115612daf57612dae612d19565b5b612db882612a22565b9050602081019050919050565b82818337600083830152505050565b6000612de7612de284612d94565b612d79565b905082815260208101848484011115612e0357612e02612d14565b5b612e0e848285612dc5565b509392505050565b600082601f830112612e2b57612e2a612d0f565b5b8135612e3b848260208601612dd4565b91505092915050565b60008060008060808587031215612e5e57612e5d61290e565b5b6000612e6c87828801612b64565b9450506020612e7d87828801612b64565b9350506040612e8e87828801612aaf565b925050606085013567ffffffffffffffff811115612eaf57612eae612913565b5b612ebb87828801612e16565b91505092959194509250565b600081519050919050565b600082825260208201905092915050565b6000819050602082019050919050565b612efc81612a8e565b82525050565b6000612f0e8383612ef3565b60208301905092915050565b6000602082019050919050565b6000612f3282612ec7565b612f3c8185612ed2565b9350612f4783612ee3565b8060005b83811015612f78578151612f5f8882612f02565b9750612f6a83612f1a565b925050600181019050612f4b565b5085935050505092915050565b60006020820190508181036000830152612f9f8184612f27565b905092915050565b60008060408385031215612fbe57612fbd61290e565b5b6000612fcc85828601612b64565b9250506020612fdd85828601612b64565b9150509250929050565b7f4e487b7100000000000000000000000000000000000000000000000000000000600052602260045260246000fd5b6000600282049050600182168061302e57607f821691505b60208210810361304157613040612fe7565b5b50919050565b7f4552433732313a20617070726f76656420717565727920666f72206e6f6e657860008201527f697374656e7420746f6b656e0000000000000000000000000000000000000000602082015250565b60006130a3602c836129de565b91506130ae82613047565b604082019050919050565b600060208201905081810360008301526130d281613096565b9050919050565b7f4552433732313a20617070726f76616c20746f2063757272656e74206f776e6560008201527f7200000000000000000000000000000000000000000000000000000000000000602082015250565b60006131356021836129de565b9150613140826130d9565b604082019050919050565b6000602082019050818103600083015261316481613128565b9050919050565b7f4552433732313a20617070726f76652063616c6c6572206973206e6f74206f7760008201527f6e6572206e6f7220617070726f76656420666f7220616c6c0000000000000000602082015250565b60006131c76038836129de565b91506131d28261316b565b604082019050919050565b600060208201905081810360008301526131f6816131ba565b9050919050565b7f4552433732313a207472616e736665722063616c6c6572206973206e6f74206f60008201527f776e6572206e6f7220617070726f766564000000000000000000000000000000602082015250565b60006132596031836129de565b9150613264826131fd565b604082019050919050565b600060208201905081810360008301526132888161324c565b9050919050565b7f4552433732313a206f776e657220717565727920666f72206e6f6e657869737460008201527f656e7420746f6b656e0000000000000000000000000000000000000000000000602082015250565b60006132eb6029836129de565b91506132f68261328f565b604082019050919050565b6000602082019050818103600083015261331a816132de565b9050919050565b7f4552433732313a2062616c616e636520717565727920666f7220746865207a6560008201527f726f206164647265737300000000000000000000000000000000000000000000602082015250565b600061337d602a836129de565b915061338882613321565b604082019050919050565b600060208201905081810360008301526133ac81613370565b9050919050565b7f4572726f21204f20696e6963696f2064612072657365727661206520616e746560008201527f72696f7220616f2064696120646520686f6a652e000000000000000000000000602082015250565b600061340f6034836129de565b915061341a826133b3565b604082019050919050565b6000602082019050818103600083015261343e81613402565b9050919050565b7f4572726f21204f2066696d2064612072657365727661206520616e746572696f60008201527f7220616f2064696120646520686f6a652e000000000000000000000000000000602082015250565b60006134a16031836129de565b91506134ac82613445565b604082019050919050565b600060208201905081810360008301526134d081613494565b9050919050565b7f4572726f212041206461746120646520696e6963696f206e616f20706f64652060008201527f736572207375706572696f72206120646f2066696d206461207265736572766160208201527f2e00000000000000000000000000000000000000000000000000000000000000604082015250565b60006135596041836129de565b9150613564826134d7565b606082019050919050565b600060208201905081810360008301526135888161354c565b9050919050565b7f4572726f21204173206461746173206573636f6c6869646173206a612065737460008201527f616f206f637570616461732e0000000000000000000000000000000000000000602082015250565b60006135eb602c836129de565b91506135f68261358f565b604082019050919050565b6000602082019050818103600083015261361a816135de565b9050919050565b60006040820190506136366000830185612b23565b6136436020830184612c39565b9392505050565b7f45524337323155524953746f726167653a2055524920717565727920666f722060008201527f6e6f6e6578697374656e7420746f6b656e000000000000000000000000000000602082015250565b60006136a66031836129de565b91506136b18261364a565b604082019050919050565b600060208201905081810360008301526136d581613699565b9050919050565b600081905092915050565b60006136f2826129d3565b6136fc81856136dc565b935061370c8185602086016129ef565b80840191505092915050565b600061372482856136e7565b915061373082846136e7565b91508190509392505050565b7f4552433732313a206f70657261746f7220717565727920666f72206e6f6e657860008201527f697374656e7420746f6b656e0000000000000000000000000000000000000000602082015250565b6000613798602c836129de565b91506137a38261373c565b604082019050919050565b600060208201905081810360008301526137c78161378b565b9050919050565b7f4552433732313a207472616e736665722066726f6d20696e636f72726563742060008201527f6f776e6572000000000000000000000000000000000000000000000000000000602082015250565b600061382a6025836129de565b9150613835826137ce565b604082019050919050565b600060208201905081810360008301526138598161381d565b9050919050565b7f4552433732313a207472616e7366657220746f20746865207a65726f2061646460008201527f7265737300000000000000000000000000000000000000000000000000000000602082015250565b60006138bc6024836129de565b91506138c782613860565b604082019050919050565b600060208201905081810360008301526138eb816138af565b9050919050565b7f4e487b7100000000000000000000000000000000000000000000000000000000600052601160045260246000fd5b600061392c82612a8e565b915061393783612a8e565b92508282101561394a576139496138f2565b5b828203905092915050565b600061396082612a8e565b915061396b83612a8e565b9250827fffffffffffffffffffffffffffffffffffffffffffffffffffffffffffffffff038211156139a05761399f6138f2565b5b828201905092915050565b7f4e487b7100000000000000000000000000000000000000000000000000000000600052601260045260246000fd5b60006139e582612a8e565b91506139f083612a8e565b925082613a00576139ff6139ab565b5b828204905092915050565b6000613a1682612a8e565b9150613a2183612a8e565b9250817fffffffffffffffffffffffffffffffffffffffffffffffffffffffffffffffff0483118215151615613a5a57613a596138f2565b5b828202905092915050565b600061ffff82169050919050565b6000613a7e82613a65565b9150613a8983613a65565b925082821015613a9c57613a9b6138f2565b5b828203905092915050565b7f4e487b7100000000000000000000000000000000000000000000000000000000600052603260045260246000fd5b6000613ae182612a8e565b91507fffffffffffffffffffffffffffffffffffffffffffffffffffffffffffffffff8203613b1357613b126138f2565b5b600182019050919050565b7f7b226e616d65223a2252656e744d7941706172746d656e742023000000000000600082015250565b6000613b54601a836136dc565b9150613b5f82613b1e565b601a82019050919050565b7f222c20226465736372697074696f6e223a225468616e6b20796f7520666f722060008201527f63686f6f73696e6720757320666f7220796f757220726563656e74207374617960208201527f20696e20506f72746f2e205765206c6f6f6b20666f727761726420746f20776560408201527f6c636f6d696e6720796f7521222c2022696d616765223a2268747470733a2f2f60608201527f692e6962622e636f2f646d3346436a4e2f4d696b2d56656e747572612d31382d60808201527f4c2d54686972642d426564726f6f6d2d4f66666963652d5265636f766572656460a08201527f2d7374616765642d41422d7568636471762e77656270222c202261747472696260c08201527f75746573223a5b7b22646973706c61795f74797065223a202264617465222c2060e08201527f2274726169745f74797065223a20227374617274222c202276616c7565223a0061010082015250565b6000613cd261011f836136dc565b9150613cdd82613b6a565b61011f82019050919050565b7f7d2c000000000000000000000000000000000000000000000000000000000000600082015250565b6000613d1f6002836136dc565b9150613d2a82613ce9565b600282019050919050565b7f7b22646973706c61795f74797065223a202264617465222c202274726169745f60008201527f74797065223a2022656e64222c202276616c7565223a00000000000000000000602082015250565b6000613d916036836136dc565b9150613d9c82613d35565b603682019050919050565b7f7d00000000000000000000000000000000000000000000000000000000000000600082015250565b6000613ddd6001836136dc565b9150613de882613da7565b600182019050919050565b7f5d7d000000000000000000000000000000000000000000000000000000000000600082015250565b6000613e296002836136dc565b9150613e3482613df3565b600282019050919050565b6000613e4a82613b47565b9150613e5682866136e7565b9150613e6182613cc4565b9150613e6d82856136e7565b9150613e7882613d12565b9150613e8382613d84565b9150613e8f82846136e7565b9150613e9a82613dd0565b9150613ea582613e1c565b9150819050949350505050565b7f646174613a6170706c69636174696f6e2f6a736f6e3b6261736536342c000000600082015250565b6000613ee8601d836136dc565b9150613ef382613eb2565b601d82019050919050565b6000613f0982613edb565b9150613f1582846136e7565b915081905092915050565b7f45524337323155524953746f726167653a2055524920736574206f66206e6f6e60008201527f6578697374656e7420746f6b656e000000000000000000000000000000000000602082015250565b6000613f7c602e836129de565b9150613f8782613f20565b604082019050919050565b60006020820190508181036000830152613fab81613f6f565b9050919050565b60008190508160005260206000209050919050565b60006020601f8301049050919050565b600082821b905092915050565b6000600883026140147fffffffffffffffffffffffffffffffffffffffffffffffffffffffffffffffff82613fd7565b61401e8683613fd7565b95508019841693508086168417925050509392505050565b6000819050919050565b600061405b61405661405184612a8e565b614036565b612a8e565b9050919050565b6000819050919050565b61407583614040565b61408961408182614062565b848454613fe4565b825550505050565b600090565b61409e614091565b6140a981848461406c565b505050565b5b818110156140cd576140c2600082614096565b6001810190506140af565b5050565b601f821115614112576140e381613fb2565b6140ec84613fc7565b810160208510156140fb578190505b61410f61410785613fc7565b8301826140ae565b50505b505050565b600082821c905092915050565b600061413560001984600802614117565b1980831691505092915050565b600061414e8383614124565b9150826002028217905092915050565b614167826129d3565b67ffffffffffffffff8111156141805761417f612d19565b5b61418a8254613016565b6141958282856140d1565b600060209050601f8311600181146141c857600084156141b6578287015190505b6141c08582614142565b865550614228565b601f1984166141d686613fb2565b60005b828110156141fe578489015182556001820191506020850194506020810190506141d9565b8683101561421b5784890151614217601f891682614124565b8355505b6001600288020188555050505b505050505050565b7f4552433732313a20617070726f766520746f2063616c6c657200000000000000600082015250565b60006142666019836129de565b915061427182614230565b602082019050919050565b6000602082019050818103600083015261429581614259565b9050919050565b7f4552433732313a207472616e7366657220746f206e6f6e20455243373231526560008201527f63656976657220696d706c656d656e7465720000000000000000000000000000602082015250565b60006142f86032836129de565b91506143038261429c565b604082019050919050565b60006020820190508181036000830152614327816142eb565b9050919050565b7f4552433732314d657461646174613a2055524920717565727920666f72206e6f60008201527f6e6578697374656e7420746f6b656e0000000000000000000000000000000000602082015250565b600061438a602f836129de565b91506143958261432e565b604082019050919050565b600060208201905081810360008301526143b98161437d565b9050919050565b60006143cb82613a65565b91506143d683613a65565b9250826143e6576143e56139ab565b5b828206905092915050565b600060ff82169050919050565b6000614409826143f1565b915060ff820361441c5761441b6138f2565b5b600182019050919050565b600061443282613a65565b915061ffff8203614446576144456138f2565b5b600182019050919050565b600061445c826143f1565b9150614467836143f1565b92508282101561447a576144796138f2565b5b828203905092915050565b600061449082612a8e565b915061449b83612a8e565b9250826144ab576144aa6139ab565b5b828206905092915050565b600081519050919050565b600082825260208201905092915050565b60006144dd826144b6565b6144e781856144c1565b93506144f78185602086016129ef565b61450081612a22565b840191505092915050565b60006080820190506145206000830187612b23565b61452d6020830186612b23565b61453a6040830185612c39565b818103606083015261454c81846144d2565b905095945050505050565b60008151905061456681612944565b92915050565b6000602082840312156145825761458161290e565b5b600061459084828501614557565b91505092915050565b7f4552433732313a206d696e7420746f20746865207a65726f2061646472657373600082015250565b60006145cf6020836129de565b91506145da82614599565b602082019050919050565b600060208201905081810360008301526145fe816145c2565b9050919050565b7f4552433732313a20746f6b656e20616c7265616479206d696e74656400000000600082015250565b600061463b601c836129de565b915061464682614605565b602082019050919050565b6000602082019050818103600083015261466a8161462e565b905091905056fe4142434445464748494a4b4c4d4e4f505152535455565758595a6162636465666768696a6b6c6d6e6f707172737475767778797a303132333435363738392b2fa264697066735822122006a3aa786dec84bed3aa98d03696a2f6f5a531ba7b1cf74bf76e3a0ba51110b764736f6c634300080f0033",
  "linkReferences": {},
  "deployedLinkReferences": {}
}