{
  "_format": "hh-sol-artifact-1",
  "contractName": "RentMyApartment",
  "sourceName": "contracts/RentMyApartment.sol",
  "abi": [
    {
      "inputs": [],
      "stateMutability": "nonpayable",
      "type": "constructor"
    },
    {
      "anonymous": false,
      "inputs": [
        {
          "indexed": true,
          "internalType": "address",
          "name": "owner",
          "type": "address"
        },
        {
          "indexed": true,
          "internalType": "address",
          "name": "approved",
          "type": "address"
        },
        {
          "indexed": true,
          "internalType": "uint256",
          "name": "tokenId",
          "type": "uint256"
        }
      ],
      "name": "Approval",
      "type": "event"
    },
    {
      "anonymous": false,
      "inputs": [
        {
          "indexed": true,
          "internalType": "address",
          "name": "owner",
          "type": "address"
        },
        {
          "indexed": true,
          "internalType": "address",
          "name": "operator",
          "type": "address"
        },
        {
          "indexed": false,
          "internalType": "bool",
          "name": "approved",
          "type": "bool"
        }
      ],
      "name": "ApprovalForAll",
      "type": "event"
    },
    {
      "anonymous": false,
      "inputs": [
        {
          "indexed": false,
          "internalType": "address",
          "name": "sender",
          "type": "address"
        },
        {
          "indexed": false,
          "internalType": "uint256",
          "name": "tokenId",
          "type": "uint256"
        }
      ],
      "name": "NewNFTMinted",
      "type": "event"
    },
    {
      "anonymous": false,
      "inputs": [
        {
          "indexed": true,
          "internalType": "address",
          "name": "previousOwner",
          "type": "address"
        },
        {
          "indexed": true,
          "internalType": "address",
          "name": "newOwner",
          "type": "address"
        }
      ],
      "name": "OwnershipTransferred",
      "type": "event"
    },
    {
      "anonymous": false,
      "inputs": [
        {
          "indexed": true,
          "internalType": "address",
          "name": "from",
          "type": "address"
        },
        {
          "indexed": true,
          "internalType": "address",
          "name": "to",
          "type": "address"
        },
        {
          "indexed": true,
          "internalType": "uint256",
          "name": "tokenId",
          "type": "uint256"
        }
      ],
      "name": "Transfer",
      "type": "event"
    },
    {
      "inputs": [
        {
          "internalType": "address",
          "name": "to",
          "type": "address"
        },
        {
          "internalType": "uint256",
          "name": "tokenId",
          "type": "uint256"
        }
      ],
      "name": "approve",
      "outputs": [],
      "stateMutability": "nonpayable",
      "type": "function"
    },
    {
      "inputs": [
        {
          "internalType": "address",
          "name": "owner",
          "type": "address"
        }
      ],
      "name": "balanceOf",
      "outputs": [
        {
          "internalType": "uint256",
          "name": "",
          "type": "uint256"
        }
      ],
      "stateMutability": "view",
      "type": "function"
    },
    {
      "inputs": [],
      "name": "getAllRatings",
      "outputs": [
        {
          "components": [
            {
              "internalType": "address",
              "name": "user",
              "type": "address"
            },
            {
              "internalType": "uint8",
              "name": "rating",
              "type": "uint8"
            },
            {
              "internalType": "string",
              "name": "message",
              "type": "string"
            },
            {
              "internalType": "uint256",
              "name": "timestamp",
              "type": "uint256"
            }
          ],
          "internalType": "struct RentMyApartment.Rating[]",
          "name": "",
          "type": "tuple[]"
        }
      ],
      "stateMutability": "view",
      "type": "function"
    },
    {
      "inputs": [
        {
          "internalType": "uint256",
          "name": "tokenId",
          "type": "uint256"
        }
      ],
      "name": "getApproved",
      "outputs": [
        {
          "internalType": "address",
          "name": "",
          "type": "address"
        }
      ],
      "stateMutability": "view",
      "type": "function"
    },
    {
      "inputs": [
        {
          "internalType": "uint256",
          "name": "_id",
          "type": "uint256"
        }
      ],
      "name": "getSpecificRating",
      "outputs": [
        {
          "components": [
            {
              "internalType": "address",
              "name": "user",
              "type": "address"
            },
            {
              "internalType": "uint8",
              "name": "rating",
              "type": "uint8"
            },
            {
              "internalType": "string",
              "name": "message",
              "type": "string"
            },
            {
              "internalType": "uint256",
              "name": "timestamp",
              "type": "uint256"
            }
          ],
          "internalType": "struct RentMyApartment.Rating",
          "name": "",
          "type": "tuple"
        }
      ],
      "stateMutability": "view",
      "type": "function"
    },
    {
      "inputs": [],
      "name": "getUnavailableDates",
      "outputs": [
        {
          "internalType": "uint256[]",
          "name": "",
          "type": "uint256[]"
        }
      ],
      "stateMutability": "view",
      "type": "function"
    },
    {
      "inputs": [
        {
          "internalType": "address",
          "name": "owner",
          "type": "address"
        },
        {
          "internalType": "address",
          "name": "operator",
          "type": "address"
        }
      ],
      "name": "isApprovedForAll",
      "outputs": [
        {
          "internalType": "bool",
          "name": "",
          "type": "bool"
        }
      ],
      "stateMutability": "view",
      "type": "function"
    },
    {
      "inputs": [],
      "name": "name",
      "outputs": [
        {
          "internalType": "string",
          "name": "",
          "type": "string"
        }
      ],
      "stateMutability": "view",
      "type": "function"
    },
    {
      "inputs": [],
      "name": "owner",
      "outputs": [
        {
          "internalType": "address",
          "name": "",
          "type": "address"
        }
      ],
      "stateMutability": "view",
      "type": "function"
    },
    {
      "inputs": [
        {
          "internalType": "uint256",
          "name": "tokenId",
          "type": "uint256"
        }
      ],
      "name": "ownerOf",
      "outputs": [
        {
          "internalType": "address",
          "name": "",
          "type": "address"
        }
      ],
      "stateMutability": "view",
      "type": "function"
    },
    {
      "inputs": [
        {
          "internalType": "uint256",
          "name": "_tokenId",
          "type": "uint256"
        },
        {
          "internalType": "uint8",
          "name": "_rating",
          "type": "uint8"
        },
        {
          "internalType": "string",
          "name": "_message",
          "type": "string"
        }
      ],
      "name": "rate",
      "outputs": [],
      "stateMutability": "nonpayable",
      "type": "function"
    },
    {
      "inputs": [],
      "name": "renounceOwnership",
      "outputs": [],
      "stateMutability": "nonpayable",
      "type": "function"
    },
    {
      "inputs": [
        {
          "internalType": "uint256",
          "name": "_startDate",
          "type": "uint256"
        },
        {
          "internalType": "uint256",
          "name": "_endDate",
          "type": "uint256"
        }
      ],
      "name": "rent",
      "outputs": [],
      "stateMutability": "payable",
      "type": "function"
    },
    {
      "inputs": [
        {
          "internalType": "address",
          "name": "from",
          "type": "address"
        },
        {
          "internalType": "address",
          "name": "to",
          "type": "address"
        },
        {
          "internalType": "uint256",
          "name": "tokenId",
          "type": "uint256"
        }
      ],
      "name": "safeTransferFrom",
      "outputs": [],
      "stateMutability": "nonpayable",
      "type": "function"
    },
    {
      "inputs": [
        {
          "internalType": "address",
          "name": "from",
          "type": "address"
        },
        {
          "internalType": "address",
          "name": "to",
          "type": "address"
        },
        {
          "internalType": "uint256",
          "name": "tokenId",
          "type": "uint256"
        },
        {
          "internalType": "bytes",
          "name": "data",
          "type": "bytes"
        }
      ],
      "name": "safeTransferFrom",
      "outputs": [],
      "stateMutability": "nonpayable",
      "type": "function"
    },
    {
      "inputs": [
        {
          "internalType": "address",
          "name": "operator",
          "type": "address"
        },
        {
          "internalType": "bool",
          "name": "approved",
          "type": "bool"
        }
      ],
      "name": "setApprovalForAll",
      "outputs": [],
      "stateMutability": "nonpayable",
      "type": "function"
    },
    {
      "inputs": [
        {
          "internalType": "bytes4",
          "name": "interfaceId",
          "type": "bytes4"
        }
      ],
      "name": "supportsInterface",
      "outputs": [
        {
          "internalType": "bool",
          "name": "",
          "type": "bool"
        }
      ],
      "stateMutability": "view",
      "type": "function"
    },
    {
      "inputs": [],
      "name": "symbol",
      "outputs": [
        {
          "internalType": "string",
          "name": "",
          "type": "string"
        }
      ],
      "stateMutability": "view",
      "type": "function"
    },
    {
      "inputs": [
        {
          "internalType": "uint256",
          "name": "tokenId",
          "type": "uint256"
        }
      ],
      "name": "tokenURI",
      "outputs": [
        {
          "internalType": "string",
          "name": "",
          "type": "string"
        }
      ],
      "stateMutability": "view",
      "type": "function"
    },
    {
      "inputs": [
        {
          "internalType": "address",
          "name": "from",
          "type": "address"
        },
        {
          "internalType": "address",
          "name": "to",
          "type": "address"
        },
        {
          "internalType": "uint256",
          "name": "tokenId",
          "type": "uint256"
        }
      ],
      "name": "transferFrom",
      "outputs": [],
      "stateMutability": "nonpayable",
      "type": "function"
    },
    {
      "inputs": [
        {
          "internalType": "address",
          "name": "newOwner",
          "type": "address"
        }
      ],
      "name": "transferOwnership",
      "outputs": [],
      "stateMutability": "nonpayable",
      "type": "function"
    },
    {
      "inputs": [],
      "name": "withdrawMoney",
      "outputs": [],
      "stateMutability": "nonpayable",
      "type": "function"
    }
  ],
  "bytecode": "0x60806040523480156200001157600080fd5b506040518060400160405280600f81526020017f52656e744d7941706172746d656e7400000000000000000000000000000000008152506040518060400160405280600481526020017f52454e540000000000000000000000000000000000000000000000000000000081525081600090816200008f919062000529565b508060019081620000a1919062000529565b505050620000c4620000b86200011560201b60201c565b6200011d60201b60201c565b6200010f6040518060400160405280600c81526020017f436f6e7374727563746f722e0000000000000000000000000000000000000000815250620001e360201b620016281760201c565b620006cd565b600033905090565b6000600760009054906101000a900473ffffffffffffffffffffffffffffffffffffffff16905081600760006101000a81548173ffffffffffffffffffffffffffffffffffffffff021916908373ffffffffffffffffffffffffffffffffffffffff1602179055508173ffffffffffffffffffffffffffffffffffffffff168173ffffffffffffffffffffffffffffffffffffffff167f8be0079c531659141344cd1fd0a4f28419497f9722a3daafe3b4186f6b6457e060405160405180910390a35050565b6200028381604051602401620001fa9190620006a9565b6040516020818303038152906040527f41304fac000000000000000000000000000000000000000000000000000000007bffffffffffffffffffffffffffffffffffffffffffffffffffffffff19166020820180517bffffffffffffffffffffffffffffffffffffffffffffffffffffffff83818316178352505050506200028660201b60201c565b50565b60008151905060006a636f6e736f6c652e6c6f679050602083016000808483855afa5050505050565b600081519050919050565b7f4e487b7100000000000000000000000000000000000000000000000000000000600052604160045260246000fd5b7f4e487b7100000000000000000000000000000000000000000000000000000000600052602260045260246000fd5b600060028204905060018216806200033157607f821691505b602082108103620003475762000346620002e9565b5b50919050565b60008190508160005260206000209050919050565b60006020601f8301049050919050565b600082821b905092915050565b600060088302620003b17fffffffffffffffffffffffffffffffffffffffffffffffffffffffffffffffff8262000372565b620003bd868362000372565b95508019841693508086168417925050509392505050565b6000819050919050565b6000819050919050565b60006200040a62000404620003fe84620003d5565b620003df565b620003d5565b9050919050565b6000819050919050565b6200042683620003e9565b6200043e620004358262000411565b8484546200037f565b825550505050565b600090565b6200045562000446565b620004628184846200041b565b505050565b5b818110156200048a576200047e6000826200044b565b60018101905062000468565b5050565b601f821115620004d957620004a3816200034d565b620004ae8462000362565b81016020851015620004be578190505b620004d6620004cd8562000362565b83018262000467565b50505b505050565b600082821c905092915050565b6000620004fe60001984600802620004de565b1980831691505092915050565b6000620005198383620004eb565b9150826002028217905092915050565b6200053482620002af565b67ffffffffffffffff81111562000550576200054f620002ba565b5b6200055c825462000318565b620005698282856200048e565b600060209050601f831160018114620005a157600084156200058c578287015190505b6200059885826200050b565b86555062000608565b601f198416620005b1866200034d565b60005b82811015620005db57848901518255600182019150602085019450602081019050620005b4565b86831015620005fb5784890151620005f7601f891682620004eb565b8355505b6001600288020188555050505b505050505050565b600082825260208201905092915050565b60005b838110156200064157808201518184015260208101905062000624565b8381111562000651576000848401525b50505050565b6000601f19601f8301169050919050565b60006200067582620002af565b62000681818562000610565b93506200069381856020860162000621565b6200069e8162000657565b840191505092915050565b60006020820190508181036000830152620006c5818462000668565b905092915050565b61585a80620006dd6000396000f3fe6080604052600436106101355760003560e01c8063783a112b116100ab578063b88d4fde1161006f578063b88d4fde14610403578063c87b56dd1461042c578063c9aeedfc14610469578063e985e9c514610494578063eac977c4146104d1578063f2fde38b146104fc57610135565b8063783a112b146103515780638da5cb5b1461036d57806395d89b4114610398578063a22cb465146103c3578063ac446002146103ec57610135565b80631e03fd1a116100fd5780631e03fd1a1461023157806323b872dd1461026e57806342842e0e146102975780636352211e146102c057806370a08231146102fd578063715018a61461033a57610135565b806301ffc9a71461013a57806302ece06f1461017757806306fdde03146101a0578063081812fc146101cb578063095ea7b314610208575b600080fd5b34801561014657600080fd5b50610161600480360381019061015c919061357d565b610525565b60405161016e91906135c5565b60405180910390f35b34801561018357600080fd5b5061019e60048036038101906101999190613795565b610607565b005b3480156101ac57600080fd5b506101b5610879565b6040516101c2919061388c565b60405180910390f35b3480156101d757600080fd5b506101f260048036038101906101ed91906138ae565b61090b565b6040516101ff919061391c565b60405180910390f35b34801561021457600080fd5b5061022f600480360381019061022a9190613963565b610951565b005b34801561023d57600080fd5b50610258600480360381019061025391906138ae565b610a68565b6040516102659190613a7d565b60405180910390f35b34801561027a57600080fd5b5061029560048036038101906102909190613a9f565b610bb3565b005b3480156102a357600080fd5b506102be60048036038101906102b99190613a9f565b610c13565b005b3480156102cc57600080fd5b506102e760048036038101906102e291906138ae565b610c33565b6040516102f4919061391c565b60405180910390f35b34801561030957600080fd5b50610324600480360381019061031f9190613af2565b610ce4565b6040516103319190613b2e565b60405180910390f35b34801561034657600080fd5b5061034f610d9b565b005b61036b60048036038101906103669190613b49565b610daf565b005b34801561037957600080fd5b5061038261104e565b60405161038f919061391c565b60405180910390f35b3480156103a457600080fd5b506103ad611078565b6040516103ba919061388c565b60405180910390f35b3480156103cf57600080fd5b506103ea60048036038101906103e59190613bb5565b61110a565b005b3480156103f857600080fd5b50610401611120565b005b34801561040f57600080fd5b5061042a60048036038101906104259190613c96565b6111d7565b005b34801561043857600080fd5b50610453600480360381019061044e91906138ae565b611239565b604051610460919061388c565b60405180910390f35b34801561047557600080fd5b5061047e61134b565b60405161048b9190613dc8565b60405180910390f35b3480156104a057600080fd5b506104bb60048036038101906104b69190613dea565b6113a3565b6040516104c891906135c5565b60405180910390f35b3480156104dd57600080fd5b506104e6611437565b6040516104f39190613f4f565b60405180910390f35b34801561050857600080fd5b50610523600480360381019061051e9190613af2565b6115a5565b005b60007f80ac58cd000000000000000000000000000000000000000000000000000000007bffffffffffffffffffffffffffffffffffffffffffffffffffffffff1916827bffffffffffffffffffffffffffffffffffffffffffffffffffffffff191614806105f057507f5b5e139f000000000000000000000000000000000000000000000000000000007bffffffffffffffffffffffffffffffffffffffffffffffffffffffff1916827bffffffffffffffffffffffffffffffffffffffffffffffffffffffff1916145b8061060057506105ff826116c1565b5b9050919050565b6106108361172b565b61064f576040517f08c379a000000000000000000000000000000000000000000000000000000000815260040161064690613fe3565b60405180910390fd5b60008260ff16101580156106675750600a8260ff1611155b6106a6576040517f08c379a000000000000000000000000000000000000000000000000000000000815260040161069d90614075565b60405180910390fd5b6106af83610c33565b73ffffffffffffffffffffffffffffffffffffffff163373ffffffffffffffffffffffffffffffffffffffff161461071c576040517f08c379a0000000000000000000000000000000000000000000000000000000008152600401610713906140e1565b60405180910390fd5b600b60008481526020019081526020016000206001015461073c42611797565b1161077c576040517f08c379a000000000000000000000000000000000000000000000000000000000815260040161077390614173565b60405180910390fd5b600a60405180608001604052803373ffffffffffffffffffffffffffffffffffffffff1681526020018460ff16815260200183815260200142815250908060018154018082558091505060019003906000526020600020906003020160009091909190915060008201518160000160006101000a81548173ffffffffffffffffffffffffffffffffffffffff021916908373ffffffffffffffffffffffffffffffffffffffff16021790555060208201518160000160146101000a81548160ff021916908360ff160217905550604082015181600101908161085e919061439f565b50606082015181600201555050610874836117c3565b505050565b606060008054610888906141c2565b80601f01602080910402602001604051908101604052809291908181526020018280546108b4906141c2565b80156109015780601f106108d657610100808354040283529160200191610901565b820191906000526020600020905b8154815290600101906020018083116108e457829003601f168201915b5050505050905090565b600061091682611816565b6004600083815260200190815260200160002060009054906101000a900473ffffffffffffffffffffffffffffffffffffffff169050919050565b600061095c82610c33565b90508073ffffffffffffffffffffffffffffffffffffffff168373ffffffffffffffffffffffffffffffffffffffff16036109cc576040517f08c379a00000000000000000000000000000000000000000000000000000000081526004016109c3906144e3565b60405180910390fd5b8073ffffffffffffffffffffffffffffffffffffffff166109eb611861565b73ffffffffffffffffffffffffffffffffffffffff161480610a1a5750610a1981610a14611861565b6113a3565b5b610a59576040517f08c379a0000000000000000000000000000000000000000000000000000000008152600401610a5090614575565b60405180910390fd5b610a638383611869565b505050565b610a706133fd565b600a8281548110610a8457610a83614595565b5b90600052602060002090600302016040518060800160405290816000820160009054906101000a900473ffffffffffffffffffffffffffffffffffffffff1673ffffffffffffffffffffffffffffffffffffffff1673ffffffffffffffffffffffffffffffffffffffff1681526020016000820160149054906101000a900460ff1660ff1660ff168152602001600182018054610b20906141c2565b80601f0160208091040260200160405190810160405280929190818152602001828054610b4c906141c2565b8015610b995780601f10610b6e57610100808354040283529160200191610b99565b820191906000526020600020905b815481529060010190602001808311610b7c57829003601f168201915b505050505081526020016002820154815250509050919050565b610bc4610bbe611861565b82611922565b610c03576040517f08c379a0000000000000000000000000000000000000000000000000000000008152600401610bfa90614636565b60405180910390fd5b610c0e8383836119b7565b505050565b610c2e838383604051806020016040528060008152506111d7565b505050565b6000806002600084815260200190815260200160002060009054906101000a900473ffffffffffffffffffffffffffffffffffffffff169050600073ffffffffffffffffffffffffffffffffffffffff168173ffffffffffffffffffffffffffffffffffffffff1603610cdb576040517f08c379a0000000000000000000000000000000000000000000000000000000008152600401610cd2906146a2565b60405180910390fd5b80915050919050565b60008073ffffffffffffffffffffffffffffffffffffffff168273ffffffffffffffffffffffffffffffffffffffff1603610d54576040517f08c379a0000000000000000000000000000000000000000000000000000000008152600401610d4b90614734565b60405180910390fd5b600360008373ffffffffffffffffffffffffffffffffffffffff1673ffffffffffffffffffffffffffffffffffffffff168152602001908152602001600020549050919050565b610da3611c1d565b610dad6000611c9b565b565b6000610dba42611797565b90506000610dc784611797565b90506000610dd484611797565b905081811015610e19576040517f08c379a0000000000000000000000000000000000000000000000000000000008152600401610e10906147ec565b60405180910390fd5b82821015610e5c576040517f08c379a0000000000000000000000000000000000000000000000000000000008152600401610e539061487e565b60405180910390fd5b82811015610e9f576040517f08c379a0000000000000000000000000000000000000000000000000000000008152600401610e9690614910565b60405180910390fd5b6000610eab8383611d61565b9050610eb681611e84565b610ef5576040517f08c379a0000000000000000000000000000000000000000000000000000000008152600401610eec906149a2565b60405180910390fd5b600060016018603c808787610f0a91906149f1565b610f149190614a54565b610f1e9190614a54565b610f289190614a54565b610f329190614a85565b905080662386f26fc10000610f479190614adb565b341015610f89576040517f08c379a0000000000000000000000000000000000000000000000000000000008152600401610f8090614ba7565b60405180910390fd5b610f9282611f1d565b6000610f9e6008611f81565b9050610faa3382611f8f565b604051806040016040528086815260200185815250600b600083815260200190815260200160002060008201518160000155602082015181600101559050506000610ff482611fad565b90506110008282612045565b61100a60086120b2565b7f1c05098ed1ff38e6238d2b1b04b2c7977d4c94ce651bda6473f9dba8dbf01da0338360405161103b929190614bc7565b60405180910390a1505050505050505050565b6000600760009054906101000a900473ffffffffffffffffffffffffffffffffffffffff16905090565b606060018054611087906141c2565b80601f01602080910402602001604051908101604052809291908181526020018280546110b3906141c2565b80156111005780601f106110d557610100808354040283529160200191611100565b820191906000526020600020905b8154815290600101906020018083116110e357829003601f168201915b5050505050905090565b61111c611115611861565b83836120c8565b5050565b611128611c1d565b60003373ffffffffffffffffffffffffffffffffffffffff164760405161114e90614c21565b60006040518083038185875af1925050503d806000811461118b576040519150601f19603f3d011682016040523d82523d6000602084013e611190565b606091505b50509050806111d4576040517f08c379a00000000000000000000000000000000000000000000000000000000081526004016111cb90614c82565b60405180910390fd5b50565b6111e86111e2611861565b83611922565b611227576040517f08c379a000000000000000000000000000000000000000000000000000000000815260040161121e90614636565b60405180910390fd5b61123384848484612234565b50505050565b606061124482611816565b6000600660008481526020019081526020016000208054611264906141c2565b80601f0160208091040260200160405190810160405280929190818152602001828054611290906141c2565b80156112dd5780601f106112b2576101008083540402835291602001916112dd565b820191906000526020600020905b8154815290600101906020018083116112c057829003601f168201915b5050505050905060006112ee612290565b90506000815103611303578192505050611346565b600082511115611338578082604051602001611320929190614cde565b60405160208183030381529060405292505050611346565b611341846122a7565b925050505b919050565b6060600980548060200260200160405190810160405280929190818152602001828054801561139957602002820191906000526020600020905b815481526020019060010190808311611385575b5050505050905090565b6000600560008473ffffffffffffffffffffffffffffffffffffffff1673ffffffffffffffffffffffffffffffffffffffff16815260200190815260200160002060008373ffffffffffffffffffffffffffffffffffffffff1673ffffffffffffffffffffffffffffffffffffffff16815260200190815260200160002060009054906101000a900460ff16905092915050565b6060600a805480602002602001604051908101604052809291908181526020016000905b8282101561159c57838290600052602060002090600302016040518060800160405290816000820160009054906101000a900473ffffffffffffffffffffffffffffffffffffffff1673ffffffffffffffffffffffffffffffffffffffff1673ffffffffffffffffffffffffffffffffffffffff1681526020016000820160149054906101000a900460ff1660ff1660ff168152602001600182018054611501906141c2565b80601f016020809104026020016040519081016040528092919081815260200182805461152d906141c2565b801561157a5780601f1061154f5761010080835404028352916020019161157a565b820191906000526020600020905b81548152906001019060200180831161155d57829003601f168201915b505050505081526020016002820154815250508152602001906001019061145b565b50505050905090565b6115ad611c1d565b600073ffffffffffffffffffffffffffffffffffffffff168173ffffffffffffffffffffffffffffffffffffffff160361161c576040517f08c379a000000000000000000000000000000000000000000000000000000000815260040161161390614d74565b60405180910390fd5b61162581611c9b565b50565b6116be8160405160240161163c919061388c565b6040516020818303038152906040527f41304fac000000000000000000000000000000000000000000000000000000007bffffffffffffffffffffffffffffffffffffffffffffffffffffffff19166020820180517bffffffffffffffffffffffffffffffffffffffffffffffffffffffff838183161783525050505061230f565b50565b60007f01ffc9a7000000000000000000000000000000000000000000000000000000007bffffffffffffffffffffffffffffffffffffffffffffffffffffffff1916827bffffffffffffffffffffffffffffffffffffffffffffffffffffffff1916149050919050565b60008073ffffffffffffffffffffffffffffffffffffffff166002600084815260200190815260200160002060009054906101000a900473ffffffffffffffffffffffffffffffffffffffff1673ffffffffffffffffffffffffffffffffffffffff1614159050919050565b60006117bc6117a583612338565b6117ae8461244f565b6117b785612465565b61247b565b9050919050565b6117cc81612496565b60006006600083815260200190815260200160002080546117ec906141c2565b90501461181357600660008281526020019081526020016000206000611812919061343e565b5b50565b61181f8161172b565b61185e576040517f08c379a0000000000000000000000000000000000000000000000000000000008152600401611855906146a2565b60405180910390fd5b50565b600033905090565b816004600083815260200190815260200160002060006101000a81548173ffffffffffffffffffffffffffffffffffffffff021916908373ffffffffffffffffffffffffffffffffffffffff160217905550808273ffffffffffffffffffffffffffffffffffffffff166118dc83610c33565b73ffffffffffffffffffffffffffffffffffffffff167f8c5be1e5ebec7d5bd14f71427d1e84f3dd0314c0f7b2291e5b200ac8c7c3b92560405160405180910390a45050565b60008061192e83610c33565b90508073ffffffffffffffffffffffffffffffffffffffff168473ffffffffffffffffffffffffffffffffffffffff161480611970575061196f81856113a3565b5b806119ae57508373ffffffffffffffffffffffffffffffffffffffff166119968461090b565b73ffffffffffffffffffffffffffffffffffffffff16145b91505092915050565b8273ffffffffffffffffffffffffffffffffffffffff166119d782610c33565b73ffffffffffffffffffffffffffffffffffffffff1614611a2d576040517f08c379a0000000000000000000000000000000000000000000000000000000008152600401611a2490614e06565b60405180910390fd5b600073ffffffffffffffffffffffffffffffffffffffff168273ffffffffffffffffffffffffffffffffffffffff1603611a9c576040517f08c379a0000000000000000000000000000000000000000000000000000000008152600401611a9390614e98565b60405180910390fd5b611aa78383836125b3565b611ab2600082611869565b6001600360008573ffffffffffffffffffffffffffffffffffffffff1673ffffffffffffffffffffffffffffffffffffffff1681526020019081526020016000206000828254611b0291906149f1565b925050819055506001600360008473ffffffffffffffffffffffffffffffffffffffff1673ffffffffffffffffffffffffffffffffffffffff1681526020019081526020016000206000828254611b599190614a85565b92505081905550816002600083815260200190815260200160002060006101000a81548173ffffffffffffffffffffffffffffffffffffffff021916908373ffffffffffffffffffffffffffffffffffffffff160217905550808273ffffffffffffffffffffffffffffffffffffffff168473ffffffffffffffffffffffffffffffffffffffff167fddf252ad1be2c89b69c2b068fc378daa952ba7f163c4a11628f55a4df523b3ef60405160405180910390a4611c188383836125b8565b505050565b611c25611861565b73ffffffffffffffffffffffffffffffffffffffff16611c4361104e565b73ffffffffffffffffffffffffffffffffffffffff1614611c99576040517f08c379a0000000000000000000000000000000000000000000000000000000008152600401611c9090614f04565b60405180910390fd5b565b6000600760009054906101000a900473ffffffffffffffffffffffffffffffffffffffff16905081600760006101000a81548173ffffffffffffffffffffffffffffffffffffffff021916908373ffffffffffffffffffffffffffffffffffffffff1602179055508173ffffffffffffffffffffffffffffffffffffffff168173ffffffffffffffffffffffffffffffffffffffff167f8be0079c531659141344cd1fd0a4f28419497f9722a3daafe3b4186f6b6457e060405160405180910390a35050565b6060600060016018603c808787611d7891906149f1565b611d829190614a54565b611d8c9190614a54565b611d969190614a54565b611da09190614a85565b905060008167ffffffffffffffff811115611dbe57611dbd61366a565b5b604051908082528060200260200182016040528015611dec5781602001602082028036833780820191505090505b50905060018203611e22578481600081518110611e0c57611e0b614595565b5b6020026020010181815250508092505050611e7e565b60005b82811015611e7757858510611e665785828281518110611e4857611e47614595565b5b6020026020010181815250506201518086611e639190614a85565b95505b80611e7090614f24565b9050611e25565b5080925050505b92915050565b600080600090505b8251811015611f125760005b600980549050811015611f005760098181548110611eb957611eb8614595565b5b9060005260206000200154848381518110611ed757611ed6614595565b5b602002602001015103611eef57600092505050611f18565b80611ef990614f24565b9050611e98565b5080611f0b90614f24565b9050611e8c565b50600190505b919050565b60005b8151811015611f7d576009828281518110611f3e57611f3d614595565b5b6020026020010151908060018154018082558091505060019003906000526020600020016000909190919091505580611f7690614f24565b9050611f20565b5050565b600081600001549050919050565b611fa98282604051806020016040528060008152506125bd565b5050565b606061201f611fbb83612618565b611fda600b600086815260200190815260200160002060000154612618565b611ff9600b600087815260200190815260200160002060010154612618565b60405160200161200b9392919061528d565b604051602081830303815290604052612778565b60405160200161202f919061534c565b6040516020818303038152906040529050919050565b61204e8261172b565b61208d576040517f08c379a0000000000000000000000000000000000000000000000000000000008152600401612084906153e0565b60405180910390fd5b806006600084815260200190815260200160002090816120ad919061439f565b505050565b6001816000016000828254019250508190555050565b8173ffffffffffffffffffffffffffffffffffffffff168373ffffffffffffffffffffffffffffffffffffffff1603612136576040517f08c379a000000000000000000000000000000000000000000000000000000000815260040161212d9061544c565b60405180910390fd5b80600560008573ffffffffffffffffffffffffffffffffffffffff1673ffffffffffffffffffffffffffffffffffffffff16815260200190815260200160002060008473ffffffffffffffffffffffffffffffffffffffff1673ffffffffffffffffffffffffffffffffffffffff16815260200190815260200160002060006101000a81548160ff0219169083151502179055508173ffffffffffffffffffffffffffffffffffffffff168373ffffffffffffffffffffffffffffffffffffffff167f17307eab39ab6107e8899845ad3d59bd9653f200f220920489ca2b5937696c318360405161222791906135c5565b60405180910390a3505050565b61223f8484846119b7565b61224b848484846128db565b61228a576040517f08c379a0000000000000000000000000000000000000000000000000000000008152600401612281906154de565b60405180910390fd5b50505050565b606060405180602001604052806000815250905090565b60606122b282611816565b60006122bc612290565b905060008151116122dc5760405180602001604052806000815250612307565b806122e684612618565b6040516020016122f7929190614cde565b6040516020818303038152906040525b915050919050565b60008151905060006a636f6e736f6c652e6c6f679050602083016000808483855afa5050505050565b600080600090506000806301e13380856123529190614a54565b6107b261ffff166123639190614a85565b91506123746107b261ffff16612a62565b6123818361ffff16612a62565b61238b91906149f1565b9050806301e2850061239d9190614adb565b836123a89190614a85565b9250806107b2836123b9919061550c565b61ffff166123c791906149f1565b6301e133806123d69190614adb565b836123e19190614a85565b92505b84831115612444576124016001836123fc919061550c565b612ab6565b1561241d576301e285008361241691906149f1565b9250612430565b6301e133808361242d91906149f1565b92505b60018261243d919061550c565b91506123e4565b819350505050919050565b600061245a82612b25565b602001519050919050565b600061247082612b25565b604001519050919050565b600061248d8484846000806000612d36565b90509392505050565b60006124a182610c33565b90506124af816000846125b3565b6124ba600083611869565b6001600360008373ffffffffffffffffffffffffffffffffffffffff1673ffffffffffffffffffffffffffffffffffffffff168152602001908152602001600020600082825461250a91906149f1565b925050819055506002600083815260200190815260200160002060006101000a81549073ffffffffffffffffffffffffffffffffffffffff021916905581600073ffffffffffffffffffffffffffffffffffffffff168273ffffffffffffffffffffffffffffffffffffffff167fddf252ad1be2c89b69c2b068fc378daa952ba7f163c4a11628f55a4df523b3ef60405160405180910390a46125af816000846125b8565b5050565b505050565b505050565b6125c783836130a1565b6125d460008484846128db565b612613576040517f08c379a000000000000000000000000000000000000000000000000000000000815260040161260a906154de565b60405180910390fd5b505050565b60606000820361265f576040518060400160405280600181526020017f30000000000000000000000000000000000000000000000000000000000000008152509050612773565b600082905060005b6000821461269157808061267a90614f24565b915050600a8261268a9190614a54565b9150612667565b60008167ffffffffffffffff8111156126ad576126ac61366a565b5b6040519080825280601f01601f1916602001820160405280156126df5781602001600182028036833780820191505090505b5090505b6000851461276c576001826126f891906149f1565b9150600a856127079190615540565b60306127139190614a85565b60f81b81838151811061272957612728614595565b5b60200101907effffffffffffffffffffffffffffffffffffffffffffffffffffffffffffff1916908160001a905350600a856127659190614a54565b94506126e3565b8093505050505b919050565b6060600082510361279a576040518060200160405280600081525090506128d6565b60006040518060600160405280604081526020016157e560409139905060006003600285516127c99190614a85565b6127d39190614a54565b60046127df9190614adb565b67ffffffffffffffff8111156127f8576127f761366a565b5b6040519080825280601f01601f19166020018201604052801561282a5781602001600182028036833780820191505090505b509050600182016020820185865187015b80821015612896576003820191508151603f8160121c168501518453600184019350603f81600c1c168501518453600184019350603f8160061c168501518453600184019350603f811685015184536001840193505061283b565b50506003865106600181146128b257600281146128c5576128cd565b603d6001830353603d60028303536128cd565b603d60018303535b50505080925050505b919050565b60006128fc8473ffffffffffffffffffffffffffffffffffffffff1661327a565b15612a55578373ffffffffffffffffffffffffffffffffffffffff1663150b7a02612925611861565b8786866040518563ffffffff1660e01b815260040161294794939291906155c6565b6020604051808303816000875af192505050801561298357506040513d601f19601f820116820180604052508101906129809190615627565b60015b612a05573d80600081146129b3576040519150601f19603f3d011682016040523d82523d6000602084013e6129b8565b606091505b5060008151036129fd576040517f08c379a00000000000000000000000000000000000000000000000000000000081526004016129f4906154de565b60405180910390fd5b805181602001fd5b63150b7a0260e01b7bffffffffffffffffffffffffffffffffffffffffffffffffffffffff1916817bffffffffffffffffffffffffffffffffffffffffffffffffffffffff191614915050612a5a565b600190505b949350505050565b6000600182612a7191906149f1565b915061019082612a819190614a54565b606483612a8e9190614a54565b600484612a9b9190614a54565b612aa591906149f1565b612aaf9190614a85565b9050919050565b600080600483612ac69190615654565b61ffff1614612ad85760009050612b20565b6000606483612ae79190615654565b61ffff1614612af95760019050612b20565b600061019083612b099190615654565b61ffff1614612b1b5760009050612b20565b600190505b919050565b612b2d61347e565b60008080612b3a85612338565b846000019061ffff16908161ffff1681525050612b5c6107b261ffff16612a62565b612b6d856000015161ffff16612a62565b612b7791906149f1565b9150816301e28500612b899190614adb565b83612b949190614a85565b9250816107b28560000151612ba9919061550c565b61ffff16612bb791906149f1565b6301e13380612bc69190614adb565b83612bd19190614a85565b92506000600191505b600c8260ff1611612c5157612bf382866000015161329d565b60ff1662015180612c049190614adb565b9050858482612c139190614a85565b1115612c305781856020019060ff16908160ff1681525050612c51565b8084612c3c9190614a85565b93508180612c4990615685565b925050612bda565b600191505b612c688560200151866000015161329d565b60ff168260ff1611612cc557858462015180612c849190614a85565b1115612ca15781856040019060ff16908160ff1681525050612cc5565b6201518084612cb09190614a85565b93508180612cbd90615685565b925050612c56565b612cce86613369565b856060019060ff16908160ff1681525050612ce886613396565b856080019060ff16908160ff1681525050612d02866133b7565b8560a0019060ff16908160ff1681525050612d1c866133cd565b8560c0019060ff16908160ff168152505050505050919050565b6000806107b290505b8761ffff168161ffff161015612d9a57612d5881612ab6565b15612d74576301e2850082612d6d9190614a85565b9150612d87565b6301e1338082612d849190614a85565b91505b8080612d92906156ae565b915050612d3f565b612da26134d1565b601f816000600c8110612db857612db7614595565b5b602002019060ff16908160ff1681525050612dd289612ab6565b15612e0357601d816001600c8110612ded57612dec614595565b5b602002019060ff16908160ff1681525050612e2b565b601c816001600c8110612e1957612e18614595565b5b602002019060ff16908160ff16815250505b601f816002600c8110612e4157612e40614595565b5b602002019060ff16908160ff1681525050601e816003600c8110612e6857612e67614595565b5b602002019060ff16908160ff1681525050601f816004600c8110612e8f57612e8e614595565b5b602002019060ff16908160ff1681525050601e816005600c8110612eb657612eb5614595565b5b602002019060ff16908160ff1681525050601f816006600c8110612edd57612edc614595565b5b602002019060ff16908160ff1681525050601f816007600c8110612f0457612f03614595565b5b602002019060ff16908160ff1681525050601e816008600c8110612f2b57612f2a614595565b5b602002019060ff16908160ff1681525050601f816009600c8110612f5257612f51614595565b5b602002019060ff16908160ff1681525050601e81600a600c8110612f7957612f78614595565b5b602002019060ff16908160ff1681525050601f81600b600c8110612fa057612f9f614595565b5b602002019060ff16908160ff1681525050600191505b8760ff168261ffff16101561301e5780600183612fd3919061550c565b61ffff16600c8110612fe857612fe7614595565b5b602002015160ff1662015180612ffe9190614adb565b836130099190614a85565b92508180613016906156ae565b925050612fb6565b60018761302b91906156d8565b60ff166201518061303c9190614adb565b836130479190614a85565b92508560ff16610e1061305a9190614adb565b836130659190614a85565b92508460ff16603c6130779190614adb565b836130829190614a85565b92508360ff16836130939190614a85565b925050509695505050505050565b600073ffffffffffffffffffffffffffffffffffffffff168273ffffffffffffffffffffffffffffffffffffffff1603613110576040517f08c379a000000000000000000000000000000000000000000000000000000000815260040161310790615758565b60405180910390fd5b6131198161172b565b15613159576040517f08c379a0000000000000000000000000000000000000000000000000000000008152600401613150906157c4565b60405180910390fd5b613165600083836125b3565b6001600360008473ffffffffffffffffffffffffffffffffffffffff1673ffffffffffffffffffffffffffffffffffffffff16815260200190815260200160002060008282546131b59190614a85565b92505081905550816002600083815260200190815260200160002060006101000a81548173ffffffffffffffffffffffffffffffffffffffff021916908373ffffffffffffffffffffffffffffffffffffffff160217905550808273ffffffffffffffffffffffffffffffffffffffff16600073ffffffffffffffffffffffffffffffffffffffff167fddf252ad1be2c89b69c2b068fc378daa952ba7f163c4a11628f55a4df523b3ef60405160405180910390a4613276600083836125b8565b5050565b6000808273ffffffffffffffffffffffffffffffffffffffff163b119050919050565b600060018360ff1614806132b4575060038360ff16145b806132c2575060058360ff16145b806132d0575060078360ff16145b806132de575060088360ff16145b806132ec5750600a8360ff16145b806132fa5750600c8360ff16145b1561330857601f9050613363565b60048360ff16148061331d575060068360ff16145b8061332b575060098360ff16145b806133395750600b8360ff16145b1561334757601e9050613363565b61335082612ab6565b1561335e57601d9050613363565b601c90505b92915050565b60006018603c808461337b9190614a54565b6133859190614a54565b61338f9190615540565b9050919050565b6000603c80836133a69190614a54565b6133b09190615540565b9050919050565b6000603c826133c69190615540565b9050919050565b60006007600462015180846133e29190614a54565b6133ec9190614a85565b6133f69190615540565b9050919050565b6040518060800160405280600073ffffffffffffffffffffffffffffffffffffffff168152602001600060ff16815260200160608152602001600081525090565b50805461344a906141c2565b6000825580601f1061345c575061347b565b601f01602090049060005260206000209081019061347a91906134f4565b5b50565b6040518060e00160405280600061ffff168152602001600060ff168152602001600060ff168152602001600060ff168152602001600060ff168152602001600060ff168152602001600060ff1681525090565b604051806101800160405280600c90602082028036833780820191505090505090565b5b8082111561350d5760008160009055506001016134f5565b5090565b6000604051905090565b600080fd5b600080fd5b60007fffffffff0000000000000000000000000000000000000000000000000000000082169050919050565b61355a81613525565b811461356557600080fd5b50565b60008135905061357781613551565b92915050565b6000602082840312156135935761359261351b565b5b60006135a184828501613568565b91505092915050565b60008115159050919050565b6135bf816135aa565b82525050565b60006020820190506135da60008301846135b6565b92915050565b6000819050919050565b6135f3816135e0565b81146135fe57600080fd5b50565b600081359050613610816135ea565b92915050565b600060ff82169050919050565b61362c81613616565b811461363757600080fd5b50565b60008135905061364981613623565b92915050565b600080fd5b600080fd5b6000601f19601f8301169050919050565b7f4e487b7100000000000000000000000000000000000000000000000000000000600052604160045260246000fd5b6136a282613659565b810181811067ffffffffffffffff821117156136c1576136c061366a565b5b80604052505050565b60006136d4613511565b90506136e08282613699565b919050565b600067ffffffffffffffff821115613700576136ff61366a565b5b61370982613659565b9050602081019050919050565b82818337600083830152505050565b6000613738613733846136e5565b6136ca565b90508281526020810184848401111561375457613753613654565b5b61375f848285613716565b509392505050565b600082601f83011261377c5761377b61364f565b5b813561378c848260208601613725565b91505092915050565b6000806000606084860312156137ae576137ad61351b565b5b60006137bc86828701613601565b93505060206137cd8682870161363a565b925050604084013567ffffffffffffffff8111156137ee576137ed613520565b5b6137fa86828701613767565b9150509250925092565b600081519050919050565b600082825260208201905092915050565b60005b8381101561383e578082015181840152602081019050613823565b8381111561384d576000848401525b50505050565b600061385e82613804565b613868818561380f565b9350613878818560208601613820565b61388181613659565b840191505092915050565b600060208201905081810360008301526138a68184613853565b905092915050565b6000602082840312156138c4576138c361351b565b5b60006138d284828501613601565b91505092915050565b600073ffffffffffffffffffffffffffffffffffffffff82169050919050565b6000613906826138db565b9050919050565b613916816138fb565b82525050565b6000602082019050613931600083018461390d565b92915050565b613940816138fb565b811461394b57600080fd5b50565b60008135905061395d81613937565b92915050565b6000806040838503121561397a5761397961351b565b5b60006139888582860161394e565b925050602061399985828601613601565b9150509250929050565b6139ac816138fb565b82525050565b6139bb81613616565b82525050565b600082825260208201905092915050565b60006139dd82613804565b6139e781856139c1565b93506139f7818560208601613820565b613a0081613659565b840191505092915050565b613a14816135e0565b82525050565b6000608083016000830151613a3260008601826139a3565b506020830151613a4560208601826139b2565b5060408301518482036040860152613a5d82826139d2565b9150506060830151613a726060860182613a0b565b508091505092915050565b60006020820190508181036000830152613a978184613a1a565b905092915050565b600080600060608486031215613ab857613ab761351b565b5b6000613ac68682870161394e565b9350506020613ad78682870161394e565b9250506040613ae886828701613601565b9150509250925092565b600060208284031215613b0857613b0761351b565b5b6000613b168482850161394e565b91505092915050565b613b28816135e0565b82525050565b6000602082019050613b436000830184613b1f565b92915050565b60008060408385031215613b6057613b5f61351b565b5b6000613b6e85828601613601565b9250506020613b7f85828601613601565b9150509250929050565b613b92816135aa565b8114613b9d57600080fd5b50565b600081359050613baf81613b89565b92915050565b60008060408385031215613bcc57613bcb61351b565b5b6000613bda8582860161394e565b9250506020613beb85828601613ba0565b9150509250929050565b600067ffffffffffffffff821115613c1057613c0f61366a565b5b613c1982613659565b9050602081019050919050565b6000613c39613c3484613bf5565b6136ca565b905082815260208101848484011115613c5557613c54613654565b5b613c60848285613716565b509392505050565b600082601f830112613c7d57613c7c61364f565b5b8135613c8d848260208601613c26565b91505092915050565b60008060008060808587031215613cb057613caf61351b565b5b6000613cbe8782880161394e565b9450506020613ccf8782880161394e565b9350506040613ce087828801613601565b925050606085013567ffffffffffffffff811115613d0157613d00613520565b5b613d0d87828801613c68565b91505092959194509250565b600081519050919050565b600082825260208201905092915050565b6000819050602082019050919050565b6000613d518383613a0b565b60208301905092915050565b6000602082019050919050565b6000613d7582613d19565b613d7f8185613d24565b9350613d8a83613d35565b8060005b83811015613dbb578151613da28882613d45565b9750613dad83613d5d565b925050600181019050613d8e565b5085935050505092915050565b60006020820190508181036000830152613de28184613d6a565b905092915050565b60008060408385031215613e0157613e0061351b565b5b6000613e0f8582860161394e565b9250506020613e208582860161394e565b9150509250929050565b600081519050919050565b600082825260208201905092915050565b6000819050602082019050919050565b6000608083016000830151613e6e60008601826139a3565b506020830151613e8160208601826139b2565b5060408301518482036040860152613e9982826139d2565b9150506060830151613eae6060860182613a0b565b508091505092915050565b6000613ec58383613e56565b905092915050565b6000602082019050919050565b6000613ee582613e2a565b613eef8185613e35565b935083602082028501613f0185613e46565b8060005b85811015613f3d5784840389528151613f1e8582613eb9565b9450613f2983613ecd565b925060208a01995050600181019050613f05565b50829750879550505050505092915050565b60006020820190508181036000830152613f698184613eda565b905092915050565b7f4572726f21204f20746f6b656e20696e73657269646f206e616f20657869737460008201527f652e000000000000000000000000000000000000000000000000000000000000602082015250565b6000613fcd60228361380f565b9150613fd882613f71565b604082019050919050565b60006020820190508181036000830152613ffc81613fc0565b9050919050565b7f4572726f21204f20726174696e672074656d2071756520657374617220636f6d60008201527f707265656e6469646f20656e747265203020652031302e000000000000000000602082015250565b600061405f60378361380f565b915061406a82614003565b604082019050919050565b6000602082019050818103600083015261408e81614052565b9050919050565b7f4572726f21204f20746f6b656e206e616f206c68652070657274656e63652e00600082015250565b60006140cb601f8361380f565b91506140d682614095565b602082019050919050565b600060208201905081810360008301526140fa816140be565b9050919050565b7f4572726f212041206461746120646f2066696d2064612072657365727661206160008201527f696e6461206e616f20666f6920756c747261706173736164612e000000000000602082015250565b600061415d603a8361380f565b915061416882614101565b604082019050919050565b6000602082019050818103600083015261418c81614150565b9050919050565b7f4e487b7100000000000000000000000000000000000000000000000000000000600052602260045260246000fd5b600060028204905060018216806141da57607f821691505b6020821081036141ed576141ec614193565b5b50919050565b60008190508160005260206000209050919050565b60006020601f8301049050919050565b600082821b905092915050565b6000600883026142557fffffffffffffffffffffffffffffffffffffffffffffffffffffffffffffffff82614218565b61425f8683614218565b95508019841693508086168417925050509392505050565b6000819050919050565b600061429c614297614292846135e0565b614277565b6135e0565b9050919050565b6000819050919050565b6142b683614281565b6142ca6142c2826142a3565b848454614225565b825550505050565b600090565b6142df6142d2565b6142ea8184846142ad565b505050565b5b8181101561430e576143036000826142d7565b6001810190506142f0565b5050565b601f82111561435357614324816141f3565b61432d84614208565b8101602085101561433c578190505b61435061434885614208565b8301826142ef565b50505b505050565b600082821c905092915050565b600061437660001984600802614358565b1980831691505092915050565b600061438f8383614365565b9150826002028217905092915050565b6143a882613804565b67ffffffffffffffff8111156143c1576143c061366a565b5b6143cb82546141c2565b6143d6828285614312565b600060209050601f83116001811461440957600084156143f7578287015190505b6144018582614383565b865550614469565b601f198416614417866141f3565b60005b8281101561443f5784890151825560018201915060208501945060208101905061441a565b8683101561445c5784890151614458601f891682614365565b8355505b6001600288020188555050505b505050505050565b7f4552433732313a20617070726f76616c20746f2063757272656e74206f776e6560008201527f7200000000000000000000000000000000000000000000000000000000000000602082015250565b60006144cd60218361380f565b91506144d882614471565b604082019050919050565b600060208201905081810360008301526144fc816144c0565b9050919050565b7f4552433732313a20617070726f76652063616c6c6572206973206e6f7420746f60008201527f6b656e206f776e6572206e6f7220617070726f76656420666f7220616c6c0000602082015250565b600061455f603e8361380f565b915061456a82614503565b604082019050919050565b6000602082019050818103600083015261458e81614552565b9050919050565b7f4e487b7100000000000000000000000000000000000000000000000000000000600052603260045260246000fd5b7f4552433732313a2063616c6c6572206973206e6f7420746f6b656e206f776e6560008201527f72206e6f7220617070726f766564000000000000000000000000000000000000602082015250565b6000614620602e8361380f565b915061462b826145c4565b604082019050919050565b6000602082019050818103600083015261464f81614613565b9050919050565b7f4552433732313a20696e76616c696420746f6b656e2049440000000000000000600082015250565b600061468c60188361380f565b915061469782614656565b602082019050919050565b600060208201905081810360008301526146bb8161467f565b9050919050565b7f4552433732313a2061646472657373207a65726f206973206e6f74206120766160008201527f6c6964206f776e65720000000000000000000000000000000000000000000000602082015250565b600061471e60298361380f565b9150614729826146c2565b604082019050919050565b6000602082019050818103600083015261474d81614711565b9050919050565b7f4572726f212041206461746120646520696e6963696f206e616f20706f64652060008201527f73657220706f73746572696f72206120646f2066696d2064612072657365727660208201527f612e000000000000000000000000000000000000000000000000000000000000604082015250565b60006147d660428361380f565b91506147e182614754565b606082019050919050565b60006020820190508181036000830152614805816147c9565b9050919050565b7f4572726f212041206461746120646520696e6963696f2064612072657365727660008201527f61206a6120666f6920756c747261706173736164612e00000000000000000000602082015250565b600061486860368361380f565b91506148738261480c565b604082019050919050565b600060208201905081810360008301526148978161485b565b9050919050565b7f4572726f212041206461746120646f2066696d2064612072657365727661206a60008201527f6120666f6920756c747261706173736164612e00000000000000000000000000602082015250565b60006148fa60338361380f565b91506149058261489e565b604082019050919050565b60006020820190508181036000830152614929816148ed565b9050919050565b7f4572726f2120496e66656c697a6d656e7465206173206461746173206573636f60008201527f6c6869646173206a6120657374616f206f637570616461732e00000000000000602082015250565b600061498c60398361380f565b915061499782614930565b604082019050919050565b600060208201905081810360008301526149bb8161497f565b9050919050565b7f4e487b7100000000000000000000000000000000000000000000000000000000600052601160045260246000fd5b60006149fc826135e0565b9150614a07836135e0565b925082821015614a1a57614a196149c2565b5b828203905092915050565b7f4e487b7100000000000000000000000000000000000000000000000000000000600052601260045260246000fd5b6000614a5f826135e0565b9150614a6a836135e0565b925082614a7a57614a79614a25565b5b828204905092915050565b6000614a90826135e0565b9150614a9b836135e0565b9250827fffffffffffffffffffffffffffffffffffffffffffffffffffffffffffffffff03821115614ad057614acf6149c2565b5b828201905092915050565b6000614ae6826135e0565b9150614af1836135e0565b9250817fffffffffffffffffffffffffffffffffffffffffffffffffffffffffffffffff0483118215151615614b2a57614b296149c2565b5b828202905092915050565b7f4572726f21204f20706167616d656e746f206e616f20666f692062656d20737560008201527f63656469646f2e2054656e7465206e6f76616d656e74652e0000000000000000602082015250565b6000614b9160388361380f565b9150614b9c82614b35565b604082019050919050565b60006020820190508181036000830152614bc081614b84565b9050919050565b6000604082019050614bdc600083018561390d565b614be96020830184613b1f565b9392505050565b600081905092915050565b50565b6000614c0b600083614bf0565b9150614c1682614bfb565b600082019050919050565b6000614c2c82614bfe565b9150819050919050565b7f41207472616e73666572656e6369612066616c686f752e000000000000000000600082015250565b6000614c6c60178361380f565b9150614c7782614c36565b602082019050919050565b60006020820190508181036000830152614c9b81614c5f565b9050919050565b600081905092915050565b6000614cb882613804565b614cc28185614ca2565b9350614cd2818560208601613820565b80840191505092915050565b6000614cea8285614cad565b9150614cf68284614cad565b91508190509392505050565b7f4f776e61626c653a206e6577206f776e657220697320746865207a65726f206160008201527f6464726573730000000000000000000000000000000000000000000000000000602082015250565b6000614d5e60268361380f565b9150614d6982614d02565b604082019050919050565b60006020820190508181036000830152614d8d81614d51565b9050919050565b7f4552433732313a207472616e736665722066726f6d20696e636f72726563742060008201527f6f776e6572000000000000000000000000000000000000000000000000000000602082015250565b6000614df060258361380f565b9150614dfb82614d94565b604082019050919050565b60006020820190508181036000830152614e1f81614de3565b9050919050565b7f4552433732313a207472616e7366657220746f20746865207a65726f2061646460008201527f7265737300000000000000000000000000000000000000000000000000000000602082015250565b6000614e8260248361380f565b9150614e8d82614e26565b604082019050919050565b60006020820190508181036000830152614eb181614e75565b9050919050565b7f4f776e61626c653a2063616c6c6572206973206e6f7420746865206f776e6572600082015250565b6000614eee60208361380f565b9150614ef982614eb8565b602082019050919050565b60006020820190508181036000830152614f1d81614ee1565b9050919050565b6000614f2f826135e0565b91507fffffffffffffffffffffffffffffffffffffffffffffffffffffffffffffffff8203614f6157614f606149c2565b5b600182019050919050565b7f7b226e616d65223a2252656e744d7941706172746d656e742023000000000000600082015250565b6000614fa2601a83614ca2565b9150614fad82614f6c565b601a82019050919050565b7f222c20226465736372697074696f6e223a225468616e6b20796f7520666f722060008201527f63686f6f73696e6720757320666f7220796f757220726563656e74207374617960208201527f20696e20506f72746f2e205765206c6f6f6b20666f727761726420746f20776560408201527f6c636f6d696e6720796f7521222c2022696d616765223a2268747470733a2f2f60608201527f697066732e696f2f697066732f516d574d485a583175474e70724c436f58557160808201527f684867324d55447744354d6e7a705866634b325639673557685767222c20226160a08201527f747472696275746573223a5b7b22646973706c61795f74797065223a2022646160c08201527f7465222c202274726169745f74797065223a20227374617274222c202276616c60e08201527f7565223a0000000000000000000000000000000000000000000000000000000061010082015250565b600061512061010483614ca2565b915061512b82614fb8565b61010482019050919050565b7f7d2c000000000000000000000000000000000000000000000000000000000000600082015250565b600061516d600283614ca2565b915061517882615137565b600282019050919050565b7f7b22646973706c61795f74797065223a202264617465222c202274726169745f60008201527f74797065223a2022656e64222c202276616c7565223a00000000000000000000602082015250565b60006151df603683614ca2565b91506151ea82615183565b603682019050919050565b7f7d00000000000000000000000000000000000000000000000000000000000000600082015250565b600061522b600183614ca2565b9150615236826151f5565b600182019050919050565b7f5d7d000000000000000000000000000000000000000000000000000000000000600082015250565b6000615277600283614ca2565b915061528282615241565b600282019050919050565b600061529882614f95565b91506152a48286614cad565b91506152af82615112565b91506152bb8285614cad565b91506152c682615160565b91506152d1826151d2565b91506152dd8284614cad565b91506152e88261521e565b91506152f38261526a565b9150819050949350505050565b7f646174613a6170706c69636174696f6e2f6a736f6e3b6261736536342c000000600082015250565b6000615336601d83614ca2565b915061534182615300565b601d82019050919050565b600061535782615329565b91506153638284614cad565b915081905092915050565b7f45524337323155524953746f726167653a2055524920736574206f66206e6f6e60008201527f6578697374656e7420746f6b656e000000000000000000000000000000000000602082015250565b60006153ca602e8361380f565b91506153d58261536e565b604082019050919050565b600060208201905081810360008301526153f9816153bd565b9050919050565b7f4552433732313a20617070726f766520746f2063616c6c657200000000000000600082015250565b600061543660198361380f565b915061544182615400565b602082019050919050565b6000602082019050818103600083015261546581615429565b9050919050565b7f4552433732313a207472616e7366657220746f206e6f6e20455243373231526560008201527f63656976657220696d706c656d656e7465720000000000000000000000000000602082015250565b60006154c860328361380f565b91506154d38261546c565b604082019050919050565b600060208201905081810360008301526154f7816154bb565b9050919050565b600061ffff82169050919050565b6000615517826154fe565b9150615522836154fe565b925082821015615535576155346149c2565b5b828203905092915050565b600061554b826135e0565b9150615556836135e0565b92508261556657615565614a25565b5b828206905092915050565b600081519050919050565b600082825260208201905092915050565b600061559882615571565b6155a2818561557c565b93506155b2818560208601613820565b6155bb81613659565b840191505092915050565b60006080820190506155db600083018761390d565b6155e8602083018661390d565b6155f56040830185613b1f565b8181036060830152615607818461558d565b905095945050505050565b60008151905061562181613551565b92915050565b60006020828403121561563d5761563c61351b565b5b600061564b84828501615612565b91505092915050565b600061565f826154fe565b915061566a836154fe565b92508261567a57615679614a25565b5b828206905092915050565b600061569082613616565b915060ff82036156a3576156a26149c2565b5b600182019050919050565b60006156b9826154fe565b915061ffff82036156cd576156cc6149c2565b5b600182019050919050565b60006156e382613616565b91506156ee83613616565b925082821015615701576157006149c2565b5b828203905092915050565b7f4552433732313a206d696e7420746f20746865207a65726f2061646472657373600082015250565b600061574260208361380f565b915061574d8261570c565b602082019050919050565b6000602082019050818103600083015261577181615735565b9050919050565b7f4552433732313a20746f6b656e20616c7265616479206d696e74656400000000600082015250565b60006157ae601c8361380f565b91506157b982615778565b602082019050919050565b600060208201905081810360008301526157dd816157a1565b905091905056fe4142434445464748494a4b4c4d4e4f505152535455565758595a6162636465666768696a6b6c6d6e6f707172737475767778797a303132333435363738392b2fa2646970667358221220dbebc7acb35c6cd426e82d55e687a6a1643d05aedc1f83958b5b4adcdfcd065664736f6c634300080f0033",
  "linkReferences": {},
  "deployedLinkReferences": {}
}