{
  "_format": "hh-sol-artifact-1",
  "contractName": "RentMyApartment",
  "sourceName": "contracts/RentMyApartment.sol",
  "abi": [
    {
      "inputs": [],
      "stateMutability": "nonpayable",
      "type": "constructor"
    },
    {
      "anonymous": false,
      "inputs": [
        {
          "indexed": true,
          "internalType": "address",
          "name": "owner",
          "type": "address"
        },
        {
          "indexed": true,
          "internalType": "address",
          "name": "approved",
          "type": "address"
        },
        {
          "indexed": true,
          "internalType": "uint256",
          "name": "tokenId",
          "type": "uint256"
        }
      ],
      "name": "Approval",
      "type": "event"
    },
    {
      "anonymous": false,
      "inputs": [
        {
          "indexed": true,
          "internalType": "address",
          "name": "owner",
          "type": "address"
        },
        {
          "indexed": true,
          "internalType": "address",
          "name": "operator",
          "type": "address"
        },
        {
          "indexed": false,
          "internalType": "bool",
          "name": "approved",
          "type": "bool"
        }
      ],
      "name": "ApprovalForAll",
      "type": "event"
    },
    {
      "anonymous": false,
      "inputs": [
        {
          "indexed": false,
          "internalType": "address",
          "name": "sender",
          "type": "address"
        },
        {
          "indexed": false,
          "internalType": "uint256",
          "name": "tokenId",
          "type": "uint256"
        }
      ],
      "name": "NewNFTMinted",
      "type": "event"
    },
    {
      "anonymous": false,
      "inputs": [
        {
          "indexed": true,
          "internalType": "address",
          "name": "from",
          "type": "address"
        },
        {
          "indexed": true,
          "internalType": "address",
          "name": "to",
          "type": "address"
        },
        {
          "indexed": true,
          "internalType": "uint256",
          "name": "tokenId",
          "type": "uint256"
        }
      ],
      "name": "Transfer",
      "type": "event"
    },
    {
      "inputs": [
        {
          "internalType": "address",
          "name": "to",
          "type": "address"
        },
        {
          "internalType": "uint256",
          "name": "tokenId",
          "type": "uint256"
        }
      ],
      "name": "approve",
      "outputs": [],
      "stateMutability": "nonpayable",
      "type": "function"
    },
    {
      "inputs": [
        {
          "internalType": "address",
          "name": "owner",
          "type": "address"
        }
      ],
      "name": "balanceOf",
      "outputs": [
        {
          "internalType": "uint256",
          "name": "",
          "type": "uint256"
        }
      ],
      "stateMutability": "view",
      "type": "function"
    },
    {
      "inputs": [],
      "name": "getAllRatings",
      "outputs": [
        {
          "components": [
            {
              "internalType": "address",
              "name": "user",
              "type": "address"
            },
            {
              "internalType": "uint8",
              "name": "rating",
              "type": "uint8"
            },
            {
              "internalType": "string",
              "name": "message",
              "type": "string"
            },
            {
              "internalType": "uint256",
              "name": "timestamp",
              "type": "uint256"
            }
          ],
          "internalType": "struct RentMyApartment.Rating[]",
          "name": "",
          "type": "tuple[]"
        }
      ],
      "stateMutability": "view",
      "type": "function"
    },
    {
      "inputs": [
        {
          "internalType": "uint256",
          "name": "tokenId",
          "type": "uint256"
        }
      ],
      "name": "getApproved",
      "outputs": [
        {
          "internalType": "address",
          "name": "",
          "type": "address"
        }
      ],
      "stateMutability": "view",
      "type": "function"
    },
    {
      "inputs": [
        {
          "internalType": "uint256",
          "name": "_id",
          "type": "uint256"
        }
      ],
      "name": "getSpecificRating",
      "outputs": [
        {
          "components": [
            {
              "internalType": "address",
              "name": "user",
              "type": "address"
            },
            {
              "internalType": "uint8",
              "name": "rating",
              "type": "uint8"
            },
            {
              "internalType": "string",
              "name": "message",
              "type": "string"
            },
            {
              "internalType": "uint256",
              "name": "timestamp",
              "type": "uint256"
            }
          ],
          "internalType": "struct RentMyApartment.Rating",
          "name": "",
          "type": "tuple"
        }
      ],
      "stateMutability": "view",
      "type": "function"
    },
    {
      "inputs": [],
      "name": "getUnavailableDates",
      "outputs": [
        {
          "internalType": "uint256[]",
          "name": "",
          "type": "uint256[]"
        }
      ],
      "stateMutability": "view",
      "type": "function"
    },
    {
      "inputs": [
        {
          "internalType": "address",
          "name": "owner",
          "type": "address"
        },
        {
          "internalType": "address",
          "name": "operator",
          "type": "address"
        }
      ],
      "name": "isApprovedForAll",
      "outputs": [
        {
          "internalType": "bool",
          "name": "",
          "type": "bool"
        }
      ],
      "stateMutability": "view",
      "type": "function"
    },
    {
      "inputs": [],
      "name": "name",
      "outputs": [
        {
          "internalType": "string",
          "name": "",
          "type": "string"
        }
      ],
      "stateMutability": "view",
      "type": "function"
    },
    {
      "inputs": [
        {
          "internalType": "uint256",
          "name": "tokenId",
          "type": "uint256"
        }
      ],
      "name": "ownerOf",
      "outputs": [
        {
          "internalType": "address",
          "name": "",
          "type": "address"
        }
      ],
      "stateMutability": "view",
      "type": "function"
    },
    {
      "inputs": [
        {
          "internalType": "uint256",
          "name": "_tokenId",
          "type": "uint256"
        },
        {
          "internalType": "uint8",
          "name": "_rating",
          "type": "uint8"
        },
        {
          "internalType": "string",
          "name": "_message",
          "type": "string"
        }
      ],
      "name": "rate",
      "outputs": [],
      "stateMutability": "nonpayable",
      "type": "function"
    },
    {
      "inputs": [
        {
          "internalType": "uint256",
          "name": "_startDate",
          "type": "uint256"
        },
        {
          "internalType": "uint256",
          "name": "_endDate",
          "type": "uint256"
        }
      ],
      "name": "rent",
      "outputs": [],
      "stateMutability": "nonpayable",
      "type": "function"
    },
    {
      "inputs": [
        {
          "internalType": "address",
          "name": "from",
          "type": "address"
        },
        {
          "internalType": "address",
          "name": "to",
          "type": "address"
        },
        {
          "internalType": "uint256",
          "name": "tokenId",
          "type": "uint256"
        }
      ],
      "name": "safeTransferFrom",
      "outputs": [],
      "stateMutability": "nonpayable",
      "type": "function"
    },
    {
      "inputs": [
        {
          "internalType": "address",
          "name": "from",
          "type": "address"
        },
        {
          "internalType": "address",
          "name": "to",
          "type": "address"
        },
        {
          "internalType": "uint256",
          "name": "tokenId",
          "type": "uint256"
        },
        {
          "internalType": "bytes",
          "name": "_data",
          "type": "bytes"
        }
      ],
      "name": "safeTransferFrom",
      "outputs": [],
      "stateMutability": "nonpayable",
      "type": "function"
    },
    {
      "inputs": [
        {
          "internalType": "address",
          "name": "operator",
          "type": "address"
        },
        {
          "internalType": "bool",
          "name": "approved",
          "type": "bool"
        }
      ],
      "name": "setApprovalForAll",
      "outputs": [],
      "stateMutability": "nonpayable",
      "type": "function"
    },
    {
      "inputs": [
        {
          "internalType": "bytes4",
          "name": "interfaceId",
          "type": "bytes4"
        }
      ],
      "name": "supportsInterface",
      "outputs": [
        {
          "internalType": "bool",
          "name": "",
          "type": "bool"
        }
      ],
      "stateMutability": "view",
      "type": "function"
    },
    {
      "inputs": [],
      "name": "symbol",
      "outputs": [
        {
          "internalType": "string",
          "name": "",
          "type": "string"
        }
      ],
      "stateMutability": "view",
      "type": "function"
    },
    {
      "inputs": [
        {
          "internalType": "uint256",
          "name": "tokenId",
          "type": "uint256"
        }
      ],
      "name": "tokenURI",
      "outputs": [
        {
          "internalType": "string",
          "name": "",
          "type": "string"
        }
      ],
      "stateMutability": "view",
      "type": "function"
    },
    {
      "inputs": [
        {
          "internalType": "address",
          "name": "from",
          "type": "address"
        },
        {
          "internalType": "address",
          "name": "to",
          "type": "address"
        },
        {
          "internalType": "uint256",
          "name": "tokenId",
          "type": "uint256"
        }
      ],
      "name": "transferFrom",
      "outputs": [],
      "stateMutability": "nonpayable",
      "type": "function"
    }
  ],
  "bytecode": "0x60806040523480156200001157600080fd5b506040518060400160405280600f81526020017f52656e744d7941706172746d656e7400000000000000000000000000000000008152506040518060400160405280600481526020017f52454e540000000000000000000000000000000000000000000000000000000081525081600090816200008f91906200043b565b508060019081620000a191906200043b565b505050620000ef6040518060400160405280600c81526020017f436f6e7374727563746f722e0000000000000000000000000000000000000000815250620000f560201b620013301760201c565b620005df565b62000195816040516024016200010c9190620005bb565b6040516020818303038152906040527f41304fac000000000000000000000000000000000000000000000000000000007bffffffffffffffffffffffffffffffffffffffffffffffffffffffff19166020820180517bffffffffffffffffffffffffffffffffffffffffffffffffffffffff83818316178352505050506200019860201b60201c565b50565b60008151905060006a636f6e736f6c652e6c6f679050602083016000808483855afa5050505050565b600081519050919050565b7f4e487b7100000000000000000000000000000000000000000000000000000000600052604160045260246000fd5b7f4e487b7100000000000000000000000000000000000000000000000000000000600052602260045260246000fd5b600060028204905060018216806200024357607f821691505b602082108103620002595762000258620001fb565b5b50919050565b60008190508160005260206000209050919050565b60006020601f8301049050919050565b600082821b905092915050565b600060088302620002c37fffffffffffffffffffffffffffffffffffffffffffffffffffffffffffffffff8262000284565b620002cf868362000284565b95508019841693508086168417925050509392505050565b6000819050919050565b6000819050919050565b60006200031c620003166200031084620002e7565b620002f1565b620002e7565b9050919050565b6000819050919050565b6200033883620002fb565b62000350620003478262000323565b84845462000291565b825550505050565b600090565b6200036762000358565b620003748184846200032d565b505050565b5b818110156200039c57620003906000826200035d565b6001810190506200037a565b5050565b601f821115620003eb57620003b5816200025f565b620003c08462000274565b81016020851015620003d0578190505b620003e8620003df8562000274565b83018262000379565b50505b505050565b600082821c905092915050565b60006200041060001984600802620003f0565b1980831691505092915050565b60006200042b8383620003fd565b9150826002028217905092915050565b6200044682620001c1565b67ffffffffffffffff811115620004625762000461620001cc565b5b6200046e82546200022a565b6200047b828285620003a0565b600060209050601f831160018114620004b357600084156200049e578287015190505b620004aa85826200041d565b8655506200051a565b601f198416620004c3866200025f565b60005b82811015620004ed57848901518255600182019150602085019450602081019050620004c6565b868310156200050d578489015162000509601f891682620003fd565b8355505b6001600288020188555050505b505050505050565b600082825260208201905092915050565b60005b838110156200055357808201518184015260208101905062000536565b8381111562000563576000848401525b50505050565b6000601f19601f8301169050919050565b60006200058782620001c1565b62000593818562000522565b9350620005a581856020860162000533565b620005b08162000569565b840191505092915050565b60006020820190508181036000830152620005d781846200057a565b905092915050565b61547b80620005ef6000396000f3fe608060405234801561001057600080fd5b50600436106101165760003560e01c806370a08231116100a2578063b88d4fde11610071578063b88d4fde146102ef578063c87b56dd1461030b578063c9aeedfc1461033b578063e985e9c514610359578063eac977c41461038957610116565b806370a0823114610269578063783a112b1461029957806395d89b41146102b5578063a22cb465146102d357610116565b8063095ea7b3116100e9578063095ea7b3146101b55780631e03fd1a146101d157806323b872dd1461020157806342842e0e1461021d5780636352211e1461023957610116565b806301ffc9a71461011b57806302ece06f1461014b57806306fdde0314610167578063081812fc14610185575b600080fd5b61013560048036038101906101309190613172565b6103a7565b60405161014291906131ba565b60405180910390f35b6101656004803603810190610160919061338a565b610489565b005b61016f6106e5565b60405161017c9190613481565b60405180910390f35b61019f600480360381019061019a91906134a3565b610777565b6040516101ac9190613511565b60405180910390f35b6101cf60048036038101906101ca9190613558565b6107fc565b005b6101eb60048036038101906101e691906134a3565b610913565b6040516101f89190613672565b60405180910390f35b61021b60048036038101906102169190613694565b610a5e565b005b61023760048036038101906102329190613694565b610abe565b005b610253600480360381019061024e91906134a3565b610ade565b6040516102609190613511565b60405180910390f35b610283600480360381019061027e91906136e7565b610b8f565b6040516102909190613723565b60405180910390f35b6102b360048036038101906102ae919061373e565b610c46565b005b6102bd610e7b565b6040516102ca9190613481565b60405180910390f35b6102ed60048036038101906102e891906137aa565b610f0d565b005b6103096004803603810190610304919061388b565b610f23565b005b610325600480360381019061032091906134a3565b610f85565b6040516103329190613481565b60405180910390f35b6103436110d6565b60405161035091906139bd565b60405180910390f35b610373600480360381019061036e91906139df565b61112e565b60405161038091906131ba565b60405180910390f35b6103916111c2565b60405161039e9190613b44565b60405180910390f35b60007f80ac58cd000000000000000000000000000000000000000000000000000000007bffffffffffffffffffffffffffffffffffffffffffffffffffffffff1916827bffffffffffffffffffffffffffffffffffffffffffffffffffffffff1916148061047257507f5b5e139f000000000000000000000000000000000000000000000000000000007bffffffffffffffffffffffffffffffffffffffffffffffffffffffff1916827bffffffffffffffffffffffffffffffffffffffffffffffffffffffff1916145b806104825750610481826113c9565b5b9050919050565b61049283611433565b6104d1576040517f08c379a00000000000000000000000000000000000000000000000000000000081526004016104c890613bd8565b60405180910390fd5b60008260ff16101580156104e95750600a8260ff1611155b610528576040517f08c379a000000000000000000000000000000000000000000000000000000000815260040161051f90613c6a565b60405180910390fd5b61053183610ade565b73ffffffffffffffffffffffffffffffffffffffff163373ffffffffffffffffffffffffffffffffffffffff161461059e576040517f08c379a000000000000000000000000000000000000000000000000000000000815260040161059590613cd6565b60405180910390fd5b6105a78361149f565b42116105e8576040517f08c379a00000000000000000000000000000000000000000000000000000000081526004016105df90613d68565b60405180910390fd5b600960405180608001604052803373ffffffffffffffffffffffffffffffffffffffff1681526020018460ff16815260200183815260200142815250908060018154018082558091505060019003906000526020600020906003020160009091909190915060008201518160000160006101000a81548173ffffffffffffffffffffffffffffffffffffffff021916908373ffffffffffffffffffffffffffffffffffffffff16021790555060208201518160000160146101000a81548160ff021916908360ff16021790555060408201518160010190816106ca9190613f94565b506060820151816002015550506106e0836114bf565b505050565b6060600080546106f490613db7565b80601f016020809104026020016040519081016040528092919081815260200182805461072090613db7565b801561076d5780601f106107425761010080835404028352916020019161076d565b820191906000526020600020905b81548152906001019060200180831161075057829003601f168201915b5050505050905090565b600061078282611433565b6107c1576040517f08c379a00000000000000000000000000000000000000000000000000000000081526004016107b8906140d8565b60405180910390fd5b6004600083815260200190815260200160002060009054906101000a900473ffffffffffffffffffffffffffffffffffffffff169050919050565b600061080782610ade565b90508073ffffffffffffffffffffffffffffffffffffffff168373ffffffffffffffffffffffffffffffffffffffff1603610877576040517f08c379a000000000000000000000000000000000000000000000000000000000815260040161086e9061416a565b60405180910390fd5b8073ffffffffffffffffffffffffffffffffffffffff16610896611512565b73ffffffffffffffffffffffffffffffffffffffff1614806108c557506108c4816108bf611512565b61112e565b5b610904576040517f08c379a00000000000000000000000000000000000000000000000000000000081526004016108fb906141fc565b60405180910390fd5b61090e838361151a565b505050565b61091b612ff2565b6009828154811061092f5761092e61421c565b5b90600052602060002090600302016040518060800160405290816000820160009054906101000a900473ffffffffffffffffffffffffffffffffffffffff1673ffffffffffffffffffffffffffffffffffffffff1673ffffffffffffffffffffffffffffffffffffffff1681526020016000820160149054906101000a900460ff1660ff1660ff1681526020016001820180546109cb90613db7565b80601f01602080910402602001604051908101604052809291908181526020018280546109f790613db7565b8015610a445780601f10610a1957610100808354040283529160200191610a44565b820191906000526020600020905b815481529060010190602001808311610a2757829003601f168201915b505050505081526020016002820154815250509050919050565b610a6f610a69611512565b826115d3565b610aae576040517f08c379a0000000000000000000000000000000000000000000000000000000008152600401610aa5906142bd565b60405180910390fd5b610ab98383836116b1565b505050565b610ad983838360405180602001604052806000815250610f23565b505050565b6000806002600084815260200190815260200160002060009054906101000a900473ffffffffffffffffffffffffffffffffffffffff169050600073ffffffffffffffffffffffffffffffffffffffff168173ffffffffffffffffffffffffffffffffffffffff1603610b86576040517f08c379a0000000000000000000000000000000000000000000000000000000008152600401610b7d9061434f565b60405180910390fd5b80915050919050565b60008073ffffffffffffffffffffffffffffffffffffffff168273ffffffffffffffffffffffffffffffffffffffff1603610bff576040517f08c379a0000000000000000000000000000000000000000000000000000000008152600401610bf6906143e1565b60405180910390fd5b600360008373ffffffffffffffffffffffffffffffffffffffff1673ffffffffffffffffffffffffffffffffffffffff168152602001908152602001600020549050919050565b42821015610c89576040517f08c379a0000000000000000000000000000000000000000000000000000000008152600401610c8090614473565b60405180910390fd5b428111610ccb576040517f08c379a0000000000000000000000000000000000000000000000000000000008152600401610cc290614505565b60405180910390fd5b818111610d0d576040517f08c379a0000000000000000000000000000000000000000000000000000000008152600401610d04906145bd565b60405180910390fd5b6000610d32610d1b84611917565b610d2485611a2e565b610d2d86611a44565b611a5a565b90506000610d59610d4284611917565b610d4b85611a2e565b610d5486611a44565b611a5a565b90506000610d678383611a75565b905060011515610d7682611b98565b151514610db8576040517f08c379a0000000000000000000000000000000000000000000000000000000008152600401610daf9061464f565b60405180910390fd5b610dc181611c31565b6000610dcd6007611c95565b9050610dd93382611ca3565b604051806040016040528085815260200184815250600a600083815260200190815260200160002060008201518160000155602082015181600101559050506000610e2382611cc1565b9050610e2f8282611d59565b610e396007611dc6565b7f1c05098ed1ff38e6238d2b1b04b2c7977d4c94ce651bda6473f9dba8dbf01da03383604051610e6a92919061466f565b60405180910390a150505050505050565b606060018054610e8a90613db7565b80601f0160208091040260200160405190810160405280929190818152602001828054610eb690613db7565b8015610f035780601f10610ed857610100808354040283529160200191610f03565b820191906000526020600020905b815481529060010190602001808311610ee657829003601f168201915b5050505050905090565b610f1f610f18611512565b8383611ddc565b5050565b610f34610f2e611512565b836115d3565b610f73576040517f08c379a0000000000000000000000000000000000000000000000000000000008152600401610f6a906142bd565b60405180910390fd5b610f7f84848484611f48565b50505050565b6060610f9082611433565b610fcf576040517f08c379a0000000000000000000000000000000000000000000000000000000008152600401610fc69061470a565b60405180910390fd5b6000600660008481526020019081526020016000208054610fef90613db7565b80601f016020809104026020016040519081016040528092919081815260200182805461101b90613db7565b80156110685780601f1061103d57610100808354040283529160200191611068565b820191906000526020600020905b81548152906001019060200180831161104b57829003601f168201915b505050505090506000611079611fa4565b9050600081510361108e5781925050506110d1565b6000825111156110c35780826040516020016110ab929190614766565b604051602081830303815290604052925050506110d1565b6110cc84611fbb565b925050505b919050565b6060600880548060200260200160405190810160405280929190818152602001828054801561112457602002820191906000526020600020905b815481526020019060010190808311611110575b5050505050905090565b6000600560008473ffffffffffffffffffffffffffffffffffffffff1673ffffffffffffffffffffffffffffffffffffffff16815260200190815260200160002060008373ffffffffffffffffffffffffffffffffffffffff1673ffffffffffffffffffffffffffffffffffffffff16815260200190815260200160002060009054906101000a900460ff16905092915050565b60606009805480602002602001604051908101604052809291908181526020016000905b8282101561132757838290600052602060002090600302016040518060800160405290816000820160009054906101000a900473ffffffffffffffffffffffffffffffffffffffff1673ffffffffffffffffffffffffffffffffffffffff1673ffffffffffffffffffffffffffffffffffffffff1681526020016000820160149054906101000a900460ff1660ff1660ff16815260200160018201805461128c90613db7565b80601f01602080910402602001604051908101604052809291908181526020018280546112b890613db7565b80156113055780601f106112da57610100808354040283529160200191611305565b820191906000526020600020905b8154815290600101906020018083116112e857829003601f168201915b50505050508152602001600282015481525050815260200190600101906111e6565b50505050905090565b6113c6816040516024016113449190613481565b6040516020818303038152906040527f41304fac000000000000000000000000000000000000000000000000000000007bffffffffffffffffffffffffffffffffffffffffffffffffffffffff19166020820180517bffffffffffffffffffffffffffffffffffffffffffffffffffffffff8381831617835250505050612062565b50565b60007f01ffc9a7000000000000000000000000000000000000000000000000000000007bffffffffffffffffffffffffffffffffffffffffffffffffffffffff1916827bffffffffffffffffffffffffffffffffffffffffffffffffffffffff1916149050919050565b60008073ffffffffffffffffffffffffffffffffffffffff166002600084815260200190815260200160002060009054906101000a900473ffffffffffffffffffffffffffffffffffffffff1673ffffffffffffffffffffffffffffffffffffffff1614159050919050565b6000600a6000838152602001908152602001600020600101549050919050565b6114c88161208b565b60006006600083815260200190815260200160002080546114e890613db7565b90501461150f5760066000828152602001908152602001600020600061150e9190613033565b5b50565b600033905090565b816004600083815260200190815260200160002060006101000a81548173ffffffffffffffffffffffffffffffffffffffff021916908373ffffffffffffffffffffffffffffffffffffffff160217905550808273ffffffffffffffffffffffffffffffffffffffff1661158d83610ade565b73ffffffffffffffffffffffffffffffffffffffff167f8c5be1e5ebec7d5bd14f71427d1e84f3dd0314c0f7b2291e5b200ac8c7c3b92560405160405180910390a45050565b60006115de82611433565b61161d576040517f08c379a0000000000000000000000000000000000000000000000000000000008152600401611614906147fc565b60405180910390fd5b600061162883610ade565b90508073ffffffffffffffffffffffffffffffffffffffff168473ffffffffffffffffffffffffffffffffffffffff16148061166a5750611669818561112e565b5b806116a857508373ffffffffffffffffffffffffffffffffffffffff1661169084610777565b73ffffffffffffffffffffffffffffffffffffffff16145b91505092915050565b8273ffffffffffffffffffffffffffffffffffffffff166116d182610ade565b73ffffffffffffffffffffffffffffffffffffffff1614611727576040517f08c379a000000000000000000000000000000000000000000000000000000000815260040161171e9061488e565b60405180910390fd5b600073ffffffffffffffffffffffffffffffffffffffff168273ffffffffffffffffffffffffffffffffffffffff1603611796576040517f08c379a000000000000000000000000000000000000000000000000000000000815260040161178d90614920565b60405180910390fd5b6117a18383836121a8565b6117ac60008261151a565b6001600360008573ffffffffffffffffffffffffffffffffffffffff1673ffffffffffffffffffffffffffffffffffffffff16815260200190815260200160002060008282546117fc919061496f565b925050819055506001600360008473ffffffffffffffffffffffffffffffffffffffff1673ffffffffffffffffffffffffffffffffffffffff168152602001908152602001600020600082825461185391906149a3565b92505081905550816002600083815260200190815260200160002060006101000a81548173ffffffffffffffffffffffffffffffffffffffff021916908373ffffffffffffffffffffffffffffffffffffffff160217905550808273ffffffffffffffffffffffffffffffffffffffff168473ffffffffffffffffffffffffffffffffffffffff167fddf252ad1be2c89b69c2b068fc378daa952ba7f163c4a11628f55a4df523b3ef60405160405180910390a46119128383836121ad565b505050565b600080600090506000806301e13380856119319190614a28565b6107b261ffff1661194291906149a3565b91506119536107b261ffff166121b2565b6119608361ffff166121b2565b61196a919061496f565b9050806301e2850061197c9190614a59565b8361198791906149a3565b9250806107b2836119989190614ac1565b61ffff166119a6919061496f565b6301e133806119b59190614a59565b836119c091906149a3565b92505b84831115611a23576119e06001836119db9190614ac1565b612206565b156119fc576301e28500836119f5919061496f565b9250611a0f565b6301e1338083611a0c919061496f565b92505b600182611a1c9190614ac1565b91506119c3565b819350505050919050565b6000611a3982612275565b602001519050919050565b6000611a4f82612275565b604001519050919050565b6000611a6c8484846000806000612486565b90509392505050565b6060600060016018603c808787611a8c919061496f565b611a969190614a28565b611aa09190614a28565b611aaa9190614a28565b611ab491906149a3565b905060008167ffffffffffffffff811115611ad257611ad161325f565b5b604051908082528060200260200182016040528015611b005781602001602082028036833780820191505090505b50905060018203611b36578481600081518110611b2057611b1f61421c565b5b6020026020010181815250508092505050611b92565b60005b82811015611b8b57858510611b7a5785828281518110611b5c57611b5b61421c565b5b6020026020010181815250506201518086611b7791906149a3565b95505b80611b8490614af5565b9050611b39565b5080925050505b92915050565b600080600090505b8251811015611c265760005b600880549050811015611c145760088181548110611bcd57611bcc61421c565b5b9060005260206000200154848381518110611beb57611bea61421c565b5b602002602001015103611c0357600092505050611c2c565b80611c0d90614af5565b9050611bac565b5080611c1f90614af5565b9050611ba0565b50600190505b919050565b60005b8151811015611c91576008828281518110611c5257611c5161421c565b5b6020026020010151908060018154018082558091505060019003906000526020600020016000909190919091505580611c8a90614af5565b9050611c34565b5050565b600081600001549050919050565b611cbd8282604051806020016040528060008152506127f1565b5050565b6060611d33611ccf8361284c565b611cee600a60008681526020019081526020016000206000015461284c565b611d0d600a60008781526020019081526020016000206001015461284c565b604051602001611d1f93929190614e5e565b6040516020818303038152906040526129ac565b604051602001611d439190614f1d565b6040516020818303038152906040529050919050565b611d6282611433565b611da1576040517f08c379a0000000000000000000000000000000000000000000000000000000008152600401611d9890614fb1565b60405180910390fd5b80600660008481526020019081526020016000209081611dc19190613f94565b505050565b6001816000016000828254019250508190555050565b8173ffffffffffffffffffffffffffffffffffffffff168373ffffffffffffffffffffffffffffffffffffffff1603611e4a576040517f08c379a0000000000000000000000000000000000000000000000000000000008152600401611e419061501d565b60405180910390fd5b80600560008573ffffffffffffffffffffffffffffffffffffffff1673ffffffffffffffffffffffffffffffffffffffff16815260200190815260200160002060008473ffffffffffffffffffffffffffffffffffffffff1673ffffffffffffffffffffffffffffffffffffffff16815260200190815260200160002060006101000a81548160ff0219169083151502179055508173ffffffffffffffffffffffffffffffffffffffff168373ffffffffffffffffffffffffffffffffffffffff167f17307eab39ab6107e8899845ad3d59bd9653f200f220920489ca2b5937696c3183604051611f3b91906131ba565b60405180910390a3505050565b611f538484846116b1565b611f5f84848484612b0f565b611f9e576040517f08c379a0000000000000000000000000000000000000000000000000000000008152600401611f95906150af565b60405180910390fd5b50505050565b606060405180602001604052806000815250905090565b6060611fc682611433565b612005576040517f08c379a0000000000000000000000000000000000000000000000000000000008152600401611ffc90615141565b60405180910390fd5b600061200f611fa4565b9050600081511161202f576040518060200160405280600081525061205a565b806120398461284c565b60405160200161204a929190614766565b6040516020818303038152906040525b915050919050565b60008151905060006a636f6e736f6c652e6c6f679050602083016000808483855afa5050505050565b600061209682610ade565b90506120a4816000846121a8565b6120af60008361151a565b6001600360008373ffffffffffffffffffffffffffffffffffffffff1673ffffffffffffffffffffffffffffffffffffffff16815260200190815260200160002060008282546120ff919061496f565b925050819055506002600083815260200190815260200160002060006101000a81549073ffffffffffffffffffffffffffffffffffffffff021916905581600073ffffffffffffffffffffffffffffffffffffffff168273ffffffffffffffffffffffffffffffffffffffff167fddf252ad1be2c89b69c2b068fc378daa952ba7f163c4a11628f55a4df523b3ef60405160405180910390a46121a4816000846121ad565b5050565b505050565b505050565b60006001826121c1919061496f565b9150610190826121d19190614a28565b6064836121de9190614a28565b6004846121eb9190614a28565b6121f5919061496f565b6121ff91906149a3565b9050919050565b6000806004836122169190615161565b61ffff16146122285760009050612270565b60006064836122379190615161565b61ffff16146122495760019050612270565b6000610190836122599190615161565b61ffff161461226b5760009050612270565b600190505b919050565b61227d613073565b6000808061228a85611917565b846000019061ffff16908161ffff16815250506122ac6107b261ffff166121b2565b6122bd856000015161ffff166121b2565b6122c7919061496f565b9150816301e285006122d99190614a59565b836122e491906149a3565b9250816107b285600001516122f99190614ac1565b61ffff16612307919061496f565b6301e133806123169190614a59565b8361232191906149a3565b92506000600191505b600c8260ff16116123a157612343828660000151612c96565b60ff16620151806123549190614a59565b905085848261236391906149a3565b11156123805781856020019060ff16908160ff16815250506123a1565b808461238c91906149a3565b9350818061239990615192565b92505061232a565b600191505b6123b885602001518660000151612c96565b60ff168260ff1611612415578584620151806123d491906149a3565b11156123f15781856040019060ff16908160ff1681525050612415565b620151808461240091906149a3565b9350818061240d90615192565b9250506123a6565b61241e86612d62565b856060019060ff16908160ff168152505061243886612d8f565b856080019060ff16908160ff168152505061245286612db0565b8560a0019060ff16908160ff168152505061246c86612dc6565b8560c0019060ff16908160ff168152505050505050919050565b6000806107b290505b8761ffff168161ffff1610156124ea576124a881612206565b156124c4576301e28500826124bd91906149a3565b91506124d7565b6301e13380826124d491906149a3565b91505b80806124e2906151bb565b91505061248f565b6124f26130c6565b601f816000600c81106125085761250761421c565b5b602002019060ff16908160ff168152505061252289612206565b1561255357601d816001600c811061253d5761253c61421c565b5b602002019060ff16908160ff168152505061257b565b601c816001600c81106125695761256861421c565b5b602002019060ff16908160ff16815250505b601f816002600c81106125915761259061421c565b5b602002019060ff16908160ff1681525050601e816003600c81106125b8576125b761421c565b5b602002019060ff16908160ff1681525050601f816004600c81106125df576125de61421c565b5b602002019060ff16908160ff1681525050601e816005600c81106126065761260561421c565b5b602002019060ff16908160ff1681525050601f816006600c811061262d5761262c61421c565b5b602002019060ff16908160ff1681525050601f816007600c81106126545761265361421c565b5b602002019060ff16908160ff1681525050601e816008600c811061267b5761267a61421c565b5b602002019060ff16908160ff1681525050601f816009600c81106126a2576126a161421c565b5b602002019060ff16908160ff1681525050601e81600a600c81106126c9576126c861421c565b5b602002019060ff16908160ff1681525050601f81600b600c81106126f0576126ef61421c565b5b602002019060ff16908160ff1681525050600191505b8760ff168261ffff16101561276e57806001836127239190614ac1565b61ffff16600c81106127385761273761421c565b5b602002015160ff166201518061274e9190614a59565b8361275991906149a3565b92508180612766906151bb565b925050612706565b60018761277b91906151e5565b60ff166201518061278c9190614a59565b8361279791906149a3565b92508560ff16610e106127aa9190614a59565b836127b591906149a3565b92508460ff16603c6127c79190614a59565b836127d291906149a3565b92508360ff16836127e391906149a3565b925050509695505050505050565b6127fb8383612df6565b6128086000848484612b0f565b612847576040517f08c379a000000000000000000000000000000000000000000000000000000000815260040161283e906150af565b60405180910390fd5b505050565b606060008203612893576040518060400160405280600181526020017f300000000000000000000000000000000000000000000000000000000000000081525090506129a7565b600082905060005b600082146128c55780806128ae90614af5565b915050600a826128be9190614a28565b915061289b565b60008167ffffffffffffffff8111156128e1576128e061325f565b5b6040519080825280601f01601f1916602001820160405280156129135781602001600182028036833780820191505090505b5090505b600085146129a05760018261292c919061496f565b9150600a8561293b9190615219565b603061294791906149a3565b60f81b81838151811061295d5761295c61421c565b5b60200101907effffffffffffffffffffffffffffffffffffffffffffffffffffffffffffff1916908160001a905350600a856129999190614a28565b9450612917565b8093505050505b919050565b606060008251036129ce57604051806020016040528060008152509050612b0a565b600060405180606001604052806040815260200161540660409139905060006003600285516129fd91906149a3565b612a079190614a28565b6004612a139190614a59565b67ffffffffffffffff811115612a2c57612a2b61325f565b5b6040519080825280601f01601f191660200182016040528015612a5e5781602001600182028036833780820191505090505b509050600182016020820185865187015b80821015612aca576003820191508151603f8160121c168501518453600184019350603f81600c1c168501518453600184019350603f8160061c168501518453600184019350603f8116850151845360018401935050612a6f565b5050600386510660018114612ae65760028114612af957612b01565b603d6001830353603d6002830353612b01565b603d60018303535b50505080925050505b919050565b6000612b308473ffffffffffffffffffffffffffffffffffffffff16612fcf565b15612c89578373ffffffffffffffffffffffffffffffffffffffff1663150b7a02612b59611512565b8786866040518563ffffffff1660e01b8152600401612b7b949392919061529f565b6020604051808303816000875af1925050508015612bb757506040513d601f19601f82011682018060405250810190612bb49190615300565b60015b612c39573d8060008114612be7576040519150601f19603f3d011682016040523d82523d6000602084013e612bec565b606091505b506000815103612c31576040517f08c379a0000000000000000000000000000000000000000000000000000000008152600401612c28906150af565b60405180910390fd5b805181602001fd5b63150b7a0260e01b7bffffffffffffffffffffffffffffffffffffffffffffffffffffffff1916817bffffffffffffffffffffffffffffffffffffffffffffffffffffffff191614915050612c8e565b600190505b949350505050565b600060018360ff161480612cad575060038360ff16145b80612cbb575060058360ff16145b80612cc9575060078360ff16145b80612cd7575060088360ff16145b80612ce55750600a8360ff16145b80612cf35750600c8360ff16145b15612d0157601f9050612d5c565b60048360ff161480612d16575060068360ff16145b80612d24575060098360ff16145b80612d325750600b8360ff16145b15612d4057601e9050612d5c565b612d4982612206565b15612d5757601d9050612d5c565b601c90505b92915050565b60006018603c8084612d749190614a28565b612d7e9190614a28565b612d889190615219565b9050919050565b6000603c8083612d9f9190614a28565b612da99190615219565b9050919050565b6000603c82612dbf9190615219565b9050919050565b6000600760046201518084612ddb9190614a28565b612de591906149a3565b612def9190615219565b9050919050565b600073ffffffffffffffffffffffffffffffffffffffff168273ffffffffffffffffffffffffffffffffffffffff1603612e65576040517f08c379a0000000000000000000000000000000000000000000000000000000008152600401612e5c90615379565b60405180910390fd5b612e6e81611433565b15612eae576040517f08c379a0000000000000000000000000000000000000000000000000000000008152600401612ea5906153e5565b60405180910390fd5b612eba600083836121a8565b6001600360008473ffffffffffffffffffffffffffffffffffffffff1673ffffffffffffffffffffffffffffffffffffffff1681526020019081526020016000206000828254612f0a91906149a3565b92505081905550816002600083815260200190815260200160002060006101000a81548173ffffffffffffffffffffffffffffffffffffffff021916908373ffffffffffffffffffffffffffffffffffffffff160217905550808273ffffffffffffffffffffffffffffffffffffffff16600073ffffffffffffffffffffffffffffffffffffffff167fddf252ad1be2c89b69c2b068fc378daa952ba7f163c4a11628f55a4df523b3ef60405160405180910390a4612fcb600083836121ad565b5050565b6000808273ffffffffffffffffffffffffffffffffffffffff163b119050919050565b6040518060800160405280600073ffffffffffffffffffffffffffffffffffffffff168152602001600060ff16815260200160608152602001600081525090565b50805461303f90613db7565b6000825580601f106130515750613070565b601f01602090049060005260206000209081019061306f91906130e9565b5b50565b6040518060e00160405280600061ffff168152602001600060ff168152602001600060ff168152602001600060ff168152602001600060ff168152602001600060ff168152602001600060ff1681525090565b604051806101800160405280600c90602082028036833780820191505090505090565b5b808211156131025760008160009055506001016130ea565b5090565b6000604051905090565b600080fd5b600080fd5b60007fffffffff0000000000000000000000000000000000000000000000000000000082169050919050565b61314f8161311a565b811461315a57600080fd5b50565b60008135905061316c81613146565b92915050565b60006020828403121561318857613187613110565b5b60006131968482850161315d565b91505092915050565b60008115159050919050565b6131b48161319f565b82525050565b60006020820190506131cf60008301846131ab565b92915050565b6000819050919050565b6131e8816131d5565b81146131f357600080fd5b50565b600081359050613205816131df565b92915050565b600060ff82169050919050565b6132218161320b565b811461322c57600080fd5b50565b60008135905061323e81613218565b92915050565b600080fd5b600080fd5b6000601f19601f8301169050919050565b7f4e487b7100000000000000000000000000000000000000000000000000000000600052604160045260246000fd5b6132978261324e565b810181811067ffffffffffffffff821117156132b6576132b561325f565b5b80604052505050565b60006132c9613106565b90506132d5828261328e565b919050565b600067ffffffffffffffff8211156132f5576132f461325f565b5b6132fe8261324e565b9050602081019050919050565b82818337600083830152505050565b600061332d613328846132da565b6132bf565b90508281526020810184848401111561334957613348613249565b5b61335484828561330b565b509392505050565b600082601f83011261337157613370613244565b5b813561338184826020860161331a565b91505092915050565b6000806000606084860312156133a3576133a2613110565b5b60006133b1868287016131f6565b93505060206133c28682870161322f565b925050604084013567ffffffffffffffff8111156133e3576133e2613115565b5b6133ef8682870161335c565b9150509250925092565b600081519050919050565b600082825260208201905092915050565b60005b83811015613433578082015181840152602081019050613418565b83811115613442576000848401525b50505050565b6000613453826133f9565b61345d8185613404565b935061346d818560208601613415565b6134768161324e565b840191505092915050565b6000602082019050818103600083015261349b8184613448565b905092915050565b6000602082840312156134b9576134b8613110565b5b60006134c7848285016131f6565b91505092915050565b600073ffffffffffffffffffffffffffffffffffffffff82169050919050565b60006134fb826134d0565b9050919050565b61350b816134f0565b82525050565b60006020820190506135266000830184613502565b92915050565b613535816134f0565b811461354057600080fd5b50565b6000813590506135528161352c565b92915050565b6000806040838503121561356f5761356e613110565b5b600061357d85828601613543565b925050602061358e858286016131f6565b9150509250929050565b6135a1816134f0565b82525050565b6135b08161320b565b82525050565b600082825260208201905092915050565b60006135d2826133f9565b6135dc81856135b6565b93506135ec818560208601613415565b6135f58161324e565b840191505092915050565b613609816131d5565b82525050565b60006080830160008301516136276000860182613598565b50602083015161363a60208601826135a7565b506040830151848203604086015261365282826135c7565b91505060608301516136676060860182613600565b508091505092915050565b6000602082019050818103600083015261368c818461360f565b905092915050565b6000806000606084860312156136ad576136ac613110565b5b60006136bb86828701613543565b93505060206136cc86828701613543565b92505060406136dd868287016131f6565b9150509250925092565b6000602082840312156136fd576136fc613110565b5b600061370b84828501613543565b91505092915050565b61371d816131d5565b82525050565b60006020820190506137386000830184613714565b92915050565b6000806040838503121561375557613754613110565b5b6000613763858286016131f6565b9250506020613774858286016131f6565b9150509250929050565b6137878161319f565b811461379257600080fd5b50565b6000813590506137a48161377e565b92915050565b600080604083850312156137c1576137c0613110565b5b60006137cf85828601613543565b92505060206137e085828601613795565b9150509250929050565b600067ffffffffffffffff8211156138055761380461325f565b5b61380e8261324e565b9050602081019050919050565b600061382e613829846137ea565b6132bf565b90508281526020810184848401111561384a57613849613249565b5b61385584828561330b565b509392505050565b600082601f83011261387257613871613244565b5b813561388284826020860161381b565b91505092915050565b600080600080608085870312156138a5576138a4613110565b5b60006138b387828801613543565b94505060206138c487828801613543565b93505060406138d5878288016131f6565b925050606085013567ffffffffffffffff8111156138f6576138f5613115565b5b6139028782880161385d565b91505092959194509250565b600081519050919050565b600082825260208201905092915050565b6000819050602082019050919050565b60006139468383613600565b60208301905092915050565b6000602082019050919050565b600061396a8261390e565b6139748185613919565b935061397f8361392a565b8060005b838110156139b0578151613997888261393a565b97506139a283613952565b925050600181019050613983565b5085935050505092915050565b600060208201905081810360008301526139d7818461395f565b905092915050565b600080604083850312156139f6576139f5613110565b5b6000613a0485828601613543565b9250506020613a1585828601613543565b9150509250929050565b600081519050919050565b600082825260208201905092915050565b6000819050602082019050919050565b6000608083016000830151613a636000860182613598565b506020830151613a7660208601826135a7565b5060408301518482036040860152613a8e82826135c7565b9150506060830151613aa36060860182613600565b508091505092915050565b6000613aba8383613a4b565b905092915050565b6000602082019050919050565b6000613ada82613a1f565b613ae48185613a2a565b935083602082028501613af685613a3b565b8060005b85811015613b325784840389528151613b138582613aae565b9450613b1e83613ac2565b925060208a01995050600181019050613afa565b50829750879550505050505092915050565b60006020820190508181036000830152613b5e8184613acf565b905092915050565b7f4572726f21204f20746f6b656e20696e73657269646f206e616f20657869737460008201527f652e000000000000000000000000000000000000000000000000000000000000602082015250565b6000613bc2602283613404565b9150613bcd82613b66565b604082019050919050565b60006020820190508181036000830152613bf181613bb5565b9050919050565b7f4572726f21204f20726174696e672074656d2071756520657374617220636f6d60008201527f707265656e6469646f20656e747265203020652031302e000000000000000000602082015250565b6000613c54603783613404565b9150613c5f82613bf8565b604082019050919050565b60006020820190508181036000830152613c8381613c47565b9050919050565b7f4572726f21204f20746f6b656e206e616f206c68652070657274656e63652e00600082015250565b6000613cc0601f83613404565b9150613ccb82613c8a565b602082019050919050565b60006020820190508181036000830152613cef81613cb3565b9050919050565b7f4572726f2e2041206461746120646f2066696d2064612072657365727661206160008201527f696e6461206e616f20666f6920756c747261706173736164612e000000000000602082015250565b6000613d52603a83613404565b9150613d5d82613cf6565b604082019050919050565b60006020820190508181036000830152613d8181613d45565b9050919050565b7f4e487b7100000000000000000000000000000000000000000000000000000000600052602260045260246000fd5b60006002820490506001821680613dcf57607f821691505b602082108103613de257613de1613d88565b5b50919050565b60008190508160005260206000209050919050565b60006020601f8301049050919050565b600082821b905092915050565b600060088302613e4a7fffffffffffffffffffffffffffffffffffffffffffffffffffffffffffffffff82613e0d565b613e548683613e0d565b95508019841693508086168417925050509392505050565b6000819050919050565b6000613e91613e8c613e87846131d5565b613e6c565b6131d5565b9050919050565b6000819050919050565b613eab83613e76565b613ebf613eb782613e98565b848454613e1a565b825550505050565b600090565b613ed4613ec7565b613edf818484613ea2565b505050565b5b81811015613f0357613ef8600082613ecc565b600181019050613ee5565b5050565b601f821115613f4857613f1981613de8565b613f2284613dfd565b81016020851015613f31578190505b613f45613f3d85613dfd565b830182613ee4565b50505b505050565b600082821c905092915050565b6000613f6b60001984600802613f4d565b1980831691505092915050565b6000613f848383613f5a565b9150826002028217905092915050565b613f9d826133f9565b67ffffffffffffffff811115613fb657613fb561325f565b5b613fc08254613db7565b613fcb828285613f07565b600060209050601f831160018114613ffe5760008415613fec578287015190505b613ff68582613f78565b86555061405e565b601f19841661400c86613de8565b60005b828110156140345784890151825560018201915060208501945060208101905061400f565b86831015614051578489015161404d601f891682613f5a565b8355505b6001600288020188555050505b505050505050565b7f4552433732313a20617070726f76656420717565727920666f72206e6f6e657860008201527f697374656e7420746f6b656e0000000000000000000000000000000000000000602082015250565b60006140c2602c83613404565b91506140cd82614066565b604082019050919050565b600060208201905081810360008301526140f1816140b5565b9050919050565b7f4552433732313a20617070726f76616c20746f2063757272656e74206f776e6560008201527f7200000000000000000000000000000000000000000000000000000000000000602082015250565b6000614154602183613404565b915061415f826140f8565b604082019050919050565b6000602082019050818103600083015261418381614147565b9050919050565b7f4552433732313a20617070726f76652063616c6c6572206973206e6f74206f7760008201527f6e6572206e6f7220617070726f76656420666f7220616c6c0000000000000000602082015250565b60006141e6603883613404565b91506141f18261418a565b604082019050919050565b60006020820190508181036000830152614215816141d9565b9050919050565b7f4e487b7100000000000000000000000000000000000000000000000000000000600052603260045260246000fd5b7f4552433732313a207472616e736665722063616c6c6572206973206e6f74206f60008201527f776e6572206e6f7220617070726f766564000000000000000000000000000000602082015250565b60006142a7603183613404565b91506142b28261424b565b604082019050919050565b600060208201905081810360008301526142d68161429a565b9050919050565b7f4552433732313a206f776e657220717565727920666f72206e6f6e657869737460008201527f656e7420746f6b656e0000000000000000000000000000000000000000000000602082015250565b6000614339602983613404565b9150614344826142dd565b604082019050919050565b600060208201905081810360008301526143688161432c565b9050919050565b7f4552433732313a2062616c616e636520717565727920666f7220746865207a6560008201527f726f206164647265737300000000000000000000000000000000000000000000602082015250565b60006143cb602a83613404565b91506143d68261436f565b604082019050919050565b600060208201905081810360008301526143fa816143be565b9050919050565b7f4572726f212041206461746120646520696e6963696f2064612072657365727660008201527f61206a6120666f6920756c747261706173736164612e00000000000000000000602082015250565b600061445d603683613404565b915061446882614401565b604082019050919050565b6000602082019050818103600083015261448c81614450565b9050919050565b7f4572726f212041206461746120646f2066696d2064612072657365727661206a60008201527f6120666f6920756c747261706173736164612e00000000000000000000000000602082015250565b60006144ef603383613404565b91506144fa82614493565b604082019050919050565b6000602082019050818103600083015261451e816144e2565b9050919050565b7f4572726f212041206461746120646520696e6963696f206e616f20706f64652060008201527f736572207375706572696f72206120646f2066696d206461207265736572766160208201527f2e00000000000000000000000000000000000000000000000000000000000000604082015250565b60006145a7604183613404565b91506145b282614525565b606082019050919050565b600060208201905081810360008301526145d68161459a565b9050919050565b7f4572726f2120496e66656c697a6d656e7465206173206461746173206573636f60008201527f6c6869646173206a6120657374616f206f637570616461732e00000000000000602082015250565b6000614639603983613404565b9150614644826145dd565b604082019050919050565b600060208201905081810360008301526146688161462c565b9050919050565b60006040820190506146846000830185613502565b6146916020830184613714565b9392505050565b7f45524337323155524953746f726167653a2055524920717565727920666f722060008201527f6e6f6e6578697374656e7420746f6b656e000000000000000000000000000000602082015250565b60006146f4603183613404565b91506146ff82614698565b604082019050919050565b60006020820190508181036000830152614723816146e7565b9050919050565b600081905092915050565b6000614740826133f9565b61474a818561472a565b935061475a818560208601613415565b80840191505092915050565b60006147728285614735565b915061477e8284614735565b91508190509392505050565b7f4552433732313a206f70657261746f7220717565727920666f72206e6f6e657860008201527f697374656e7420746f6b656e0000000000000000000000000000000000000000602082015250565b60006147e6602c83613404565b91506147f18261478a565b604082019050919050565b60006020820190508181036000830152614815816147d9565b9050919050565b7f4552433732313a207472616e736665722066726f6d20696e636f72726563742060008201527f6f776e6572000000000000000000000000000000000000000000000000000000602082015250565b6000614878602583613404565b91506148838261481c565b604082019050919050565b600060208201905081810360008301526148a78161486b565b9050919050565b7f4552433732313a207472616e7366657220746f20746865207a65726f2061646460008201527f7265737300000000000000000000000000000000000000000000000000000000602082015250565b600061490a602483613404565b9150614915826148ae565b604082019050919050565b60006020820190508181036000830152614939816148fd565b9050919050565b7f4e487b7100000000000000000000000000000000000000000000000000000000600052601160045260246000fd5b600061497a826131d5565b9150614985836131d5565b92508282101561499857614997614940565b5b828203905092915050565b60006149ae826131d5565b91506149b9836131d5565b9250827fffffffffffffffffffffffffffffffffffffffffffffffffffffffffffffffff038211156149ee576149ed614940565b5b828201905092915050565b7f4e487b7100000000000000000000000000000000000000000000000000000000600052601260045260246000fd5b6000614a33826131d5565b9150614a3e836131d5565b925082614a4e57614a4d6149f9565b5b828204905092915050565b6000614a64826131d5565b9150614a6f836131d5565b9250817fffffffffffffffffffffffffffffffffffffffffffffffffffffffffffffffff0483118215151615614aa857614aa7614940565b5b828202905092915050565b600061ffff82169050919050565b6000614acc82614ab3565b9150614ad783614ab3565b925082821015614aea57614ae9614940565b5b828203905092915050565b6000614b00826131d5565b91507fffffffffffffffffffffffffffffffffffffffffffffffffffffffffffffffff8203614b3257614b31614940565b5b600182019050919050565b7f7b226e616d65223a2252656e744d7941706172746d656e742023000000000000600082015250565b6000614b73601a8361472a565b9150614b7e82614b3d565b601a82019050919050565b7f222c20226465736372697074696f6e223a225468616e6b20796f7520666f722060008201527f63686f6f73696e6720757320666f7220796f757220726563656e74207374617960208201527f20696e20506f72746f2e205765206c6f6f6b20666f727761726420746f20776560408201527f6c636f6d696e6720796f7521222c2022696d616765223a2268747470733a2f2f60608201527f697066732e696f2f697066732f516d574d485a583175474e70724c436f58557160808201527f684867324d55447744354d6e7a705866634b325639673557685767222c20226160a08201527f747472696275746573223a5b7b22646973706c61795f74797065223a2022646160c08201527f7465222c202274726169745f74797065223a20227374617274222c202276616c60e08201527f7565223a0000000000000000000000000000000000000000000000000000000061010082015250565b6000614cf16101048361472a565b9150614cfc82614b89565b61010482019050919050565b7f7d2c000000000000000000000000000000000000000000000000000000000000600082015250565b6000614d3e60028361472a565b9150614d4982614d08565b600282019050919050565b7f7b22646973706c61795f74797065223a202264617465222c202274726169745f60008201527f74797065223a2022656e64222c202276616c7565223a00000000000000000000602082015250565b6000614db060368361472a565b9150614dbb82614d54565b603682019050919050565b7f7d00000000000000000000000000000000000000000000000000000000000000600082015250565b6000614dfc60018361472a565b9150614e0782614dc6565b600182019050919050565b7f5d7d000000000000000000000000000000000000000000000000000000000000600082015250565b6000614e4860028361472a565b9150614e5382614e12565b600282019050919050565b6000614e6982614b66565b9150614e758286614735565b9150614e8082614ce3565b9150614e8c8285614735565b9150614e9782614d31565b9150614ea282614da3565b9150614eae8284614735565b9150614eb982614def565b9150614ec482614e3b565b9150819050949350505050565b7f646174613a6170706c69636174696f6e2f6a736f6e3b6261736536342c000000600082015250565b6000614f07601d8361472a565b9150614f1282614ed1565b601d82019050919050565b6000614f2882614efa565b9150614f348284614735565b915081905092915050565b7f45524337323155524953746f726167653a2055524920736574206f66206e6f6e60008201527f6578697374656e7420746f6b656e000000000000000000000000000000000000602082015250565b6000614f9b602e83613404565b9150614fa682614f3f565b604082019050919050565b60006020820190508181036000830152614fca81614f8e565b9050919050565b7f4552433732313a20617070726f766520746f2063616c6c657200000000000000600082015250565b6000615007601983613404565b915061501282614fd1565b602082019050919050565b6000602082019050818103600083015261503681614ffa565b9050919050565b7f4552433732313a207472616e7366657220746f206e6f6e20455243373231526560008201527f63656976657220696d706c656d656e7465720000000000000000000000000000602082015250565b6000615099603283613404565b91506150a48261503d565b604082019050919050565b600060208201905081810360008301526150c88161508c565b9050919050565b7f4552433732314d657461646174613a2055524920717565727920666f72206e6f60008201527f6e6578697374656e7420746f6b656e0000000000000000000000000000000000602082015250565b600061512b602f83613404565b9150615136826150cf565b604082019050919050565b6000602082019050818103600083015261515a8161511e565b9050919050565b600061516c82614ab3565b915061517783614ab3565b925082615187576151866149f9565b5b828206905092915050565b600061519d8261320b565b915060ff82036151b0576151af614940565b5b600182019050919050565b60006151c682614ab3565b915061ffff82036151da576151d9614940565b5b600182019050919050565b60006151f08261320b565b91506151fb8361320b565b92508282101561520e5761520d614940565b5b828203905092915050565b6000615224826131d5565b915061522f836131d5565b92508261523f5761523e6149f9565b5b828206905092915050565b600081519050919050565b600082825260208201905092915050565b60006152718261524a565b61527b8185615255565b935061528b818560208601613415565b6152948161324e565b840191505092915050565b60006080820190506152b46000830187613502565b6152c16020830186613502565b6152ce6040830185613714565b81810360608301526152e08184615266565b905095945050505050565b6000815190506152fa81613146565b92915050565b60006020828403121561531657615315613110565b5b6000615324848285016152eb565b91505092915050565b7f4552433732313a206d696e7420746f20746865207a65726f2061646472657373600082015250565b6000615363602083613404565b915061536e8261532d565b602082019050919050565b6000602082019050818103600083015261539281615356565b9050919050565b7f4552433732313a20746f6b656e20616c7265616479206d696e74656400000000600082015250565b60006153cf601c83613404565b91506153da82615399565b602082019050919050565b600060208201905081810360008301526153fe816153c2565b905091905056fe4142434445464748494a4b4c4d4e4f505152535455565758595a6162636465666768696a6b6c6d6e6f707172737475767778797a303132333435363738392b2fa2646970667358221220551b68b7da0aca6ae3c7e8ab37eb7f234b50431c3fc062c10aaa531bbbb5854b64736f6c634300080f0033",
  "linkReferences": {},
  "deployedLinkReferences": {}
}