{
  "_format": "hh-sol-artifact-1",
  "contractName": "RentMyApartment",
  "sourceName": "contracts/RentMyApartment.sol",
  "abi": [
    {
      "inputs": [],
      "stateMutability": "nonpayable",
      "type": "constructor"
    },
    {
      "anonymous": false,
      "inputs": [
        {
          "indexed": true,
          "internalType": "address",
          "name": "owner",
          "type": "address"
        },
        {
          "indexed": true,
          "internalType": "address",
          "name": "approved",
          "type": "address"
        },
        {
          "indexed": true,
          "internalType": "uint256",
          "name": "tokenId",
          "type": "uint256"
        }
      ],
      "name": "Approval",
      "type": "event"
    },
    {
      "anonymous": false,
      "inputs": [
        {
          "indexed": true,
          "internalType": "address",
          "name": "owner",
          "type": "address"
        },
        {
          "indexed": true,
          "internalType": "address",
          "name": "operator",
          "type": "address"
        },
        {
          "indexed": false,
          "internalType": "bool",
          "name": "approved",
          "type": "bool"
        }
      ],
      "name": "ApprovalForAll",
      "type": "event"
    },
    {
      "anonymous": false,
      "inputs": [
        {
          "indexed": false,
          "internalType": "address",
          "name": "sender",
          "type": "address"
        },
        {
          "indexed": false,
          "internalType": "uint256",
          "name": "tokenId",
          "type": "uint256"
        }
      ],
      "name": "NewNFTMinted",
      "type": "event"
    },
    {
      "anonymous": false,
      "inputs": [
        {
          "indexed": true,
          "internalType": "address",
          "name": "from",
          "type": "address"
        },
        {
          "indexed": true,
          "internalType": "address",
          "name": "to",
          "type": "address"
        },
        {
          "indexed": true,
          "internalType": "uint256",
          "name": "tokenId",
          "type": "uint256"
        }
      ],
      "name": "Transfer",
      "type": "event"
    },
    {
      "inputs": [
        {
          "internalType": "address",
          "name": "to",
          "type": "address"
        },
        {
          "internalType": "uint256",
          "name": "tokenId",
          "type": "uint256"
        }
      ],
      "name": "approve",
      "outputs": [],
      "stateMutability": "nonpayable",
      "type": "function"
    },
    {
      "inputs": [
        {
          "internalType": "address",
          "name": "owner",
          "type": "address"
        }
      ],
      "name": "balanceOf",
      "outputs": [
        {
          "internalType": "uint256",
          "name": "",
          "type": "uint256"
        }
      ],
      "stateMutability": "view",
      "type": "function"
    },
    {
      "inputs": [],
      "name": "getAllRatings",
      "outputs": [
        {
          "components": [
            {
              "internalType": "address",
              "name": "user",
              "type": "address"
            },
            {
              "internalType": "uint8",
              "name": "rating",
              "type": "uint8"
            },
            {
              "internalType": "string",
              "name": "message",
              "type": "string"
            },
            {
              "internalType": "uint256",
              "name": "timestamp",
              "type": "uint256"
            }
          ],
          "internalType": "struct RentMyApartment.Rating[]",
          "name": "",
          "type": "tuple[]"
        }
      ],
      "stateMutability": "view",
      "type": "function"
    },
    {
      "inputs": [
        {
          "internalType": "uint256",
          "name": "tokenId",
          "type": "uint256"
        }
      ],
      "name": "getApproved",
      "outputs": [
        {
          "internalType": "address",
          "name": "",
          "type": "address"
        }
      ],
      "stateMutability": "view",
      "type": "function"
    },
    {
      "inputs": [
        {
          "internalType": "uint256",
          "name": "_id",
          "type": "uint256"
        }
      ],
      "name": "getSpecificRating",
      "outputs": [
        {
          "components": [
            {
              "internalType": "address",
              "name": "user",
              "type": "address"
            },
            {
              "internalType": "uint8",
              "name": "rating",
              "type": "uint8"
            },
            {
              "internalType": "string",
              "name": "message",
              "type": "string"
            },
            {
              "internalType": "uint256",
              "name": "timestamp",
              "type": "uint256"
            }
          ],
          "internalType": "struct RentMyApartment.Rating",
          "name": "",
          "type": "tuple"
        }
      ],
      "stateMutability": "view",
      "type": "function"
    },
    {
      "inputs": [],
      "name": "getUnavailableDates",
      "outputs": [
        {
          "internalType": "uint256[]",
          "name": "",
          "type": "uint256[]"
        }
      ],
      "stateMutability": "view",
      "type": "function"
    },
    {
      "inputs": [
        {
          "internalType": "address",
          "name": "owner",
          "type": "address"
        },
        {
          "internalType": "address",
          "name": "operator",
          "type": "address"
        }
      ],
      "name": "isApprovedForAll",
      "outputs": [
        {
          "internalType": "bool",
          "name": "",
          "type": "bool"
        }
      ],
      "stateMutability": "view",
      "type": "function"
    },
    {
      "inputs": [],
      "name": "name",
      "outputs": [
        {
          "internalType": "string",
          "name": "",
          "type": "string"
        }
      ],
      "stateMutability": "view",
      "type": "function"
    },
    {
      "inputs": [
        {
          "internalType": "uint256",
          "name": "tokenId",
          "type": "uint256"
        }
      ],
      "name": "ownerOf",
      "outputs": [
        {
          "internalType": "address",
          "name": "",
          "type": "address"
        }
      ],
      "stateMutability": "view",
      "type": "function"
    },
    {
      "inputs": [
        {
          "internalType": "uint256",
          "name": "_tokenId",
          "type": "uint256"
        },
        {
          "internalType": "uint8",
          "name": "_rating",
          "type": "uint8"
        },
        {
          "internalType": "string",
          "name": "_message",
          "type": "string"
        }
      ],
      "name": "rate",
      "outputs": [],
      "stateMutability": "nonpayable",
      "type": "function"
    },
    {
      "inputs": [
        {
          "internalType": "uint256",
          "name": "_startDate",
          "type": "uint256"
        },
        {
          "internalType": "uint256",
          "name": "_endDate",
          "type": "uint256"
        }
      ],
      "name": "rent",
      "outputs": [],
      "stateMutability": "payable",
      "type": "function"
    },
    {
      "inputs": [
        {
          "internalType": "address",
          "name": "from",
          "type": "address"
        },
        {
          "internalType": "address",
          "name": "to",
          "type": "address"
        },
        {
          "internalType": "uint256",
          "name": "tokenId",
          "type": "uint256"
        }
      ],
      "name": "safeTransferFrom",
      "outputs": [],
      "stateMutability": "nonpayable",
      "type": "function"
    },
    {
      "inputs": [
        {
          "internalType": "address",
          "name": "from",
          "type": "address"
        },
        {
          "internalType": "address",
          "name": "to",
          "type": "address"
        },
        {
          "internalType": "uint256",
          "name": "tokenId",
          "type": "uint256"
        },
        {
          "internalType": "bytes",
          "name": "_data",
          "type": "bytes"
        }
      ],
      "name": "safeTransferFrom",
      "outputs": [],
      "stateMutability": "nonpayable",
      "type": "function"
    },
    {
      "inputs": [
        {
          "internalType": "address",
          "name": "operator",
          "type": "address"
        },
        {
          "internalType": "bool",
          "name": "approved",
          "type": "bool"
        }
      ],
      "name": "setApprovalForAll",
      "outputs": [],
      "stateMutability": "nonpayable",
      "type": "function"
    },
    {
      "inputs": [
        {
          "internalType": "bytes4",
          "name": "interfaceId",
          "type": "bytes4"
        }
      ],
      "name": "supportsInterface",
      "outputs": [
        {
          "internalType": "bool",
          "name": "",
          "type": "bool"
        }
      ],
      "stateMutability": "view",
      "type": "function"
    },
    {
      "inputs": [],
      "name": "symbol",
      "outputs": [
        {
          "internalType": "string",
          "name": "",
          "type": "string"
        }
      ],
      "stateMutability": "view",
      "type": "function"
    },
    {
      "inputs": [
        {
          "internalType": "uint256",
          "name": "tokenId",
          "type": "uint256"
        }
      ],
      "name": "tokenURI",
      "outputs": [
        {
          "internalType": "string",
          "name": "",
          "type": "string"
        }
      ],
      "stateMutability": "view",
      "type": "function"
    },
    {
      "inputs": [
        {
          "internalType": "address",
          "name": "from",
          "type": "address"
        },
        {
          "internalType": "address",
          "name": "to",
          "type": "address"
        },
        {
          "internalType": "uint256",
          "name": "tokenId",
          "type": "uint256"
        }
      ],
      "name": "transferFrom",
      "outputs": [],
      "stateMutability": "nonpayable",
      "type": "function"
    }
  ],
  "bytecode": "0x60806040523480156200001157600080fd5b506040518060400160405280600f81526020017f52656e744d7941706172746d656e7400000000000000000000000000000000008152506040518060400160405280600481526020017f52454e540000000000000000000000000000000000000000000000000000000081525081600090816200008f91906200043b565b508060019081620000a191906200043b565b505050620000ef6040518060400160405280600c81526020017f436f6e7374727563746f722e0000000000000000000000000000000000000000815250620000f560201b620014bf1760201c565b620005df565b62000195816040516024016200010c9190620005bb565b6040516020818303038152906040527f41304fac000000000000000000000000000000000000000000000000000000007bffffffffffffffffffffffffffffffffffffffffffffffffffffffff19166020820180517bffffffffffffffffffffffffffffffffffffffffffffffffffffffff83818316178352505050506200019860201b60201c565b50565b60008151905060006a636f6e736f6c652e6c6f679050602083016000808483855afa5050505050565b600081519050919050565b7f4e487b7100000000000000000000000000000000000000000000000000000000600052604160045260246000fd5b7f4e487b7100000000000000000000000000000000000000000000000000000000600052602260045260246000fd5b600060028204905060018216806200024357607f821691505b602082108103620002595762000258620001fb565b5b50919050565b60008190508160005260206000209050919050565b60006020601f8301049050919050565b600082821b905092915050565b600060088302620002c37fffffffffffffffffffffffffffffffffffffffffffffffffffffffffffffffff8262000284565b620002cf868362000284565b95508019841693508086168417925050509392505050565b6000819050919050565b6000819050919050565b60006200031c620003166200031084620002e7565b620002f1565b620002e7565b9050919050565b6000819050919050565b6200033883620002fb565b62000350620003478262000323565b84845462000291565b825550505050565b600090565b6200036762000358565b620003748184846200032d565b505050565b5b818110156200039c57620003906000826200035d565b6001810190506200037a565b5050565b601f821115620003eb57620003b5816200025f565b620003c08462000274565b81016020851015620003d0578190505b620003e8620003df8562000274565b83018262000379565b50505b505050565b600082821c905092915050565b60006200041060001984600802620003f0565b1980831691505092915050565b60006200042b8383620003fd565b9150826002028217905092915050565b6200044682620001c1565b67ffffffffffffffff811115620004625762000461620001cc565b5b6200046e82546200022a565b6200047b828285620003a0565b600060209050601f831160018114620004b357600084156200049e578287015190505b620004aa85826200041d565b8655506200051a565b601f198416620004c3866200025f565b60005b82811015620004ed57848901518255600182019150602085019450602081019050620004c6565b868310156200050d578489015162000509601f891682620003fd565b8355505b6001600288020188555050505b505050505050565b600082825260208201905092915050565b60005b838110156200055357808201518184015260208101905062000536565b8381111562000563576000848401525b50505050565b6000601f19601f8301169050919050565b60006200058782620001c1565b62000593818562000522565b9350620005a581856020860162000533565b620005b08162000569565b840191505092915050565b60006020820190508181036000830152620005d781846200057a565b905092915050565b61569c80620005ef6000396000f3fe6080604052600436106101095760003560e01c806370a0823111610095578063b88d4fde11610064578063b88d4fde1461037e578063c87b56dd146103a7578063c9aeedfc146103e4578063e985e9c51461040f578063eac977c41461044c57610109565b806370a08231146102d1578063783a112b1461030e57806395d89b411461032a578063a22cb4651461035557610109565b8063095ea7b3116100dc578063095ea7b3146101dc5780631e03fd1a1461020557806323b872dd1461024257806342842e0e1461026b5780636352211e1461029457610109565b806301ffc9a71461010e57806302ece06f1461014b57806306fdde0314610174578063081812fc1461019f575b600080fd5b34801561011a57600080fd5b5061013560048036038101906101309190613301565b610477565b6040516101429190613349565b60405180910390f35b34801561015757600080fd5b50610172600480360381019061016d9190613519565b610559565b005b34801561018057600080fd5b506101896107b5565b6040516101969190613610565b60405180910390f35b3480156101ab57600080fd5b506101c660048036038101906101c19190613632565b610847565b6040516101d391906136a0565b60405180910390f35b3480156101e857600080fd5b5061020360048036038101906101fe91906136e7565b6108cc565b005b34801561021157600080fd5b5061022c60048036038101906102279190613632565b6109e3565b6040516102399190613801565b60405180910390f35b34801561024e57600080fd5b5061026960048036038101906102649190613823565b610b2e565b005b34801561027757600080fd5b50610292600480360381019061028d9190613823565b610b8e565b005b3480156102a057600080fd5b506102bb60048036038101906102b69190613632565b610bae565b6040516102c891906136a0565b60405180910390f35b3480156102dd57600080fd5b506102f860048036038101906102f39190613876565b610c5f565b60405161030591906138b2565b60405180910390f35b610328600480360381019061032391906138cd565b610d16565b005b34801561033657600080fd5b5061033f61100a565b60405161034c9190613610565b60405180910390f35b34801561036157600080fd5b5061037c60048036038101906103779190613939565b61109c565b005b34801561038a57600080fd5b506103a560048036038101906103a09190613a1a565b6110b2565b005b3480156103b357600080fd5b506103ce60048036038101906103c99190613632565b611114565b6040516103db9190613610565b60405180910390f35b3480156103f057600080fd5b506103f9611265565b6040516104069190613b4c565b60405180910390f35b34801561041b57600080fd5b5061043660048036038101906104319190613b6e565b6112bd565b6040516104439190613349565b60405180910390f35b34801561045857600080fd5b50610461611351565b60405161046e9190613cd3565b60405180910390f35b60007f80ac58cd000000000000000000000000000000000000000000000000000000007bffffffffffffffffffffffffffffffffffffffffffffffffffffffff1916827bffffffffffffffffffffffffffffffffffffffffffffffffffffffff1916148061054257507f5b5e139f000000000000000000000000000000000000000000000000000000007bffffffffffffffffffffffffffffffffffffffffffffffffffffffff1916827bffffffffffffffffffffffffffffffffffffffffffffffffffffffff1916145b80610552575061055182611558565b5b9050919050565b610562836115c2565b6105a1576040517f08c379a000000000000000000000000000000000000000000000000000000000815260040161059890613d67565b60405180910390fd5b60008260ff16101580156105b95750600a8260ff1611155b6105f8576040517f08c379a00000000000000000000000000000000000000000000000000000000081526004016105ef90613df9565b60405180910390fd5b61060183610bae565b73ffffffffffffffffffffffffffffffffffffffff163373ffffffffffffffffffffffffffffffffffffffff161461066e576040517f08c379a000000000000000000000000000000000000000000000000000000000815260040161066590613e65565b60405180910390fd5b6106778361162e565b42116106b8576040517f08c379a00000000000000000000000000000000000000000000000000000000081526004016106af90613ef7565b60405180910390fd5b600960405180608001604052803373ffffffffffffffffffffffffffffffffffffffff1681526020018460ff16815260200183815260200142815250908060018154018082558091505060019003906000526020600020906003020160009091909190915060008201518160000160006101000a81548173ffffffffffffffffffffffffffffffffffffffff021916908373ffffffffffffffffffffffffffffffffffffffff16021790555060208201518160000160146101000a81548160ff021916908360ff160217905550604082015181600101908161079a9190614123565b506060820151816002015550506107b08361164e565b505050565b6060600080546107c490613f46565b80601f01602080910402602001604051908101604052809291908181526020018280546107f090613f46565b801561083d5780601f106108125761010080835404028352916020019161083d565b820191906000526020600020905b81548152906001019060200180831161082057829003601f168201915b5050505050905090565b6000610852826115c2565b610891576040517f08c379a000000000000000000000000000000000000000000000000000000000815260040161088890614267565b60405180910390fd5b6004600083815260200190815260200160002060009054906101000a900473ffffffffffffffffffffffffffffffffffffffff169050919050565b60006108d782610bae565b90508073ffffffffffffffffffffffffffffffffffffffff168373ffffffffffffffffffffffffffffffffffffffff1603610947576040517f08c379a000000000000000000000000000000000000000000000000000000000815260040161093e906142f9565b60405180910390fd5b8073ffffffffffffffffffffffffffffffffffffffff166109666116a1565b73ffffffffffffffffffffffffffffffffffffffff16148061099557506109948161098f6116a1565b6112bd565b5b6109d4576040517f08c379a00000000000000000000000000000000000000000000000000000000081526004016109cb9061438b565b60405180910390fd5b6109de83836116a9565b505050565b6109eb613181565b600982815481106109ff576109fe6143ab565b5b90600052602060002090600302016040518060800160405290816000820160009054906101000a900473ffffffffffffffffffffffffffffffffffffffff1673ffffffffffffffffffffffffffffffffffffffff1673ffffffffffffffffffffffffffffffffffffffff1681526020016000820160149054906101000a900460ff1660ff1660ff168152602001600182018054610a9b90613f46565b80601f0160208091040260200160405190810160405280929190818152602001828054610ac790613f46565b8015610b145780601f10610ae957610100808354040283529160200191610b14565b820191906000526020600020905b815481529060010190602001808311610af757829003601f168201915b505050505081526020016002820154815250509050919050565b610b3f610b396116a1565b82611762565b610b7e576040517f08c379a0000000000000000000000000000000000000000000000000000000008152600401610b759061444c565b60405180910390fd5b610b89838383611840565b505050565b610ba9838383604051806020016040528060008152506110b2565b505050565b6000806002600084815260200190815260200160002060009054906101000a900473ffffffffffffffffffffffffffffffffffffffff169050600073ffffffffffffffffffffffffffffffffffffffff168173ffffffffffffffffffffffffffffffffffffffff1603610c56576040517f08c379a0000000000000000000000000000000000000000000000000000000008152600401610c4d906144de565b60405180910390fd5b80915050919050565b60008073ffffffffffffffffffffffffffffffffffffffff168273ffffffffffffffffffffffffffffffffffffffff1603610ccf576040517f08c379a0000000000000000000000000000000000000000000000000000000008152600401610cc690614570565b60405180910390fd5b600360008373ffffffffffffffffffffffffffffffffffffffff1673ffffffffffffffffffffffffffffffffffffffff168152602001908152602001600020549050919050565b81811015610d59576040517f08c379a0000000000000000000000000000000000000000000000000000000008152600401610d5090614628565b60405180910390fd5b6000610d7e610d6742611aa6565b610d7042611bbd565b610d7942611bd3565b611be9565b90506000610da5610d8e85611aa6565b610d9786611bbd565b610da087611bd3565b611be9565b90506000610dcc610db585611aa6565b610dbe86611bbd565b610dc787611bd3565b611be9565b905082821015610e11576040517f08c379a0000000000000000000000000000000000000000000000000000000008152600401610e08906146ba565b60405180910390fd5b82811015610e54576040517f08c379a0000000000000000000000000000000000000000000000000000000008152600401610e4b9061474c565b60405180910390fd5b6000610e608383611c04565b905060011515610e6f82611d27565b151514610eb1576040517f08c379a0000000000000000000000000000000000000000000000000000000008152600401610ea8906147de565b60405180910390fd5b600060016018603c808787610ec6919061482d565b610ed09190614890565b610eda9190614890565b610ee49190614890565b610eee91906148c1565b905080662386f26fc10000610f039190614917565b341015610f45576040517f08c379a0000000000000000000000000000000000000000000000000000000008152600401610f3c906149e3565b60405180910390fd5b610f4e82611dc0565b6000610f5a6007611e24565b9050610f663382611e32565b604051806040016040528086815260200185815250600a600083815260200190815260200160002060008201518160000155602082015181600101559050506000610fb082611e50565b9050610fbc8282611ee8565b610fc66007611f55565b7f1c05098ed1ff38e6238d2b1b04b2c7977d4c94ce651bda6473f9dba8dbf01da03383604051610ff7929190614a03565b60405180910390a1505050505050505050565b60606001805461101990613f46565b80601f016020809104026020016040519081016040528092919081815260200182805461104590613f46565b80156110925780601f1061106757610100808354040283529160200191611092565b820191906000526020600020905b81548152906001019060200180831161107557829003601f168201915b5050505050905090565b6110ae6110a76116a1565b8383611f6b565b5050565b6110c36110bd6116a1565b83611762565b611102576040517f08c379a00000000000000000000000000000000000000000000000000000000081526004016110f99061444c565b60405180910390fd5b61110e848484846120d7565b50505050565b606061111f826115c2565b61115e576040517f08c379a000000000000000000000000000000000000000000000000000000000815260040161115590614a9e565b60405180910390fd5b600060066000848152602001908152602001600020805461117e90613f46565b80601f01602080910402602001604051908101604052809291908181526020018280546111aa90613f46565b80156111f75780601f106111cc576101008083540402835291602001916111f7565b820191906000526020600020905b8154815290600101906020018083116111da57829003601f168201915b505050505090506000611208612133565b9050600081510361121d578192505050611260565b60008251111561125257808260405160200161123a929190614afa565b60405160208183030381529060405292505050611260565b61125b8461214a565b925050505b919050565b606060088054806020026020016040519081016040528092919081815260200182805480156112b357602002820191906000526020600020905b81548152602001906001019080831161129f575b5050505050905090565b6000600560008473ffffffffffffffffffffffffffffffffffffffff1673ffffffffffffffffffffffffffffffffffffffff16815260200190815260200160002060008373ffffffffffffffffffffffffffffffffffffffff1673ffffffffffffffffffffffffffffffffffffffff16815260200190815260200160002060009054906101000a900460ff16905092915050565b60606009805480602002602001604051908101604052809291908181526020016000905b828210156114b657838290600052602060002090600302016040518060800160405290816000820160009054906101000a900473ffffffffffffffffffffffffffffffffffffffff1673ffffffffffffffffffffffffffffffffffffffff1673ffffffffffffffffffffffffffffffffffffffff1681526020016000820160149054906101000a900460ff1660ff1660ff16815260200160018201805461141b90613f46565b80601f016020809104026020016040519081016040528092919081815260200182805461144790613f46565b80156114945780601f1061146957610100808354040283529160200191611494565b820191906000526020600020905b81548152906001019060200180831161147757829003601f168201915b5050505050815260200160028201548152505081526020019060010190611375565b50505050905090565b611555816040516024016114d39190613610565b6040516020818303038152906040527f41304fac000000000000000000000000000000000000000000000000000000007bffffffffffffffffffffffffffffffffffffffffffffffffffffffff19166020820180517bffffffffffffffffffffffffffffffffffffffffffffffffffffffff83818316178352505050506121f1565b50565b60007f01ffc9a7000000000000000000000000000000000000000000000000000000007bffffffffffffffffffffffffffffffffffffffffffffffffffffffff1916827bffffffffffffffffffffffffffffffffffffffffffffffffffffffff1916149050919050565b60008073ffffffffffffffffffffffffffffffffffffffff166002600084815260200190815260200160002060009054906101000a900473ffffffffffffffffffffffffffffffffffffffff1673ffffffffffffffffffffffffffffffffffffffff1614159050919050565b6000600a6000838152602001908152602001600020600101549050919050565b6116578161221a565b600060066000838152602001908152602001600020805461167790613f46565b90501461169e5760066000828152602001908152602001600020600061169d91906131c2565b5b50565b600033905090565b816004600083815260200190815260200160002060006101000a81548173ffffffffffffffffffffffffffffffffffffffff021916908373ffffffffffffffffffffffffffffffffffffffff160217905550808273ffffffffffffffffffffffffffffffffffffffff1661171c83610bae565b73ffffffffffffffffffffffffffffffffffffffff167f8c5be1e5ebec7d5bd14f71427d1e84f3dd0314c0f7b2291e5b200ac8c7c3b92560405160405180910390a45050565b600061176d826115c2565b6117ac576040517f08c379a00000000000000000000000000000000000000000000000000000000081526004016117a390614b90565b60405180910390fd5b60006117b783610bae565b90508073ffffffffffffffffffffffffffffffffffffffff168473ffffffffffffffffffffffffffffffffffffffff1614806117f957506117f881856112bd565b5b8061183757508373ffffffffffffffffffffffffffffffffffffffff1661181f84610847565b73ffffffffffffffffffffffffffffffffffffffff16145b91505092915050565b8273ffffffffffffffffffffffffffffffffffffffff1661186082610bae565b73ffffffffffffffffffffffffffffffffffffffff16146118b6576040517f08c379a00000000000000000000000000000000000000000000000000000000081526004016118ad90614c22565b60405180910390fd5b600073ffffffffffffffffffffffffffffffffffffffff168273ffffffffffffffffffffffffffffffffffffffff1603611925576040517f08c379a000000000000000000000000000000000000000000000000000000000815260040161191c90614cb4565b60405180910390fd5b611930838383612337565b61193b6000826116a9565b6001600360008573ffffffffffffffffffffffffffffffffffffffff1673ffffffffffffffffffffffffffffffffffffffff168152602001908152602001600020600082825461198b919061482d565b925050819055506001600360008473ffffffffffffffffffffffffffffffffffffffff1673ffffffffffffffffffffffffffffffffffffffff16815260200190815260200160002060008282546119e291906148c1565b92505081905550816002600083815260200190815260200160002060006101000a81548173ffffffffffffffffffffffffffffffffffffffff021916908373ffffffffffffffffffffffffffffffffffffffff160217905550808273ffffffffffffffffffffffffffffffffffffffff168473ffffffffffffffffffffffffffffffffffffffff167fddf252ad1be2c89b69c2b068fc378daa952ba7f163c4a11628f55a4df523b3ef60405160405180910390a4611aa183838361233c565b505050565b600080600090506000806301e1338085611ac09190614890565b6107b261ffff16611ad191906148c1565b9150611ae26107b261ffff16612341565b611aef8361ffff16612341565b611af9919061482d565b9050806301e28500611b0b9190614917565b83611b1691906148c1565b9250806107b283611b279190614ce2565b61ffff16611b35919061482d565b6301e13380611b449190614917565b83611b4f91906148c1565b92505b84831115611bb257611b6f600183611b6a9190614ce2565b612395565b15611b8b576301e2850083611b84919061482d565b9250611b9e565b6301e1338083611b9b919061482d565b92505b600182611bab9190614ce2565b9150611b52565b819350505050919050565b6000611bc882612404565b602001519050919050565b6000611bde82612404565b604001519050919050565b6000611bfb8484846000806000612615565b90509392505050565b6060600060016018603c808787611c1b919061482d565b611c259190614890565b611c2f9190614890565b611c399190614890565b611c4391906148c1565b905060008167ffffffffffffffff811115611c6157611c606133ee565b5b604051908082528060200260200182016040528015611c8f5781602001602082028036833780820191505090505b50905060018203611cc5578481600081518110611caf57611cae6143ab565b5b6020026020010181815250508092505050611d21565b60005b82811015611d1a57858510611d095785828281518110611ceb57611cea6143ab565b5b6020026020010181815250506201518086611d0691906148c1565b95505b80611d1390614d16565b9050611cc8565b5080925050505b92915050565b600080600090505b8251811015611db55760005b600880549050811015611da35760088181548110611d5c57611d5b6143ab565b5b9060005260206000200154848381518110611d7a57611d796143ab565b5b602002602001015103611d9257600092505050611dbb565b80611d9c90614d16565b9050611d3b565b5080611dae90614d16565b9050611d2f565b50600190505b919050565b60005b8151811015611e20576008828281518110611de157611de06143ab565b5b6020026020010151908060018154018082558091505060019003906000526020600020016000909190919091505580611e1990614d16565b9050611dc3565b5050565b600081600001549050919050565b611e4c828260405180602001604052806000815250612980565b5050565b6060611ec2611e5e836129db565b611e7d600a6000868152602001908152602001600020600001546129db565b611e9c600a6000878152602001908152602001600020600101546129db565b604051602001611eae9392919061507f565b604051602081830303815290604052612b3b565b604051602001611ed2919061513e565b6040516020818303038152906040529050919050565b611ef1826115c2565b611f30576040517f08c379a0000000000000000000000000000000000000000000000000000000008152600401611f27906151d2565b60405180910390fd5b80600660008481526020019081526020016000209081611f509190614123565b505050565b6001816000016000828254019250508190555050565b8173ffffffffffffffffffffffffffffffffffffffff168373ffffffffffffffffffffffffffffffffffffffff1603611fd9576040517f08c379a0000000000000000000000000000000000000000000000000000000008152600401611fd09061523e565b60405180910390fd5b80600560008573ffffffffffffffffffffffffffffffffffffffff1673ffffffffffffffffffffffffffffffffffffffff16815260200190815260200160002060008473ffffffffffffffffffffffffffffffffffffffff1673ffffffffffffffffffffffffffffffffffffffff16815260200190815260200160002060006101000a81548160ff0219169083151502179055508173ffffffffffffffffffffffffffffffffffffffff168373ffffffffffffffffffffffffffffffffffffffff167f17307eab39ab6107e8899845ad3d59bd9653f200f220920489ca2b5937696c31836040516120ca9190613349565b60405180910390a3505050565b6120e2848484611840565b6120ee84848484612c9e565b61212d576040517f08c379a0000000000000000000000000000000000000000000000000000000008152600401612124906152d0565b60405180910390fd5b50505050565b606060405180602001604052806000815250905090565b6060612155826115c2565b612194576040517f08c379a000000000000000000000000000000000000000000000000000000000815260040161218b90615362565b60405180910390fd5b600061219e612133565b905060008151116121be57604051806020016040528060008152506121e9565b806121c8846129db565b6040516020016121d9929190614afa565b6040516020818303038152906040525b915050919050565b60008151905060006a636f6e736f6c652e6c6f679050602083016000808483855afa5050505050565b600061222582610bae565b905061223381600084612337565b61223e6000836116a9565b6001600360008373ffffffffffffffffffffffffffffffffffffffff1673ffffffffffffffffffffffffffffffffffffffff168152602001908152602001600020600082825461228e919061482d565b925050819055506002600083815260200190815260200160002060006101000a81549073ffffffffffffffffffffffffffffffffffffffff021916905581600073ffffffffffffffffffffffffffffffffffffffff168273ffffffffffffffffffffffffffffffffffffffff167fddf252ad1be2c89b69c2b068fc378daa952ba7f163c4a11628f55a4df523b3ef60405160405180910390a46123338160008461233c565b5050565b505050565b505050565b6000600182612350919061482d565b9150610190826123609190614890565b60648361236d9190614890565b60048461237a9190614890565b612384919061482d565b61238e91906148c1565b9050919050565b6000806004836123a59190615382565b61ffff16146123b757600090506123ff565b60006064836123c69190615382565b61ffff16146123d857600190506123ff565b6000610190836123e89190615382565b61ffff16146123fa57600090506123ff565b600190505b919050565b61240c613202565b6000808061241985611aa6565b846000019061ffff16908161ffff168152505061243b6107b261ffff16612341565b61244c856000015161ffff16612341565b612456919061482d565b9150816301e285006124689190614917565b8361247391906148c1565b9250816107b285600001516124889190614ce2565b61ffff16612496919061482d565b6301e133806124a59190614917565b836124b091906148c1565b92506000600191505b600c8260ff1611612530576124d2828660000151612e25565b60ff16620151806124e39190614917565b90508584826124f291906148c1565b111561250f5781856020019060ff16908160ff1681525050612530565b808461251b91906148c1565b93508180612528906153b3565b9250506124b9565b600191505b61254785602001518660000151612e25565b60ff168260ff16116125a45785846201518061256391906148c1565b11156125805781856040019060ff16908160ff16815250506125a4565b620151808461258f91906148c1565b9350818061259c906153b3565b925050612535565b6125ad86612ef1565b856060019060ff16908160ff16815250506125c786612f1e565b856080019060ff16908160ff16815250506125e186612f3f565b8560a0019060ff16908160ff16815250506125fb86612f55565b8560c0019060ff16908160ff168152505050505050919050565b6000806107b290505b8761ffff168161ffff1610156126795761263781612395565b15612653576301e285008261264c91906148c1565b9150612666565b6301e133808261266391906148c1565b91505b8080612671906153dc565b91505061261e565b612681613255565b601f816000600c8110612697576126966143ab565b5b602002019060ff16908160ff16815250506126b189612395565b156126e257601d816001600c81106126cc576126cb6143ab565b5b602002019060ff16908160ff168152505061270a565b601c816001600c81106126f8576126f76143ab565b5b602002019060ff16908160ff16815250505b601f816002600c81106127205761271f6143ab565b5b602002019060ff16908160ff1681525050601e816003600c8110612747576127466143ab565b5b602002019060ff16908160ff1681525050601f816004600c811061276e5761276d6143ab565b5b602002019060ff16908160ff1681525050601e816005600c8110612795576127946143ab565b5b602002019060ff16908160ff1681525050601f816006600c81106127bc576127bb6143ab565b5b602002019060ff16908160ff1681525050601f816007600c81106127e3576127e26143ab565b5b602002019060ff16908160ff1681525050601e816008600c811061280a576128096143ab565b5b602002019060ff16908160ff1681525050601f816009600c8110612831576128306143ab565b5b602002019060ff16908160ff1681525050601e81600a600c8110612858576128576143ab565b5b602002019060ff16908160ff1681525050601f81600b600c811061287f5761287e6143ab565b5b602002019060ff16908160ff1681525050600191505b8760ff168261ffff1610156128fd57806001836128b29190614ce2565b61ffff16600c81106128c7576128c66143ab565b5b602002015160ff16620151806128dd9190614917565b836128e891906148c1565b925081806128f5906153dc565b925050612895565b60018761290a9190615406565b60ff166201518061291b9190614917565b8361292691906148c1565b92508560ff16610e106129399190614917565b8361294491906148c1565b92508460ff16603c6129569190614917565b8361296191906148c1565b92508360ff168361297291906148c1565b925050509695505050505050565b61298a8383612f85565b6129976000848484612c9e565b6129d6576040517f08c379a00000000000000000000000000000000000000000000000000000000081526004016129cd906152d0565b60405180910390fd5b505050565b606060008203612a22576040518060400160405280600181526020017f30000000000000000000000000000000000000000000000000000000000000008152509050612b36565b600082905060005b60008214612a54578080612a3d90614d16565b915050600a82612a4d9190614890565b9150612a2a565b60008167ffffffffffffffff811115612a7057612a6f6133ee565b5b6040519080825280601f01601f191660200182016040528015612aa25781602001600182028036833780820191505090505b5090505b60008514612b2f57600182612abb919061482d565b9150600a85612aca919061543a565b6030612ad691906148c1565b60f81b818381518110612aec57612aeb6143ab565b5b60200101907effffffffffffffffffffffffffffffffffffffffffffffffffffffffffffff1916908160001a905350600a85612b289190614890565b9450612aa6565b8093505050505b919050565b60606000825103612b5d57604051806020016040528060008152509050612c99565b60006040518060600160405280604081526020016156276040913990506000600360028551612b8c91906148c1565b612b969190614890565b6004612ba29190614917565b67ffffffffffffffff811115612bbb57612bba6133ee565b5b6040519080825280601f01601f191660200182016040528015612bed5781602001600182028036833780820191505090505b509050600182016020820185865187015b80821015612c59576003820191508151603f8160121c168501518453600184019350603f81600c1c168501518453600184019350603f8160061c168501518453600184019350603f8116850151845360018401935050612bfe565b5050600386510660018114612c755760028114612c8857612c90565b603d6001830353603d6002830353612c90565b603d60018303535b50505080925050505b919050565b6000612cbf8473ffffffffffffffffffffffffffffffffffffffff1661315e565b15612e18578373ffffffffffffffffffffffffffffffffffffffff1663150b7a02612ce86116a1565b8786866040518563ffffffff1660e01b8152600401612d0a94939291906154c0565b6020604051808303816000875af1925050508015612d4657506040513d601f19601f82011682018060405250810190612d439190615521565b60015b612dc8573d8060008114612d76576040519150601f19603f3d011682016040523d82523d6000602084013e612d7b565b606091505b506000815103612dc0576040517f08c379a0000000000000000000000000000000000000000000000000000000008152600401612db7906152d0565b60405180910390fd5b805181602001fd5b63150b7a0260e01b7bffffffffffffffffffffffffffffffffffffffffffffffffffffffff1916817bffffffffffffffffffffffffffffffffffffffffffffffffffffffff191614915050612e1d565b600190505b949350505050565b600060018360ff161480612e3c575060038360ff16145b80612e4a575060058360ff16145b80612e58575060078360ff16145b80612e66575060088360ff16145b80612e745750600a8360ff16145b80612e825750600c8360ff16145b15612e9057601f9050612eeb565b60048360ff161480612ea5575060068360ff16145b80612eb3575060098360ff16145b80612ec15750600b8360ff16145b15612ecf57601e9050612eeb565b612ed882612395565b15612ee657601d9050612eeb565b601c90505b92915050565b60006018603c8084612f039190614890565b612f0d9190614890565b612f17919061543a565b9050919050565b6000603c8083612f2e9190614890565b612f38919061543a565b9050919050565b6000603c82612f4e919061543a565b9050919050565b6000600760046201518084612f6a9190614890565b612f7491906148c1565b612f7e919061543a565b9050919050565b600073ffffffffffffffffffffffffffffffffffffffff168273ffffffffffffffffffffffffffffffffffffffff1603612ff4576040517f08c379a0000000000000000000000000000000000000000000000000000000008152600401612feb9061559a565b60405180910390fd5b612ffd816115c2565b1561303d576040517f08c379a000000000000000000000000000000000000000000000000000000000815260040161303490615606565b60405180910390fd5b61304960008383612337565b6001600360008473ffffffffffffffffffffffffffffffffffffffff1673ffffffffffffffffffffffffffffffffffffffff168152602001908152602001600020600082825461309991906148c1565b92505081905550816002600083815260200190815260200160002060006101000a81548173ffffffffffffffffffffffffffffffffffffffff021916908373ffffffffffffffffffffffffffffffffffffffff160217905550808273ffffffffffffffffffffffffffffffffffffffff16600073ffffffffffffffffffffffffffffffffffffffff167fddf252ad1be2c89b69c2b068fc378daa952ba7f163c4a11628f55a4df523b3ef60405160405180910390a461315a6000838361233c565b5050565b6000808273ffffffffffffffffffffffffffffffffffffffff163b119050919050565b6040518060800160405280600073ffffffffffffffffffffffffffffffffffffffff168152602001600060ff16815260200160608152602001600081525090565b5080546131ce90613f46565b6000825580601f106131e057506131ff565b601f0160209004906000526020600020908101906131fe9190613278565b5b50565b6040518060e00160405280600061ffff168152602001600060ff168152602001600060ff168152602001600060ff168152602001600060ff168152602001600060ff168152602001600060ff1681525090565b604051806101800160405280600c90602082028036833780820191505090505090565b5b80821115613291576000816000905550600101613279565b5090565b6000604051905090565b600080fd5b600080fd5b60007fffffffff0000000000000000000000000000000000000000000000000000000082169050919050565b6132de816132a9565b81146132e957600080fd5b50565b6000813590506132fb816132d5565b92915050565b6000602082840312156133175761331661329f565b5b6000613325848285016132ec565b91505092915050565b60008115159050919050565b6133438161332e565b82525050565b600060208201905061335e600083018461333a565b92915050565b6000819050919050565b61337781613364565b811461338257600080fd5b50565b6000813590506133948161336e565b92915050565b600060ff82169050919050565b6133b08161339a565b81146133bb57600080fd5b50565b6000813590506133cd816133a7565b92915050565b600080fd5b600080fd5b6000601f19601f8301169050919050565b7f4e487b7100000000000000000000000000000000000000000000000000000000600052604160045260246000fd5b613426826133dd565b810181811067ffffffffffffffff82111715613445576134446133ee565b5b80604052505050565b6000613458613295565b9050613464828261341d565b919050565b600067ffffffffffffffff821115613484576134836133ee565b5b61348d826133dd565b9050602081019050919050565b82818337600083830152505050565b60006134bc6134b784613469565b61344e565b9050828152602081018484840111156134d8576134d76133d8565b5b6134e384828561349a565b509392505050565b600082601f830112613500576134ff6133d3565b5b81356135108482602086016134a9565b91505092915050565b6000806000606084860312156135325761353161329f565b5b600061354086828701613385565b9350506020613551868287016133be565b925050604084013567ffffffffffffffff811115613572576135716132a4565b5b61357e868287016134eb565b9150509250925092565b600081519050919050565b600082825260208201905092915050565b60005b838110156135c25780820151818401526020810190506135a7565b838111156135d1576000848401525b50505050565b60006135e282613588565b6135ec8185613593565b93506135fc8185602086016135a4565b613605816133dd565b840191505092915050565b6000602082019050818103600083015261362a81846135d7565b905092915050565b6000602082840312156136485761364761329f565b5b600061365684828501613385565b91505092915050565b600073ffffffffffffffffffffffffffffffffffffffff82169050919050565b600061368a8261365f565b9050919050565b61369a8161367f565b82525050565b60006020820190506136b56000830184613691565b92915050565b6136c48161367f565b81146136cf57600080fd5b50565b6000813590506136e1816136bb565b92915050565b600080604083850312156136fe576136fd61329f565b5b600061370c858286016136d2565b925050602061371d85828601613385565b9150509250929050565b6137308161367f565b82525050565b61373f8161339a565b82525050565b600082825260208201905092915050565b600061376182613588565b61376b8185613745565b935061377b8185602086016135a4565b613784816133dd565b840191505092915050565b61379881613364565b82525050565b60006080830160008301516137b66000860182613727565b5060208301516137c96020860182613736565b50604083015184820360408601526137e18282613756565b91505060608301516137f6606086018261378f565b508091505092915050565b6000602082019050818103600083015261381b818461379e565b905092915050565b60008060006060848603121561383c5761383b61329f565b5b600061384a868287016136d2565b935050602061385b868287016136d2565b925050604061386c86828701613385565b9150509250925092565b60006020828403121561388c5761388b61329f565b5b600061389a848285016136d2565b91505092915050565b6138ac81613364565b82525050565b60006020820190506138c760008301846138a3565b92915050565b600080604083850312156138e4576138e361329f565b5b60006138f285828601613385565b925050602061390385828601613385565b9150509250929050565b6139168161332e565b811461392157600080fd5b50565b6000813590506139338161390d565b92915050565b600080604083850312156139505761394f61329f565b5b600061395e858286016136d2565b925050602061396f85828601613924565b9150509250929050565b600067ffffffffffffffff821115613994576139936133ee565b5b61399d826133dd565b9050602081019050919050565b60006139bd6139b884613979565b61344e565b9050828152602081018484840111156139d9576139d86133d8565b5b6139e484828561349a565b509392505050565b600082601f830112613a0157613a006133d3565b5b8135613a118482602086016139aa565b91505092915050565b60008060008060808587031215613a3457613a3361329f565b5b6000613a42878288016136d2565b9450506020613a53878288016136d2565b9350506040613a6487828801613385565b925050606085013567ffffffffffffffff811115613a8557613a846132a4565b5b613a91878288016139ec565b91505092959194509250565b600081519050919050565b600082825260208201905092915050565b6000819050602082019050919050565b6000613ad5838361378f565b60208301905092915050565b6000602082019050919050565b6000613af982613a9d565b613b038185613aa8565b9350613b0e83613ab9565b8060005b83811015613b3f578151613b268882613ac9565b9750613b3183613ae1565b925050600181019050613b12565b5085935050505092915050565b60006020820190508181036000830152613b668184613aee565b905092915050565b60008060408385031215613b8557613b8461329f565b5b6000613b93858286016136d2565b9250506020613ba4858286016136d2565b9150509250929050565b600081519050919050565b600082825260208201905092915050565b6000819050602082019050919050565b6000608083016000830151613bf26000860182613727565b506020830151613c056020860182613736565b5060408301518482036040860152613c1d8282613756565b9150506060830151613c32606086018261378f565b508091505092915050565b6000613c498383613bda565b905092915050565b6000602082019050919050565b6000613c6982613bae565b613c738185613bb9565b935083602082028501613c8585613bca565b8060005b85811015613cc15784840389528151613ca28582613c3d565b9450613cad83613c51565b925060208a01995050600181019050613c89565b50829750879550505050505092915050565b60006020820190508181036000830152613ced8184613c5e565b905092915050565b7f4572726f21204f20746f6b656e20696e73657269646f206e616f20657869737460008201527f652e000000000000000000000000000000000000000000000000000000000000602082015250565b6000613d51602283613593565b9150613d5c82613cf5565b604082019050919050565b60006020820190508181036000830152613d8081613d44565b9050919050565b7f4572726f21204f20726174696e672074656d2071756520657374617220636f6d60008201527f707265656e6469646f20656e747265203020652031302e000000000000000000602082015250565b6000613de3603783613593565b9150613dee82613d87565b604082019050919050565b60006020820190508181036000830152613e1281613dd6565b9050919050565b7f4572726f21204f20746f6b656e206e616f206c68652070657274656e63652e00600082015250565b6000613e4f601f83613593565b9150613e5a82613e19565b602082019050919050565b60006020820190508181036000830152613e7e81613e42565b9050919050565b7f4572726f212041206461746120646f2066696d2064612072657365727661206160008201527f696e6461206e616f20666f6920756c747261706173736164612e000000000000602082015250565b6000613ee1603a83613593565b9150613eec82613e85565b604082019050919050565b60006020820190508181036000830152613f1081613ed4565b9050919050565b7f4e487b7100000000000000000000000000000000000000000000000000000000600052602260045260246000fd5b60006002820490506001821680613f5e57607f821691505b602082108103613f7157613f70613f17565b5b50919050565b60008190508160005260206000209050919050565b60006020601f8301049050919050565b600082821b905092915050565b600060088302613fd97fffffffffffffffffffffffffffffffffffffffffffffffffffffffffffffffff82613f9c565b613fe38683613f9c565b95508019841693508086168417925050509392505050565b6000819050919050565b600061402061401b61401684613364565b613ffb565b613364565b9050919050565b6000819050919050565b61403a83614005565b61404e61404682614027565b848454613fa9565b825550505050565b600090565b614063614056565b61406e818484614031565b505050565b5b818110156140925761408760008261405b565b600181019050614074565b5050565b601f8211156140d7576140a881613f77565b6140b184613f8c565b810160208510156140c0578190505b6140d46140cc85613f8c565b830182614073565b50505b505050565b600082821c905092915050565b60006140fa600019846008026140dc565b1980831691505092915050565b600061411383836140e9565b9150826002028217905092915050565b61412c82613588565b67ffffffffffffffff811115614145576141446133ee565b5b61414f8254613f46565b61415a828285614096565b600060209050601f83116001811461418d576000841561417b578287015190505b6141858582614107565b8655506141ed565b601f19841661419b86613f77565b60005b828110156141c35784890151825560018201915060208501945060208101905061419e565b868310156141e057848901516141dc601f8916826140e9565b8355505b6001600288020188555050505b505050505050565b7f4552433732313a20617070726f76656420717565727920666f72206e6f6e657860008201527f697374656e7420746f6b656e0000000000000000000000000000000000000000602082015250565b6000614251602c83613593565b915061425c826141f5565b604082019050919050565b6000602082019050818103600083015261428081614244565b9050919050565b7f4552433732313a20617070726f76616c20746f2063757272656e74206f776e6560008201527f7200000000000000000000000000000000000000000000000000000000000000602082015250565b60006142e3602183613593565b91506142ee82614287565b604082019050919050565b60006020820190508181036000830152614312816142d6565b9050919050565b7f4552433732313a20617070726f76652063616c6c6572206973206e6f74206f7760008201527f6e6572206e6f7220617070726f76656420666f7220616c6c0000000000000000602082015250565b6000614375603883613593565b915061438082614319565b604082019050919050565b600060208201905081810360008301526143a481614368565b9050919050565b7f4e487b7100000000000000000000000000000000000000000000000000000000600052603260045260246000fd5b7f4552433732313a207472616e736665722063616c6c6572206973206e6f74206f60008201527f776e6572206e6f7220617070726f766564000000000000000000000000000000602082015250565b6000614436603183613593565b9150614441826143da565b604082019050919050565b6000602082019050818103600083015261446581614429565b9050919050565b7f4552433732313a206f776e657220717565727920666f72206e6f6e657869737460008201527f656e7420746f6b656e0000000000000000000000000000000000000000000000602082015250565b60006144c8602983613593565b91506144d38261446c565b604082019050919050565b600060208201905081810360008301526144f7816144bb565b9050919050565b7f4552433732313a2062616c616e636520717565727920666f7220746865207a6560008201527f726f206164647265737300000000000000000000000000000000000000000000602082015250565b600061455a602a83613593565b9150614565826144fe565b604082019050919050565b600060208201905081810360008301526145898161454d565b9050919050565b7f4572726f212041206461746120646520696e6963696f206e616f20706f64652060008201527f736572207375706572696f72206120646f2066696d206461207265736572766160208201527f2e00000000000000000000000000000000000000000000000000000000000000604082015250565b6000614612604183613593565b915061461d82614590565b606082019050919050565b6000602082019050818103600083015261464181614605565b9050919050565b7f4572726f212041206461746120646520696e6963696f2064612072657365727660008201527f61206a6120666f6920756c747261706173736164612e00000000000000000000602082015250565b60006146a4603683613593565b91506146af82614648565b604082019050919050565b600060208201905081810360008301526146d381614697565b9050919050565b7f4572726f212041206461746120646f2066696d2064612072657365727661206a60008201527f6120666f6920756c747261706173736164612e00000000000000000000000000602082015250565b6000614736603383613593565b9150614741826146da565b604082019050919050565b6000602082019050818103600083015261476581614729565b9050919050565b7f4572726f2120496e66656c697a6d656e7465206173206461746173206573636f60008201527f6c6869646173206a6120657374616f206f637570616461732e00000000000000602082015250565b60006147c8603983613593565b91506147d38261476c565b604082019050919050565b600060208201905081810360008301526147f7816147bb565b9050919050565b7f4e487b7100000000000000000000000000000000000000000000000000000000600052601160045260246000fd5b600061483882613364565b915061484383613364565b925082821015614856576148556147fe565b5b828203905092915050565b7f4e487b7100000000000000000000000000000000000000000000000000000000600052601260045260246000fd5b600061489b82613364565b91506148a683613364565b9250826148b6576148b5614861565b5b828204905092915050565b60006148cc82613364565b91506148d783613364565b9250827fffffffffffffffffffffffffffffffffffffffffffffffffffffffffffffffff0382111561490c5761490b6147fe565b5b828201905092915050565b600061492282613364565b915061492d83613364565b9250817fffffffffffffffffffffffffffffffffffffffffffffffffffffffffffffffff0483118215151615614966576149656147fe565b5b828202905092915050565b7f4572726f21204f20706167616d656e746f206e616f20666f692062656d20737560008201527f63656469646f2e2054656e7465206e6f76616d656e74652e0000000000000000602082015250565b60006149cd603883613593565b91506149d882614971565b604082019050919050565b600060208201905081810360008301526149fc816149c0565b9050919050565b6000604082019050614a186000830185613691565b614a2560208301846138a3565b9392505050565b7f45524337323155524953746f726167653a2055524920717565727920666f722060008201527f6e6f6e6578697374656e7420746f6b656e000000000000000000000000000000602082015250565b6000614a88603183613593565b9150614a9382614a2c565b604082019050919050565b60006020820190508181036000830152614ab781614a7b565b9050919050565b600081905092915050565b6000614ad482613588565b614ade8185614abe565b9350614aee8185602086016135a4565b80840191505092915050565b6000614b068285614ac9565b9150614b128284614ac9565b91508190509392505050565b7f4552433732313a206f70657261746f7220717565727920666f72206e6f6e657860008201527f697374656e7420746f6b656e0000000000000000000000000000000000000000602082015250565b6000614b7a602c83613593565b9150614b8582614b1e565b604082019050919050565b60006020820190508181036000830152614ba981614b6d565b9050919050565b7f4552433732313a207472616e736665722066726f6d20696e636f72726563742060008201527f6f776e6572000000000000000000000000000000000000000000000000000000602082015250565b6000614c0c602583613593565b9150614c1782614bb0565b604082019050919050565b60006020820190508181036000830152614c3b81614bff565b9050919050565b7f4552433732313a207472616e7366657220746f20746865207a65726f2061646460008201527f7265737300000000000000000000000000000000000000000000000000000000602082015250565b6000614c9e602483613593565b9150614ca982614c42565b604082019050919050565b60006020820190508181036000830152614ccd81614c91565b9050919050565b600061ffff82169050919050565b6000614ced82614cd4565b9150614cf883614cd4565b925082821015614d0b57614d0a6147fe565b5b828203905092915050565b6000614d2182613364565b91507fffffffffffffffffffffffffffffffffffffffffffffffffffffffffffffffff8203614d5357614d526147fe565b5b600182019050919050565b7f7b226e616d65223a2252656e744d7941706172746d656e742023000000000000600082015250565b6000614d94601a83614abe565b9150614d9f82614d5e565b601a82019050919050565b7f222c20226465736372697074696f6e223a225468616e6b20796f7520666f722060008201527f63686f6f73696e6720757320666f7220796f757220726563656e74207374617960208201527f20696e20506f72746f2e205765206c6f6f6b20666f727761726420746f20776560408201527f6c636f6d696e6720796f7521222c2022696d616765223a2268747470733a2f2f60608201527f697066732e696f2f697066732f516d574d485a583175474e70724c436f58557160808201527f684867324d55447744354d6e7a705866634b325639673557685767222c20226160a08201527f747472696275746573223a5b7b22646973706c61795f74797065223a2022646160c08201527f7465222c202274726169745f74797065223a20227374617274222c202276616c60e08201527f7565223a0000000000000000000000000000000000000000000000000000000061010082015250565b6000614f1261010483614abe565b9150614f1d82614daa565b61010482019050919050565b7f7d2c000000000000000000000000000000000000000000000000000000000000600082015250565b6000614f5f600283614abe565b9150614f6a82614f29565b600282019050919050565b7f7b22646973706c61795f74797065223a202264617465222c202274726169745f60008201527f74797065223a2022656e64222c202276616c7565223a00000000000000000000602082015250565b6000614fd1603683614abe565b9150614fdc82614f75565b603682019050919050565b7f7d00000000000000000000000000000000000000000000000000000000000000600082015250565b600061501d600183614abe565b915061502882614fe7565b600182019050919050565b7f5d7d000000000000000000000000000000000000000000000000000000000000600082015250565b6000615069600283614abe565b915061507482615033565b600282019050919050565b600061508a82614d87565b91506150968286614ac9565b91506150a182614f04565b91506150ad8285614ac9565b91506150b882614f52565b91506150c382614fc4565b91506150cf8284614ac9565b91506150da82615010565b91506150e58261505c565b9150819050949350505050565b7f646174613a6170706c69636174696f6e2f6a736f6e3b6261736536342c000000600082015250565b6000615128601d83614abe565b9150615133826150f2565b601d82019050919050565b60006151498261511b565b91506151558284614ac9565b915081905092915050565b7f45524337323155524953746f726167653a2055524920736574206f66206e6f6e60008201527f6578697374656e7420746f6b656e000000000000000000000000000000000000602082015250565b60006151bc602e83613593565b91506151c782615160565b604082019050919050565b600060208201905081810360008301526151eb816151af565b9050919050565b7f4552433732313a20617070726f766520746f2063616c6c657200000000000000600082015250565b6000615228601983613593565b9150615233826151f2565b602082019050919050565b600060208201905081810360008301526152578161521b565b9050919050565b7f4552433732313a207472616e7366657220746f206e6f6e20455243373231526560008201527f63656976657220696d706c656d656e7465720000000000000000000000000000602082015250565b60006152ba603283613593565b91506152c58261525e565b604082019050919050565b600060208201905081810360008301526152e9816152ad565b9050919050565b7f4552433732314d657461646174613a2055524920717565727920666f72206e6f60008201527f6e6578697374656e7420746f6b656e0000000000000000000000000000000000602082015250565b600061534c602f83613593565b9150615357826152f0565b604082019050919050565b6000602082019050818103600083015261537b8161533f565b9050919050565b600061538d82614cd4565b915061539883614cd4565b9250826153a8576153a7614861565b5b828206905092915050565b60006153be8261339a565b915060ff82036153d1576153d06147fe565b5b600182019050919050565b60006153e782614cd4565b915061ffff82036153fb576153fa6147fe565b5b600182019050919050565b60006154118261339a565b915061541c8361339a565b92508282101561542f5761542e6147fe565b5b828203905092915050565b600061544582613364565b915061545083613364565b9250826154605761545f614861565b5b828206905092915050565b600081519050919050565b600082825260208201905092915050565b60006154928261546b565b61549c8185615476565b93506154ac8185602086016135a4565b6154b5816133dd565b840191505092915050565b60006080820190506154d56000830187613691565b6154e26020830186613691565b6154ef60408301856138a3565b81810360608301526155018184615487565b905095945050505050565b60008151905061551b816132d5565b92915050565b6000602082840312156155375761553661329f565b5b60006155458482850161550c565b91505092915050565b7f4552433732313a206d696e7420746f20746865207a65726f2061646472657373600082015250565b6000615584602083613593565b915061558f8261554e565b602082019050919050565b600060208201905081810360008301526155b381615577565b9050919050565b7f4552433732313a20746f6b656e20616c7265616479206d696e74656400000000600082015250565b60006155f0601c83613593565b91506155fb826155ba565b602082019050919050565b6000602082019050818103600083015261561f816155e3565b905091905056fe4142434445464748494a4b4c4d4e4f505152535455565758595a6162636465666768696a6b6c6d6e6f707172737475767778797a303132333435363738392b2fa26469706673582212205e42cd54e5a88fc59670c26ece0305e8991b9344daf8ddbe6f6a609da8d8da4664736f6c634300080f0033",
  "linkReferences": {},
  "deployedLinkReferences": {}
}